{
  "_format": "hh-sol-artifact-1",
  "contractName": "JoeLiquidator",
  "sourceName": "contracts/JoeLiquidator.sol",
  "abi": [
    {
      "inputs": [
        {
          "internalType": "address",
          "name": "_joetrollerAddress",
          "type": "address"
        },
        {
          "internalType": "address",
          "name": "_joeRouter02Address",
          "type": "address"
        },
        {
          "internalType": "address",
          "name": "_jUSDCAddress",
          "type": "address"
        },
        {
          "internalType": "address",
          "name": "_jWETHAddress",
          "type": "address"
        }
      ],
      "stateMutability": "nonpayable",
      "type": "constructor"
    },
    {
      "anonymous": false,
      "inputs": [
        {
          "indexed": true,
          "internalType": "address",
          "name": "_borrowerLiquidated",
          "type": "address"
        },
        {
          "indexed": false,
          "internalType": "address",
          "name": "_jRepayToken",
          "type": "address"
        },
        {
          "indexed": false,
          "internalType": "address",
          "name": "_jSeizeToken",
          "type": "address"
        },
        {
          "indexed": false,
          "internalType": "uint256",
          "name": "_repayAmount",
          "type": "uint256"
        },
        {
          "indexed": false,
          "internalType": "uint256",
          "name": "_profitedAVAX",
          "type": "uint256"
        }
      ],
      "name": "LiquidationEvent",
      "type": "event"
    },
    {
      "inputs": [],
      "name": "USDC",
      "outputs": [
        {
          "internalType": "address",
          "name": "",
          "type": "address"
        }
      ],
      "stateMutability": "view",
      "type": "function"
    },
    {
      "inputs": [],
      "name": "WAVAX",
      "outputs": [
        {
          "internalType": "address",
          "name": "",
          "type": "address"
        }
      ],
      "stateMutability": "view",
      "type": "function"
    },
    {
      "inputs": [],
      "name": "WETH",
      "outputs": [
        {
          "internalType": "address",
          "name": "",
          "type": "address"
        }
      ],
      "stateMutability": "view",
      "type": "function"
    },
    {
      "inputs": [],
      "name": "jUSDCAddress",
      "outputs": [
        {
          "internalType": "address",
          "name": "",
          "type": "address"
        }
      ],
      "stateMutability": "view",
      "type": "function"
    },
    {
      "inputs": [],
      "name": "jWETHAddress",
      "outputs": [
        {
          "internalType": "address",
          "name": "",
          "type": "address"
        }
      ],
      "stateMutability": "view",
      "type": "function"
    },
    {
      "inputs": [],
      "name": "joeRouter02Address",
      "outputs": [
        {
          "internalType": "address",
          "name": "",
          "type": "address"
        }
      ],
      "stateMutability": "view",
      "type": "function"
    },
    {
      "inputs": [],
      "name": "joetrollerAddress",
      "outputs": [
        {
          "internalType": "address",
          "name": "",
          "type": "address"
        }
      ],
      "stateMutability": "view",
      "type": "function"
    },
    {
      "inputs": [
        {
          "internalType": "address",
          "name": "_borrowerToLiquidate",
          "type": "address"
        },
        {
          "internalType": "address",
          "name": "_jRepayTokenAddress",
          "type": "address"
        },
        {
          "internalType": "address",
          "name": "_jSeizeTokenAddress",
          "type": "address"
        }
      ],
      "name": "liquidate",
      "outputs": [],
      "stateMutability": "nonpayable",
      "type": "function"
    },
    {
      "inputs": [
        {
          "internalType": "address",
          "name": "_initiator",
          "type": "address"
        },
        {
          "internalType": "address",
          "name": "_flashLoanTokenAddress",
          "type": "address"
        },
        {
          "internalType": "uint256",
          "name": "_flashLoanAmount",
          "type": "uint256"
        },
        {
          "internalType": "uint256",
          "name": "_flashLoanFee",
          "type": "uint256"
        },
        {
          "internalType": "bytes",
          "name": "_data",
          "type": "bytes"
        }
      ],
      "name": "onFlashLoan",
      "outputs": [
        {
          "internalType": "bytes32",
          "name": "",
          "type": "bytes32"
        }
      ],
      "stateMutability": "nonpayable",
      "type": "function"
    },
    {
      "stateMutability": "payable",
      "type": "receive"
    }
  ],
  "bytecode": "0x60806040523480156200001157600080fd5b5060405162002c0f38038062002c0f8339810160408190526200003491620000a5565b600080546001600160a01b039586166001600160a01b031991821617909155600180549486169482169490941790935560028054928516928416929092179091556003805491909316911617905562000101565b80516001600160a01b0381168114620000a057600080fd5b919050565b60008060008060808587031215620000bb578384fd5b620000c68562000088565b9350620000d66020860162000088565b9250620000e66040860162000088565b9150620000f66060860162000088565b905092959194509250565b612afe80620001116000396000f3fe60806040526004361061008a5760003560e01c806389a302711161005957806389a3027114610149578063ad5c464814610171578063c62d275114610199578063ca5ce2ec146101b9578063e62fbf6a146101db57600080fd5b8063218377a01461009657806323e30c8b146100d357806373b295c214610101578063897857b81461012957600080fd5b3661009157005b600080fd5b3480156100a257600080fd5b506003546100b6906001600160a01b031681565b6040516001600160a01b0390911681526020015b60405180910390f35b3480156100df57600080fd5b506100f36100ee36600461266a565b6101fb565b6040519081526020016100ca565b34801561010d57600080fd5b506100b673b31f66aa3c1e785363f0875a1b74e27b85fd66c781565b34801561013557600080fd5b506000546100b6906001600160a01b031681565b34801561015557600080fd5b506100b673a7d7079b0fead91f3e65f86e8915cb59c1a4c66481565b34801561017d57600080fd5b506100b67349d5c2bdffac6ce2bfdb6640f4f80f226bc10bab81565b3480156101a557600080fd5b506002546100b6906001600160a01b031681565b3480156101c557600080fd5b506101d96101d4366004612620565b6104e5565b005b3480156101e757600080fd5b506001546100b6906001600160a01b031681565b60008054604051633d98a1e560e01b81523360048201526001600160a01b0390911690633d98a1e59060240160206040518083038186803b15801561023f57600080fd5b505afa158015610253573d6000803e3d6000fd5b505050506040513d601f19601f8201168201806040525081019061027791906127cf565b6102ee5760405162461bcd60e51b815260206004820152603b60248201527f4a6f654c697175696461746f723a20556e74727573746564206d65737361676560448201527f2073656e6465722063616c6c696e67206f6e466c6173684c6f616e000000000060648201526084015b60405180910390fd5b60006102fd8888888787610679565b9050600061030b8787610877565b90506000826000015190506103988989836001600160a01b0316636f307dc36040518163ffffffff1660e01b8152600401602060405180830381600087803b15801561035657600080fd5b505af115801561036a573d6000803e3d6000fd5b505050506040513d601f19601f8201168201806040525081019061038e9190612582565b866060015161088c565b6103b081846040015185606001518660200151610aec565b6103bd8360200151610f7d565b6103cc83602001518a8461122d565b60006103dc8b856020015161164c565b9050600081116104425760405162461bcd60e51b81526020600482015260396024820152600080516020612aa983398151915260448201527f70726f66697465642066726f6d206c69717569646174696f6e0000000000000060648201526084016102e5565b61044c8a84611ae7565b60408085015185516020808801516060808a015186516001600160a01b039586168152928516938301939093529481019190915292830184905216907f1683d07b2bca5806ccc25a2d5ecdad3343784e4ed273236e2a53890b4f1d95a69060800160405180910390a2507f7968ba28153757de2da7bce4c2ba9ebaf94445061f3050de1b0de5c34bb7d5d89a9950505050505050505050565b60008054604051635ec88c7960e01b81526001600160a01b0380871660048301528693928392911690635ec88c799060240160606040518083038186803b15801561052f57600080fd5b505afa158015610543573d6000803e3d6000fd5b505050506040513d601f19601f820116820180604052508101906105679190612807565b9250925050816000146105e25760405162461bcd60e51b815260206004820152603f60248201527f4a6f654c697175696461746f723a2043616e6e6f74206c69717569646174652060448201527f6163636f756e742077697468206e6f6e2d7a65726f206c69717569646974790060648201526084016102e5565b806106555760405162461bcd60e51b815260206004820152603b60248201527f4a6f654c697175696461746f723a2043616e6e6f74206c69717569646174652060448201527f6163636f756e742077697468207a65726f2073686f727466616c6c000000000060648201526084016102e5565b6000610662878787611bdc565b905061067087878784611f6b565b50505050505050565b6040805160808101825260008082526020820181905291810182905260608101829052908080808080806106af8a8a018b61259e565b9650965096509650965096509650866001600160a01b03168d6001600160a01b03161461072e5760405162461bcd60e51b815260206004820152602760248201527f4a6f654c697175696461746f723a20556e74727573746564206c6f616e20696e60448201526634ba34b0ba37b960c91b60648201526084016102e5565b826001600160a01b03168c6001600160a01b0316146107c35760405162461bcd60e51b8152602060048201526044602482018190527f4a6f654c697175696461746f723a20456e636f64656420646174612028666c61908201527f73684c6f616e6564546f6b656e416464726573732920646f6573206e6f74206d6064820152630c2e8c6d60e31b608482015260a4016102e5565b818b146108385760405162461bcd60e51b815260206004820152603c60248201527f4a6f654c697175696461746f723a20456e636f64656420646174612028666c6160448201527f73684c6f616e416d6f756e742920646f6573206e6f74206d617463680000000060648201526084016102e5565b604080516080810182526001600160a01b0396871681529486166020860152959094169483019490945250606081019190915298975050505050505050565b60006108838284612a0d565b90505b92915050565b60015460405163095ea7b360e01b81526001600160a01b039182166004820152602481018590529085169063095ea7b390604401600060405180830381600087803b1580156108da57600080fd5b505af11580156108ee573d6000803e3d6000fd5b5060009250600291506108fe9050565b604051908082528060200260200182016040528015610927578160200160208202803683370190505b509050848160008151811061094c57634e487b7160e01b600052603260045260246000fd5b60200260200101906001600160a01b031690816001600160a01b031681525050828160018151811061098e57634e487b7160e01b600052603260045260246000fd5b6001600160a01b039283166020918202929092010152831673b31f66aa3c1e785363f0875a1b74e27b85fd66c7148015610a565760015460405163676528d160e01b81526001600160a01b039091169063676528d1906109fa90889087908790309042906004016129d1565b600060405180830381600087803b158015610a1457600080fd5b505af1158015610a28573d6000803e3d6000fd5b505050506040513d6000823e601f3d908101601f19168201604052610a50919081019061270f565b50610ae4565b6001546040516338ed173960e01b81526001600160a01b03909116906338ed173990610a8e90889087908790309042906004016129d1565b600060405180830381600087803b158015610aa857600080fd5b505af1158015610abc573d6000803e3d6000fd5b505050506040513d6000823e601f3d908101601f19168201604052610670919081019061270f565b505050505050565b600073b31f66aa3c1e785363f0875a1b74e27b85fd66c76001600160a01b0316856001600160a01b0316636f307dc36040518163ffffffff1660e01b8152600401602060405180830381600087803b158015610b4757600080fd5b505af1158015610b5b573d6000803e3d6000fd5b505050506040513d601f19601f82011682018060405250810190610b7f9190612582565b6001600160a01b0316149050600081610c8357856001600160a01b0316636f307dc36040518163ffffffff1660e01b8152600401602060405180830381600087803b158015610bcd57600080fd5b505af1158015610be1573d6000803e3d6000fd5b505050506040513d601f19601f82011682018060405250810190610c059190612582565b6040516370a0823160e01b81523060048201526001600160a01b0391909116906370a082319060240160206040518083038186803b158015610c4657600080fd5b505afa158015610c5a573d6000803e3d6000fd5b505050506040513d601f19601f82011682018060405250810190610c7e91906127ef565b610c85565b475b905083811015610d115760405162461bcd60e51b815260206004820152605b6024820152600080516020612aa983398151915260448201527f656e6f75676820756e6465726c79696e6720726570617920746f6b656e20746f60648201527f206c697175696461746520626f72726f7720706f736974696f6e2e0000000000608482015260a4016102e5565b60008215610da557604051630a45c9e960e21b81526001600160a01b038781166004830152858116602483015288169063291727a49087906044016020604051808303818588803b158015610d6557600080fd5b505af1158015610d79573d6000803e3d6000fd5b50505050506040513d601f19601f82011682018060405250810190610d9e91906127ef565b9050610f09565b866001600160a01b0316636f307dc36040518163ffffffff1660e01b8152600401602060405180830381600087803b158015610de057600080fd5b505af1158015610df4573d6000803e3d6000fd5b505050506040513d601f19601f82011682018060405250810190610e189190612582565b60405163095ea7b360e01b81526001600160a01b03898116600483015260248201889052919091169063095ea7b390604401600060405180830381600087803b158015610e6457600080fd5b505af1158015610e78573d6000803e3d6000fd5b5050604051637af1e23160e11b81526001600160a01b0389811660048301526024820189905287811660448301528a16925063f5e3c4629150606401602060405180830381600087803b158015610ece57600080fd5b505af1158015610ee2573d6000803e3d6000fd5b505050506040513d601f19601f82011682018060405250810190610f0691906127ef565b90505b80156106705760405162461bcd60e51b815260206004820152603760248201527f4a6f654c697175696461746f723a204572726f72206f6363757272656420747260448201527f79696e6720746f206c6971756964617465426f72726f7700000000000000000060648201526084016102e5565b6040516370a0823160e01b81523060048201526000906001600160a01b038316906370a082319060240160206040518083038186803b158015610fbf57600080fd5b505afa158015610fd3573d6000803e3d6000fd5b505050506040513d601f19601f82011682018060405250810190610ff791906127ef565b90506000829050600073b31f66aa3c1e785363f0875a1b74e27b85fd66c76001600160a01b0316826001600160a01b0316636f307dc36040518163ffffffff1660e01b8152600401602060405180830381600087803b15801561105957600080fd5b505af115801561106d573d6000803e3d6000fd5b505050506040513d601f19601f820116820180604052508101906110919190612582565b6001600160a01b03161490506000811561112657604051634bf03edf60e01b8152600481018590526001600160a01b03861690634bf03edf90602401602060405180830381600087803b1580156110e757600080fd5b505af11580156110fb573d6000803e3d6000fd5b505050506040513d601f19601f8201168201806040525081019061111f91906127ef565b90506111a3565b60405163db006a7560e01b8152600481018590526001600160a01b0384169063db006a7590602401602060405180830381600087803b15801561116857600080fd5b505af115801561117c573d6000803e3d6000fd5b505050506040513d601f19601f820116820180604052508101906111a091906127ef565b90505b80156112265760405162461bcd60e51b815260206004820152604660248201527f4a6f654c697175696461746f723a204572726f72206f6363757272656420747260448201527f79696e6720746f2072656465656d20756e6465726c79696e67207365697a6520606482015265746f6b656e7360d01b608482015260a4016102e5565b5050505050565b60008390506000816001600160a01b0316636f307dc36040518163ffffffff1660e01b8152600401602060405180830381600087803b15801561126f57600080fd5b505af1158015611283573d6000803e3d6000fd5b505050506040513d601f19601f820116820180604052508101906112a79190612582565b604080516002808252606082018352929350600092909160208301908036833701905050905081816000815181106112ef57634e487b7160e01b600052603260045260246000fd5b60200260200101906001600160a01b031690816001600160a01b031681525050848160018151811061133157634e487b7160e01b600052603260045260246000fd5b6001600160a01b0392831660209182029290920101526001546040516307c0329d60e21b81526000929190911690631f00ca74906113759088908690600401612983565b60006040518083038186803b15801561138d57600080fd5b505afa1580156113a1573d6000803e3d6000fd5b505050506040513d6000823e601f3d908101601f191682016040526113c9919081019061270f565b6000815181106113e957634e487b7160e01b600052603260045260246000fd5b602090810291909101015190506001600160a01b03831673b31f66aa3c1e785363f0875a1b74e27b85fd66c71480156114b05760015460405163a2a1623d60e01b81526001600160a01b039091169063a2a1623d908490611454908a9088903090429060040161299c565b6000604051808303818588803b15801561146d57600080fd5b505af1158015611481573d6000803e3d6000fd5b50505050506040513d6000823e601f3d908101601f191682016040526114aa919081019061270f565b506115a8565b60015460405163095ea7b360e01b81526001600160a01b03918216600482015260248101849052859182169063095ea7b390604401600060405180830381600087803b1580156114ff57600080fd5b505af1158015611513573d6000803e3d6000fd5b50506001546040516338ed173960e01b81526001600160a01b0390911692506338ed1739915061154f9086908b908990309042906004016129d1565b600060405180830381600087803b15801561156957600080fd5b505af115801561157d573d6000803e3d6000fd5b505050506040513d6000823e601f3d908101601f191682016040526115a5919081019061270f565b50505b6040516370a0823160e01b8152306004820152879087906001600160a01b038316906370a082319060240160206040518083038186803b1580156115eb57600080fd5b505afa1580156115ff573d6000803e3d6000fd5b505050506040513d601f19601f8201168201806040525081019061162391906127ef565b10156116415760405162461bcd60e51b81526004016102e590612912565b505050505050505050565b6000808290506000816001600160a01b0316636f307dc36040518163ffffffff1660e01b8152600401602060405180830381600087803b15801561168f57600080fd5b505af11580156116a3573d6000803e3d6000fd5b505050506040513d601f19601f820116820180604052508101906116c79190612582565b90506001600160a01b03811673b31f66aa3c1e785363f0875a1b74e27b85fd66c71480156117c45760405147906000906001600160a01b0389169083908381818185875af1925050503d806000811461173c576040519150601f19603f3d011682016040523d82523d6000602084013e611741565b606091505b50509050806117b85760405162461bcd60e51b815260206004820152603b60248201527f4a6f654c697175696461746f723a204661696c656420746f207472616e73666560448201527f72206e6174697665204156415820746f206c697175696461746f72000000000060648201526084016102e5565b50935061088692505050565b6040516370a0823160e01b815230600482015282906000906001600160a01b038316906370a082319060240160206040518083038186803b15801561180857600080fd5b505afa15801561181c573d6000803e3d6000fd5b505050506040513d601f19601f8201168201806040525081019061184091906127ef565b9050600081116118d65760405162461bcd60e51b81526020600482015260616024820152600080516020612aa983398151915260448201527f72656d61696e696e67207365697a6520616d6f756e7420696e206f726465722060648201527f746f20686176652070726f66697465642066726f6d206c69717569646174696f6084820152603760f91b60a482015260c4016102e5565b60015460405163095ea7b360e01b81526001600160a01b039182166004820152602481018390529083169063095ea7b390604401600060405180830381600087803b15801561192457600080fd5b505af1158015611938573d6000803e3d6000fd5b5060009250600291506119489050565b604051908082528060200260200182016040528015611971578160200160208202803683370190505b509050848160008151811061199657634e487b7160e01b600052603260045260246000fd5b60200260200101906001600160a01b031690816001600160a01b03168152505073b31f66aa3c1e785363f0875a1b74e27b85fd66c7816001815181106119ec57634e487b7160e01b600052603260045260246000fd5b60200260200101906001600160a01b031690816001600160a01b0316815250506000600160009054906101000a90046001600160a01b03166001600160a01b031663676528d1846000858e426040518663ffffffff1660e01b8152600401611a589594939291906129d1565b600060405180830381600087803b158015611a7257600080fd5b505af1158015611a86573d6000803e3d6000fd5b505050506040513d6000823e601f3d908101601f19168201604052611aae919081019061270f565b905080600181518110611ad157634e487b7160e01b600052603260045260246000fd5b6020026020010151975050505050505050610886565b6040516370a0823160e01b8152306004820152829082906001600160a01b038316906370a082319060240160206040518083038186803b158015611b2a57600080fd5b505afa158015611b3e573d6000803e3d6000fd5b505050506040513d601f19601f82011682018060405250810190611b6291906127ef565b1015611b805760405162461bcd60e51b81526004016102e590612912565b60405163095ea7b360e01b8152336004820152602481018390526001600160a01b0382169063095ea7b390604401600060405180830381600087803b158015611bc857600080fd5b505af1158015610670573d6000803e3d6000fd5b60008060008054906101000a90046001600160a01b031690506000816001600160a01b0316637dc0d1d06040518163ffffffff1660e01b815260040160206040518083038186803b158015611c3057600080fd5b505afa158015611c44573d6000803e3d6000fd5b505050506040513d601f19601f82011682018060405250810190611c689190612582565b90506000826001600160a01b031663e87554466040518163ffffffff1660e01b815260040160206040518083038186803b158015611ca557600080fd5b505afa158015611cb9573d6000803e3d6000fd5b505050506040513d601f19601f82011682018060405250810190611cdd91906127ef565b90506000836001600160a01b0316634ada90af6040518163ffffffff1660e01b815260040160206040518083038186803b158015611d1a57600080fd5b505afa158015611d2e573d6000803e3d6000fd5b505050506040513d601f19601f82011682018060405250810190611d5291906127ef565b60405163fc57d4df60e01b81526001600160a01b03898116600483015291925060009185169063fc57d4df9060240160206040518083038186803b158015611d9957600080fd5b505afa158015611dad573d6000803e3d6000fd5b505050506040513d601f19601f82011682018060405250810190611dd191906127ef565b60405163fc57d4df60e01b81526001600160a01b03898116600483015291925060009186169063fc57d4df9060240160206040518083038186803b158015611e1857600080fd5b505afa158015611e2c573d6000803e3d6000fd5b505050506040513d601f19601f82011682018060405250810190611e5091906127ef565b6040516395dd919360e01b81526001600160a01b038c81166004830152919250600091670de0b6b3a76400009187918d16906395dd91939060240160206040518083038186803b158015611ea357600080fd5b505afa158015611eb7573d6000803e3d6000fd5b505050506040513d601f19601f82011682018060405250810190611edb91906127ef565b611ee59190612a45565b611eef9190612a25565b9050600084670de0b6b3a7640000611f078c8f61217b565b611f119190612a45565b611f1b9190612a25565b90506000611f298584612a45565b90506000611f378584612a45565b90506000818310611f485781611f4a565b825b9050611f568782612a25565b9b5050505050505050505050505b9392505050565b6000836001600160a01b0316636f307dc36040518163ffffffff1660e01b8152600401602060405180830381600087803b158015611fa857600080fd5b505af1158015611fbc573d6000803e3d6000fd5b505050506040513d601f19601f82011682018060405250810190611fe09190612582565b90506001600160a01b03811673a7d7079b0fead91f3e65f86e8915cb59c1a4c66414600061200f838584612292565b9050600061201c83612456565b9050600033898989856001600160a01b0316636f307dc36040518163ffffffff1660e01b8152600401602060405180830381600087803b15801561205f57600080fd5b505af1158015612073573d6000803e3d6000fd5b505050506040513d601f19601f820116820180604052508101906120979190612582565b604080516001600160a01b0396871660208201529486169085015291841660608401528316608083015290911660a082015260c0810184905260e081018790526101000160408051601f1981840301815290829052632e7ff4ef60e11b825291506001600160a01b03831690635cffe9de9061211d9030903390889087906004016128c2565b602060405180830381600087803b15801561213757600080fd5b505af115801561214b573d6000803e3d6000fd5b505050506040513d601f19601f8201168201806040525081019061216f91906127cf565b50505050505050505050565b60008083905060006040518060200160405280836001600160a01b031663182df0f56040518163ffffffff1660e01b815260040160206040518083038186803b1580156121c757600080fd5b505afa1580156121db573d6000803e3d6000fd5b505050506040513d601f19601f820116820180604052508101906121ff91906127ef565b90526040516370a0823160e01b81526001600160a01b038681166004830152919250612289918391908516906370a082319060240160206040518083038186803b15801561224c57600080fd5b505afa158015612260573d6000803e3d6000fd5b505050506040513d601f19601f8201168201806040525081019061228491906127ef565b612480565b95945050505050565b604080516002808252606082018352600092839291906020830190803683370190505090508215612318577349d5c2bdffac6ce2bfdb6640f4f80f226bc10bab816000815181106122f357634e487b7160e01b600052603260045260246000fd5b60200260200101906001600160a01b031690816001600160a01b03168152505061236f565b73a7d7079b0fead91f3e65f86e8915cb59c1a4c6648160008151811061234e57634e487b7160e01b600052603260045260246000fd5b60200260200101906001600160a01b031690816001600160a01b0316815250505b848160018151811061239157634e487b7160e01b600052603260045260246000fd5b6001600160a01b0392831660209182029290920101526001546040516307c0329d60e21b8152911690631f00ca74906123d09087908590600401612983565b60006040518083038186803b1580156123e857600080fd5b505afa1580156123fc573d6000803e3d6000fd5b505050506040513d6000823e601f3d908101601f19168201604052612424919081019061270f565b60008151811061244457634e487b7160e01b600052603260045260246000fd5b60200260200101519150509392505050565b6000811561246f5750506003546001600160a01b031690565b50506002546001600160a01b031690565b60008061248d84846124a0565b9050612498816124d1565b949350505050565b60408051602081019091526000815260405180602001604052806124c88560000151856124e9565b90529392505050565b805160009061088690670de0b6b3a764000090612a25565b600061088383836040518060400160405280601781526020017f6d756c7469706c69636174696f6e206f766572666c6f770000000000000000008152506000831580612533575082155b1561254057506000611f64565b600061254c8486612a45565b9050836125598683612a25565b1483906125795760405162461bcd60e51b81526004016102e591906128ff565b50949350505050565b600060208284031215612593578081fd5b8151611f6481612a90565b600080600080600080600060e0888a0312156125b8578283fd5b87356125c381612a90565b965060208801356125d381612a90565b955060408801356125e381612a90565b945060608801356125f381612a90565b9350608088013561260381612a90565b9699959850939692959460a0840135945060c09093013592915050565b600080600060608486031215612634578283fd5b833561263f81612a90565b9250602084013561264f81612a90565b9150604084013561265f81612a90565b809150509250925092565b60008060008060008060a08789031215612682578182fd5b863561268d81612a90565b9550602087013561269d81612a90565b94506040870135935060608701359250608087013567ffffffffffffffff808211156126c7578384fd5b818901915089601f8301126126da578384fd5b8135818111156126e8578485fd5b8a60208285010111156126f9578485fd5b6020830194508093505050509295509295509295565b60006020808385031215612721578182fd5b825167ffffffffffffffff80821115612738578384fd5b818501915085601f83011261274b578384fd5b81518181111561275d5761275d612a7a565b8060051b604051601f19603f8301168101818110858211171561278257612782612a7a565b604052828152858101935084860182860187018a10156127a0578788fd5b8795505b838610156127c25780518552600195909501949386019386016127a4565b5098975050505050505050565b6000602082840312156127e0578081fd5b81518015158114611f64578182fd5b600060208284031215612800578081fd5b5051919050565b60008060006060848603121561281b578283fd5b8351925060208401519150604084015190509250925092565b6000815180845260208085019450808401835b8381101561286c5781516001600160a01b031687529582019590820190600101612847565b509495945050505050565b60008151808452815b8181101561289c57602081850181015186830182015201612880565b818111156128ad5782602083870101525b50601f01601f19169290920160200192915050565b6001600160a01b03858116825284166020820152604081018390526080606082018190526000906128f590830184612877565b9695505050505050565b6020815260006108836020830184612877565b6020808252605f90820152600080516020612aa983398151915260408201527f656e6f75676820746f6b656e7320746f20726570617920666c617368206c6f6160608201527f6e206166746572207377617070696e67207365697a656420746f6b656e732e00608082015260a00190565b8281526040602082015260006124986040830184612834565b8481526080602082015260006129b56080830186612834565b6001600160a01b03949094166040830152506060015292915050565b85815284602082015260a0604082015260006129f060a0830186612834565b6001600160a01b0394909416606083015250608001529392505050565b60008219821115612a2057612a20612a64565b500190565b600082612a4057634e487b7160e01b81526012600452602481fd5b500490565b6000816000190483118215151615612a5f57612a5f612a64565b500290565b634e487b7160e01b600052601160045260246000fd5b634e487b7160e01b600052604160045260246000fd5b6001600160a01b0381168114612aa557600080fd5b5056fe4a6f654c697175696461746f723a20457870656374656420746f206861766520a2646970667358221220d079cdc3a0ea9864606440767acf98580d1d0973cc20cd939219e6c34aed4e9164736f6c63430008040033",
  "linkReferences": {},
  "deployedLinkReferences": {}
}