{
  "_format": "hh-sol-artifact-1",
  "contractName": "JoeFlashloanBorrower",
  "sourceName": "contracts/JoeFlashloanBorrower.sol",
  "abi": [
    {
      "inputs": [
        {
          "internalType": "address",
          "name": "_joetroller",
          "type": "address"
        }
      ],
      "stateMutability": "nonpayable",
      "type": "constructor"
    },
    {
      "inputs": [
        {
          "internalType": "address",
          "name": "_flashloanLender",
          "type": "address"
        },
        {
          "internalType": "address",
          "name": "_jBorrowToken",
          "type": "address"
        },
        {
          "internalType": "uint256",
          "name": "_borrowAmount",
          "type": "uint256"
        }
      ],
      "name": "doFlashloan",
      "outputs": [],
      "stateMutability": "nonpayable",
      "type": "function"
    },
    {
      "inputs": [],
      "name": "joetroller",
      "outputs": [
        {
          "internalType": "address",
          "name": "",
          "type": "address"
        }
      ],
      "stateMutability": "view",
      "type": "function"
    },
    {
      "inputs": [
        {
          "internalType": "address",
          "name": "_initiator",
          "type": "address"
        },
        {
          "internalType": "address",
          "name": "_underlyingToken",
          "type": "address"
        },
        {
          "internalType": "uint256",
          "name": "_amount",
          "type": "uint256"
        },
        {
          "internalType": "uint256",
          "name": "_fee",
          "type": "uint256"
        },
        {
          "internalType": "bytes",
          "name": "_data",
          "type": "bytes"
        }
      ],
      "name": "onFlashLoan",
      "outputs": [
        {
          "internalType": "bytes32",
          "name": "",
          "type": "bytes32"
        }
      ],
      "stateMutability": "nonpayable",
      "type": "function"
    }
  ],
  "bytecode": "0x608060405234801561001057600080fd5b50604051610d83380380610d838339818101604052810190610032919061008d565b806000806101000a81548173ffffffffffffffffffffffffffffffffffffffff021916908373ffffffffffffffffffffffffffffffffffffffff160217905550506100ff565b600081519050610087816100e8565b92915050565b60006020828403121561009f57600080fd5b60006100ad84828501610078565b91505092915050565b60006100c1826100c8565b9050919050565b600073ffffffffffffffffffffffffffffffffffffffff82169050919050565b6100f1816100b6565b81146100fc57600080fd5b50565b610c758061010e6000396000f3fe608060405234801561001057600080fd5b50600436106100415760003560e01c80631a7d913d1461004657806323e30c8b146100625780636330533c14610092575b600080fd5b610060600480360381019061005b91906105f3565b6100b0565b005b61007c60048036038101906100779190610642565b6101f1565b6040516100899190610842565b60405180910390f35b61009a6104b7565b6040516100a791906107fe565b60405180910390f35b60008273ffffffffffffffffffffffffffffffffffffffff16636f307dc36040518163ffffffff1660e01b815260040160206040518083038186803b1580156100f857600080fd5b505afa15801561010c573d6000803e3d6000fd5b505050506040513d601f19601f82011682018060405250810190610130919061058e565b905060008183604051602001610147929190610819565b60405160208183030381529060405290508473ffffffffffffffffffffffffffffffffffffffff16635cffe9de308486856040518563ffffffff1660e01b8152600401610197949392919061085d565b602060405180830381600087803b1580156101b157600080fd5b505af11580156101c5573d6000803e3d6000fd5b505050506040513d601f19601f820116820180604052508101906101e991906106d4565b505050505050565b60008060009054906101000a900473ffffffffffffffffffffffffffffffffffffffff1673ffffffffffffffffffffffffffffffffffffffff16633d98a1e5336040518263ffffffff1660e01b815260040161024d91906107fe565b60206040518083038186803b15801561026557600080fd5b505afa158015610279573d6000803e3d6000fd5b505050506040513d601f19601f8201168201806040525081019061029d91906106d4565b6102dc576040517f08c379a00000000000000000000000000000000000000000000000000000000081526004016102d3906108a9565b60405180910390fd5b3073ffffffffffffffffffffffffffffffffffffffff168773ffffffffffffffffffffffffffffffffffffffff161461034a576040517f08c379a0000000000000000000000000000000000000000000000000000000008152600401610341906108c9565b60405180910390fd5b600080848481019061035c91906105b7565b915091508773ffffffffffffffffffffffffffffffffffffffff168273ffffffffffffffffffffffffffffffffffffffff16146103ce576040517f08c379a00000000000000000000000000000000000000000000000000000000081526004016103c5906108e9565b60405180910390fd5b868114610410576040517f08c379a000000000000000000000000000000000000000000000000000000000815260040161040790610909565b60405180910390fd5b8773ffffffffffffffffffffffffffffffffffffffff1663095ea7b333888a6104399190610956565b6040518363ffffffff1660e01b8152600401610456929190610819565b600060405180830381600087803b15801561047057600080fd5b505af1158015610484573d6000803e3d6000fd5b505050507f7968ba28153757de2da7bce4c2ba9ebaf94445061f3050de1b0de5c34bb7d5d8925050509695505050505050565b60008054906101000a900473ffffffffffffffffffffffffffffffffffffffff1681565b6000813590506104ea81610be3565b92915050565b6000815190506104ff81610be3565b92915050565b60008135905061051481610bfa565b92915050565b60008151905061052981610c11565b92915050565b60008083601f84011261054157600080fd5b8235905067ffffffffffffffff81111561055a57600080fd5b60208301915083600182028301111561057257600080fd5b9250929050565b60008135905061058881610c28565b92915050565b6000602082840312156105a057600080fd5b60006105ae848285016104f0565b91505092915050565b600080604083850312156105ca57600080fd5b60006105d885828601610505565b92505060206105e985828601610579565b9150509250929050565b60008060006060848603121561060857600080fd5b6000610616868287016104db565b9350506020610627868287016104db565b925050604061063886828701610579565b9150509250925092565b60008060008060008060a0878903121561065b57600080fd5b600061066989828a016104db565b965050602061067a89828a016104db565b955050604061068b89828a01610579565b945050606061069c89828a01610579565b935050608087013567ffffffffffffffff8111156106b957600080fd5b6106c589828a0161052f565b92509250509295509295509295565b6000602082840312156106e657600080fd5b60006106f48482850161051a565b91505092915050565b610706816109ac565b82525050565b610715816109dc565b82525050565b600061072682610929565b6107308185610934565b9350610740818560208601610a34565b61074981610a96565b840191505092915050565b61075d81610a10565b82525050565b6000610770602e83610945565b915061077b82610aa7565b604082019050919050565b6000610793602e83610945565b915061079e82610af6565b604082019050919050565b60006107b6603f83610945565b91506107c182610b45565b604082019050919050565b60006107d9604083610945565b91506107e482610b94565b604082019050919050565b6107f881610a06565b82525050565b600060208201905061081360008301846106fd565b92915050565b600060408201905061082e60008301856106fd565b61083b60208301846107ef565b9392505050565b6000602082019050610857600083018461070c565b92915050565b60006080820190506108726000830187610754565b61087f60208301866106fd565b61088c60408301856107ef565b818103606083015261089e818461071b565b905095945050505050565b600060208201905081810360008301526108c281610763565b9050919050565b600060208201905081810360008301526108e281610786565b9050919050565b60006020820190508181036000830152610902816107a9565b9050919050565b60006020820190508181036000830152610922816107cc565b9050919050565b600081519050919050565b600082825260208201905092915050565b600082825260208201905092915050565b600061096182610a06565b915061096c83610a06565b9250827fffffffffffffffffffffffffffffffffffffffffffffffffffffffffffffffff038211156109a1576109a0610a67565b5b828201905092915050565b60006109b7826109e6565b9050919050565b60006109c9826109e6565b9050919050565b60008115159050919050565b6000819050919050565b600073ffffffffffffffffffffffffffffffffffffffff82169050919050565b6000819050919050565b6000610a1b82610a22565b9050919050565b6000610a2d826109e6565b9050919050565b60005b83811015610a52578082015181840152602081019050610a37565b83811115610a61576000848401525b50505050565b7f4e487b7100000000000000000000000000000000000000000000000000000000600052601160045260246000fd5b6000601f19601f8301169050919050565b7f4a6f65466c6173686c6f616e426f72726f7765723a20556e747275737465642060008201527f6d6573736167652073656e646572000000000000000000000000000000000000602082015250565b7f4a6f65466c6173686c6f616e426f72726f7765723a20556e747275737465642060008201527f6c6f616e20696e69746961746f72000000000000000000000000000000000000602082015250565b7f4a6f65466c6173686c6f616e426f72726f7765723a20456e636f64656420646160008201527f74612028626f72726f77546f6b656e2920646f6573206e6f74206d6174636800602082015250565b7f4a6f65466c6173686c6f616e426f72726f7765723a20456e636f64656420646160008201527f74612028626f72726f77416d6f756e742920646f6573206e6f74206d61746368602082015250565b610bec816109ac565b8114610bf757600080fd5b50565b610c03816109be565b8114610c0e57600080fd5b50565b610c1a816109d0565b8114610c2557600080fd5b50565b610c3181610a06565b8114610c3c57600080fd5b5056fea2646970667358221220cd12d901f88746fc1cecdb54cc80f25ccf92181badb6c34d143a5af1441ba96764736f6c63430008040033",
  "linkReferences": {},
  "deployedLinkReferences": {}
}