{
  "_format": "hh-sol-artifact-1",
  "contractName": "JoeFlashloanBorrower",
  "sourceName": "contracts/JoeFlashloanBorrower.sol",
  "abi": [
    {
      "inputs": [
        {
          "internalType": "address",
          "name": "_comptroller",
          "type": "address"
        }
      ],
      "stateMutability": "nonpayable",
      "type": "constructor"
    },
    {
      "inputs": [],
      "name": "comptroller",
      "outputs": [
        {
          "internalType": "address",
          "name": "",
          "type": "address"
        }
      ],
      "stateMutability": "view",
      "type": "function"
    },
    {
      "inputs": [
        {
          "internalType": "address",
          "name": "flashloanLender",
          "type": "address"
        },
        {
          "internalType": "address",
          "name": "borrowToken",
          "type": "address"
        },
        {
          "internalType": "uint256",
          "name": "borrowAmount",
          "type": "uint256"
        }
      ],
      "name": "doFlashloan",
      "outputs": [],
      "stateMutability": "nonpayable",
      "type": "function"
    },
    {
      "inputs": [
        {
          "internalType": "address",
          "name": "initiator",
          "type": "address"
        },
        {
          "internalType": "address",
          "name": "token",
          "type": "address"
        },
        {
          "internalType": "uint256",
          "name": "amount",
          "type": "uint256"
        },
        {
          "internalType": "uint256",
          "name": "fee",
          "type": "uint256"
        },
        {
          "internalType": "bytes",
          "name": "data",
          "type": "bytes"
        }
      ],
      "name": "onFlashLoan",
      "outputs": [
        {
          "internalType": "bytes32",
          "name": "",
          "type": "bytes32"
        }
      ],
      "stateMutability": "nonpayable",
      "type": "function"
    }
  ],
  "bytecode": "0x608060405234801561001057600080fd5b50604051610c9c380380610c9c8339818101604052810190610032919061008d565b806000806101000a81548173ffffffffffffffffffffffffffffffffffffffff021916908373ffffffffffffffffffffffffffffffffffffffff160217905550506100ff565b600081519050610087816100e8565b92915050565b60006020828403121561009f57600080fd5b60006100ad84828501610078565b91505092915050565b60006100c1826100c8565b9050919050565b600073ffffffffffffffffffffffffffffffffffffffff82169050919050565b6100f1816100b6565b81146100fc57600080fd5b50565b610b8e8061010e6000396000f3fe608060405234801561001057600080fd5b50600436106100415760003560e01c80631a7d913d1461004657806323e30c8b146100625780635fe3b56714610092575b600080fd5b610060600480360381019061005b9190610532565b6100b0565b005b61007c60048036038101906100779190610581565b61016e565b6040516100899190610781565b60405180910390f35b61009a610434565b6040516100a7919061073d565b60405180910390f35b600082826040516020016100c5929190610758565b60405160208183030381529060405290508373ffffffffffffffffffffffffffffffffffffffff16635cffe9de308585856040518563ffffffff1660e01b8152600401610115949392919061079c565b602060405180830381600087803b15801561012f57600080fd5b505af1158015610143573d6000803e3d6000fd5b505050506040513d601f19601f820116820180604052508101906101679190610613565b5050505050565b60008060009054906101000a900473ffffffffffffffffffffffffffffffffffffffff1673ffffffffffffffffffffffffffffffffffffffff16633d98a1e5336040518263ffffffff1660e01b81526004016101ca919061073d565b60206040518083038186803b1580156101e257600080fd5b505afa1580156101f6573d6000803e3d6000fd5b505050506040513d601f19601f8201168201806040525081019061021a9190610613565b610259576040517f08c379a000000000000000000000000000000000000000000000000000000000815260040161025090610848565b60405180910390fd5b3073ffffffffffffffffffffffffffffffffffffffff168773ffffffffffffffffffffffffffffffffffffffff16146102c7576040517f08c379a00000000000000000000000000000000000000000000000000000000081526004016102be90610828565b60405180910390fd5b60008084848101906102d991906104f6565b915091508773ffffffffffffffffffffffffffffffffffffffff168273ffffffffffffffffffffffffffffffffffffffff161461034b576040517f08c379a000000000000000000000000000000000000000000000000000000000815260040161034290610808565b60405180910390fd5b86811461038d576040517f08c379a0000000000000000000000000000000000000000000000000000000008152600401610384906107e8565b60405180910390fd5b8773ffffffffffffffffffffffffffffffffffffffff1663095ea7b333888a6103b69190610895565b6040518363ffffffff1660e01b81526004016103d3929190610758565b600060405180830381600087803b1580156103ed57600080fd5b505af1158015610401573d6000803e3d6000fd5b505050507f7968ba28153757de2da7bce4c2ba9ebaf94445061f3050de1b0de5c34bb7d5d8925050509695505050505050565b60008054906101000a900473ffffffffffffffffffffffffffffffffffffffff1681565b60008135905061046781610afc565b92915050565b60008135905061047c81610b13565b92915050565b60008151905061049181610b2a565b92915050565b60008083601f8401126104a957600080fd5b8235905067ffffffffffffffff8111156104c257600080fd5b6020830191508360018202830111156104da57600080fd5b9250929050565b6000813590506104f081610b41565b92915050565b6000806040838503121561050957600080fd5b60006105178582860161046d565b9250506020610528858286016104e1565b9150509250929050565b60008060006060848603121561054757600080fd5b600061055586828701610458565b935050602061056686828701610458565b9250506040610577868287016104e1565b9150509250925092565b60008060008060008060a0878903121561059a57600080fd5b60006105a889828a01610458565b96505060206105b989828a01610458565b95505060406105ca89828a016104e1565b94505060606105db89828a016104e1565b935050608087013567ffffffffffffffff8111156105f857600080fd5b61060489828a01610497565b92509250509295509295509295565b60006020828403121561062557600080fd5b600061063384828501610482565b91505092915050565b610645816108eb565b82525050565b6106548161091b565b82525050565b600061066582610868565b61066f8185610873565b935061067f818560208601610973565b610688816109d5565b840191505092915050565b61069c8161094f565b82525050565b60006106af602a83610884565b91506106ba826109e6565b604082019050919050565b60006106d2602983610884565b91506106dd82610a35565b604082019050919050565b60006106f5602783610884565b915061070082610a84565b604082019050919050565b6000610718601883610884565b915061072382610ad3565b602082019050919050565b61073781610945565b82525050565b6000602082019050610752600083018461063c565b92915050565b600060408201905061076d600083018561063c565b61077a602083018461072e565b9392505050565b6000602082019050610796600083018461064b565b92915050565b60006080820190506107b16000830187610693565b6107be602083018661063c565b6107cb604083018561072e565b81810360608301526107dd818461065a565b905095945050505050565b60006020820190508181036000830152610801816106a2565b9050919050565b60006020820190508181036000830152610821816106c5565b9050919050565b60006020820190508181036000830152610841816106e8565b9050919050565b600060208201905081810360008301526108618161070b565b9050919050565b600081519050919050565b600082825260208201905092915050565b600082825260208201905092915050565b60006108a082610945565b91506108ab83610945565b9250827fffffffffffffffffffffffffffffffffffffffffffffffffffffffffffffffff038211156108e0576108df6109a6565b5b828201905092915050565b60006108f682610925565b9050919050565b600061090882610925565b9050919050565b60008115159050919050565b6000819050919050565b600073ffffffffffffffffffffffffffffffffffffffff82169050919050565b6000819050919050565b600061095a82610961565b9050919050565b600061096c82610925565b9050919050565b60005b83811015610991578082015181840152602081019050610976565b838111156109a0576000848401525b50505050565b7f4e487b7100000000000000000000000000000000000000000000000000000000600052601160045260246000fd5b6000601f19601f8301169050919050565b7f656e636f64656420646174612028626f72726f77416d6f756e742920646f657360008201527f206e6f74206d6174636800000000000000000000000000000000000000000000602082015250565b7f656e636f64656420646174612028626f72726f77546f6b656e2920646f65732060008201527f6e6f74206d617463680000000000000000000000000000000000000000000000602082015250565b7f466c617368426f72726f7765723a20556e74727573746564206c6f616e20696e60008201527f69746961746f7200000000000000000000000000000000000000000000000000602082015250565b7f756e74727573746564206d6573736167652073656e6465720000000000000000600082015250565b610b05816108eb565b8114610b1057600080fd5b50565b610b1c816108fd565b8114610b2757600080fd5b50565b610b338161090f565b8114610b3e57600080fd5b50565b610b4a81610945565b8114610b5557600080fd5b5056fea26469706673582212201e0daf167a7fac745bbfebb3382ecfbb9e852219c741ad66e794ebfdf06561a464736f6c63430008040033",
  "linkReferences": {},
  "deployedLinkReferences": {}
}