{
  "_format": "hh-sol-artifact-1",
  "contractName": "JCollateralCapErc20",
  "sourceName": "contracts/lending/JTokenInterfaces.sol",
  "abi": [
    {
      "inputs": [],
      "name": "underlying",
      "outputs": [
        {
          "internalType": "address",
          "name": "",
          "type": "address"
        }
      ],
      "stateMutability": "view",
      "type": "function"
    }
  ],
  "bytecode": "0x6080604052348015600f57600080fd5b5060918061001e6000396000f3fe6080604052348015600f57600080fd5b506004361060285760003560e01c80636f307dc314602d575b600080fd5b600054603f906001600160a01b031681565b6040516001600160a01b03909116815260200160405180910390f3fea2646970667358221220a355ea11871f2d15b5a89f444dccc55d231d1a5ddd8da8118b445933d6d31a9364736f6c63430008040033",
  "linkReferences": {},
  "deployedLinkReferences": {}
}