{
  "contracts/JoeFlashloanBorrower.sol": {
    "JoeFlashloanBorrower": {
      "abi": [
        {
          "inputs": [
            {
              "internalType": "address",
              "name": "_comptroller",
              "type": "address"
            }
          ],
          "stateMutability": "nonpayable",
          "type": "constructor"
        },
        {
          "inputs": [],
          "name": "comptroller",
          "outputs": [
            {
              "internalType": "address",
              "name": "",
              "type": "address"
            }
          ],
          "stateMutability": "view",
          "type": "function"
        },
        {
          "inputs": [
            {
              "internalType": "address",
              "name": "flashloanLender",
              "type": "address"
            },
            {
              "internalType": "address",
              "name": "borrowToken",
              "type": "address"
            },
            {
              "internalType": "uint256",
              "name": "borrowAmount",
              "type": "uint256"
            }
          ],
          "name": "doFlashloan",
          "outputs": [],
          "stateMutability": "nonpayable",
          "type": "function"
        },
        {
          "inputs": [
            {
              "internalType": "address",
              "name": "initiator",
              "type": "address"
            },
            {
              "internalType": "address",
              "name": "token",
              "type": "address"
            },
            {
              "internalType": "uint256",
              "name": "amount",
              "type": "uint256"
            },
            {
              "internalType": "uint256",
              "name": "fee",
              "type": "uint256"
            },
            {
              "internalType": "bytes",
              "name": "data",
              "type": "bytes"
            }
          ],
          "name": "onFlashLoan",
          "outputs": [
            {
              "internalType": "bytes32",
              "name": "",
              "type": "bytes32"
            }
          ],
          "stateMutability": "nonpayable",
          "type": "function"
        }
      ],
      "evm": {
        "bytecode": {
          "linkReferences": {},
          "object": "608060405234801561001057600080fd5b50604051610c9c380380610c9c8339818101604052810190610032919061008d565b806000806101000a81548173ffffffffffffffffffffffffffffffffffffffff021916908373ffffffffffffffffffffffffffffffffffffffff160217905550506100ff565b600081519050610087816100e8565b92915050565b60006020828403121561009f57600080fd5b60006100ad84828501610078565b91505092915050565b60006100c1826100c8565b9050919050565b600073ffffffffffffffffffffffffffffffffffffffff82169050919050565b6100f1816100b6565b81146100fc57600080fd5b50565b610b8e8061010e6000396000f3fe608060405234801561001057600080fd5b50600436106100415760003560e01c80631a7d913d1461004657806323e30c8b146100625780635fe3b56714610092575b600080fd5b610060600480360381019061005b9190610532565b6100b0565b005b61007c60048036038101906100779190610581565b61016e565b6040516100899190610781565b60405180910390f35b61009a610434565b6040516100a7919061073d565b60405180910390f35b600082826040516020016100c5929190610758565b60405160208183030381529060405290508373ffffffffffffffffffffffffffffffffffffffff16635cffe9de308585856040518563ffffffff1660e01b8152600401610115949392919061079c565b602060405180830381600087803b15801561012f57600080fd5b505af1158015610143573d6000803e3d6000fd5b505050506040513d601f19601f820116820180604052508101906101679190610613565b5050505050565b60008060009054906101000a900473ffffffffffffffffffffffffffffffffffffffff1673ffffffffffffffffffffffffffffffffffffffff16633d98a1e5336040518263ffffffff1660e01b81526004016101ca919061073d565b60206040518083038186803b1580156101e257600080fd5b505afa1580156101f6573d6000803e3d6000fd5b505050506040513d601f19601f8201168201806040525081019061021a9190610613565b610259576040517f08c379a000000000000000000000000000000000000000000000000000000000815260040161025090610848565b60405180910390fd5b3073ffffffffffffffffffffffffffffffffffffffff168773ffffffffffffffffffffffffffffffffffffffff16146102c7576040517f08c379a00000000000000000000000000000000000000000000000000000000081526004016102be90610828565b60405180910390fd5b60008084848101906102d991906104f6565b915091508773ffffffffffffffffffffffffffffffffffffffff168273ffffffffffffffffffffffffffffffffffffffff161461034b576040517f08c379a000000000000000000000000000000000000000000000000000000000815260040161034290610808565b60405180910390fd5b86811461038d576040517f08c379a0000000000000000000000000000000000000000000000000000000008152600401610384906107e8565b60405180910390fd5b8773ffffffffffffffffffffffffffffffffffffffff1663095ea7b333888a6103b69190610895565b6040518363ffffffff1660e01b81526004016103d3929190610758565b600060405180830381600087803b1580156103ed57600080fd5b505af1158015610401573d6000803e3d6000fd5b505050507f7968ba28153757de2da7bce4c2ba9ebaf94445061f3050de1b0de5c34bb7d5d8925050509695505050505050565b60008054906101000a900473ffffffffffffffffffffffffffffffffffffffff1681565b60008135905061046781610afc565b92915050565b60008135905061047c81610b13565b92915050565b60008151905061049181610b2a565b92915050565b60008083601f8401126104a957600080fd5b8235905067ffffffffffffffff8111156104c257600080fd5b6020830191508360018202830111156104da57600080fd5b9250929050565b6000813590506104f081610b41565b92915050565b6000806040838503121561050957600080fd5b60006105178582860161046d565b9250506020610528858286016104e1565b9150509250929050565b60008060006060848603121561054757600080fd5b600061055586828701610458565b935050602061056686828701610458565b9250506040610577868287016104e1565b9150509250925092565b60008060008060008060a0878903121561059a57600080fd5b60006105a889828a01610458565b96505060206105b989828a01610458565b95505060406105ca89828a016104e1565b94505060606105db89828a016104e1565b935050608087013567ffffffffffffffff8111156105f857600080fd5b61060489828a01610497565b92509250509295509295509295565b60006020828403121561062557600080fd5b600061063384828501610482565b91505092915050565b610645816108eb565b82525050565b6106548161091b565b82525050565b600061066582610868565b61066f8185610873565b935061067f818560208601610973565b610688816109d5565b840191505092915050565b61069c8161094f565b82525050565b60006106af602a83610884565b91506106ba826109e6565b604082019050919050565b60006106d2602983610884565b91506106dd82610a35565b604082019050919050565b60006106f5602783610884565b915061070082610a84565b604082019050919050565b6000610718601883610884565b915061072382610ad3565b602082019050919050565b61073781610945565b82525050565b6000602082019050610752600083018461063c565b92915050565b600060408201905061076d600083018561063c565b61077a602083018461072e565b9392505050565b6000602082019050610796600083018461064b565b92915050565b60006080820190506107b16000830187610693565b6107be602083018661063c565b6107cb604083018561072e565b81810360608301526107dd818461065a565b905095945050505050565b60006020820190508181036000830152610801816106a2565b9050919050565b60006020820190508181036000830152610821816106c5565b9050919050565b60006020820190508181036000830152610841816106e8565b9050919050565b600060208201905081810360008301526108618161070b565b9050919050565b600081519050919050565b600082825260208201905092915050565b600082825260208201905092915050565b60006108a082610945565b91506108ab83610945565b9250827fffffffffffffffffffffffffffffffffffffffffffffffffffffffffffffffff038211156108e0576108df6109a6565b5b828201905092915050565b60006108f682610925565b9050919050565b600061090882610925565b9050919050565b60008115159050919050565b6000819050919050565b600073ffffffffffffffffffffffffffffffffffffffff82169050919050565b6000819050919050565b600061095a82610961565b9050919050565b600061096c82610925565b9050919050565b60005b83811015610991578082015181840152602081019050610976565b838111156109a0576000848401525b50505050565b7f4e487b7100000000000000000000000000000000000000000000000000000000600052601160045260246000fd5b6000601f19601f8301169050919050565b7f656e636f64656420646174612028626f72726f77416d6f756e742920646f657360008201527f206e6f74206d6174636800000000000000000000000000000000000000000000602082015250565b7f656e636f64656420646174612028626f72726f77546f6b656e2920646f65732060008201527f6e6f74206d617463680000000000000000000000000000000000000000000000602082015250565b7f466c617368426f72726f7765723a20556e74727573746564206c6f616e20696e60008201527f69746961746f7200000000000000000000000000000000000000000000000000602082015250565b7f756e74727573746564206d6573736167652073656e6465720000000000000000600082015250565b610b05816108eb565b8114610b1057600080fd5b50565b610b1c816108fd565b8114610b2757600080fd5b50565b610b338161090f565b8114610b3e57600080fd5b50565b610b4a81610945565b8114610b5557600080fd5b5056fea26469706673582212201e0daf167a7fac745bbfebb3382ecfbb9e852219c741ad66e794ebfdf06561a464736f6c63430008040033",
          "opcodes": "PUSH1 0x80 PUSH1 0x40 MSTORE CALLVALUE DUP1 ISZERO PUSH2 0x10 JUMPI PUSH1 0x0 DUP1 REVERT JUMPDEST POP PUSH1 0x40 MLOAD PUSH2 0xC9C CODESIZE SUB DUP1 PUSH2 0xC9C DUP4 CODECOPY DUP2 DUP2 ADD PUSH1 0x40 MSTORE DUP2 ADD SWAP1 PUSH2 0x32 SWAP2 SWAP1 PUSH2 0x8D JUMP JUMPDEST DUP1 PUSH1 0x0 DUP1 PUSH2 0x100 EXP DUP2 SLOAD DUP2 PUSH20 0xFFFFFFFFFFFFFFFFFFFFFFFFFFFFFFFFFFFFFFFF MUL NOT AND SWAP1 DUP4 PUSH20 0xFFFFFFFFFFFFFFFFFFFFFFFFFFFFFFFFFFFFFFFF AND MUL OR SWAP1 SSTORE POP POP PUSH2 0xFF JUMP JUMPDEST PUSH1 0x0 DUP2 MLOAD SWAP1 POP PUSH2 0x87 DUP2 PUSH2 0xE8 JUMP JUMPDEST SWAP3 SWAP2 POP POP JUMP JUMPDEST PUSH1 0x0 PUSH1 0x20 DUP3 DUP5 SUB SLT ISZERO PUSH2 0x9F JUMPI PUSH1 0x0 DUP1 REVERT JUMPDEST PUSH1 0x0 PUSH2 0xAD DUP5 DUP3 DUP6 ADD PUSH2 0x78 JUMP JUMPDEST SWAP2 POP POP SWAP3 SWAP2 POP POP JUMP JUMPDEST PUSH1 0x0 PUSH2 0xC1 DUP3 PUSH2 0xC8 JUMP JUMPDEST SWAP1 POP SWAP2 SWAP1 POP JUMP JUMPDEST PUSH1 0x0 PUSH20 0xFFFFFFFFFFFFFFFFFFFFFFFFFFFFFFFFFFFFFFFF DUP3 AND SWAP1 POP SWAP2 SWAP1 POP JUMP JUMPDEST PUSH2 0xF1 DUP2 PUSH2 0xB6 JUMP JUMPDEST DUP2 EQ PUSH2 0xFC JUMPI PUSH1 0x0 DUP1 REVERT JUMPDEST POP JUMP JUMPDEST PUSH2 0xB8E DUP1 PUSH2 0x10E PUSH1 0x0 CODECOPY PUSH1 0x0 RETURN INVALID PUSH1 0x80 PUSH1 0x40 MSTORE CALLVALUE DUP1 ISZERO PUSH2 0x10 JUMPI PUSH1 0x0 DUP1 REVERT JUMPDEST POP PUSH1 0x4 CALLDATASIZE LT PUSH2 0x41 JUMPI PUSH1 0x0 CALLDATALOAD PUSH1 0xE0 SHR DUP1 PUSH4 0x1A7D913D EQ PUSH2 0x46 JUMPI DUP1 PUSH4 0x23E30C8B EQ PUSH2 0x62 JUMPI DUP1 PUSH4 0x5FE3B567 EQ PUSH2 0x92 JUMPI JUMPDEST PUSH1 0x0 DUP1 REVERT JUMPDEST PUSH2 0x60 PUSH1 0x4 DUP1 CALLDATASIZE SUB DUP2 ADD SWAP1 PUSH2 0x5B SWAP2 SWAP1 PUSH2 0x532 JUMP JUMPDEST PUSH2 0xB0 JUMP JUMPDEST STOP JUMPDEST PUSH2 0x7C PUSH1 0x4 DUP1 CALLDATASIZE SUB DUP2 ADD SWAP1 PUSH2 0x77 SWAP2 SWAP1 PUSH2 0x581 JUMP JUMPDEST PUSH2 0x16E JUMP JUMPDEST PUSH1 0x40 MLOAD PUSH2 0x89 SWAP2 SWAP1 PUSH2 0x781 JUMP JUMPDEST PUSH1 0x40 MLOAD DUP1 SWAP2 SUB SWAP1 RETURN JUMPDEST PUSH2 0x9A PUSH2 0x434 JUMP JUMPDEST PUSH1 0x40 MLOAD PUSH2 0xA7 SWAP2 SWAP1 PUSH2 0x73D JUMP JUMPDEST PUSH1 0x40 MLOAD DUP1 SWAP2 SUB SWAP1 RETURN JUMPDEST PUSH1 0x0 DUP3 DUP3 PUSH1 0x40 MLOAD PUSH1 0x20 ADD PUSH2 0xC5 SWAP3 SWAP2 SWAP1 PUSH2 0x758 JUMP JUMPDEST PUSH1 0x40 MLOAD PUSH1 0x20 DUP2 DUP4 SUB SUB DUP2 MSTORE SWAP1 PUSH1 0x40 MSTORE SWAP1 POP DUP4 PUSH20 0xFFFFFFFFFFFFFFFFFFFFFFFFFFFFFFFFFFFFFFFF AND PUSH4 0x5CFFE9DE ADDRESS DUP6 DUP6 DUP6 PUSH1 0x40 MLOAD DUP6 PUSH4 0xFFFFFFFF AND PUSH1 0xE0 SHL DUP2 MSTORE PUSH1 0x4 ADD PUSH2 0x115 SWAP5 SWAP4 SWAP3 SWAP2 SWAP1 PUSH2 0x79C JUMP JUMPDEST PUSH1 0x20 PUSH1 0x40 MLOAD DUP1 DUP4 SUB DUP2 PUSH1 0x0 DUP8 DUP1 EXTCODESIZE ISZERO DUP1 ISZERO PUSH2 0x12F JUMPI PUSH1 0x0 DUP1 REVERT JUMPDEST POP GAS CALL ISZERO DUP1 ISZERO PUSH2 0x143 JUMPI RETURNDATASIZE PUSH1 0x0 DUP1 RETURNDATACOPY RETURNDATASIZE PUSH1 0x0 REVERT JUMPDEST POP POP POP POP PUSH1 0x40 MLOAD RETURNDATASIZE PUSH1 0x1F NOT PUSH1 0x1F DUP3 ADD AND DUP3 ADD DUP1 PUSH1 0x40 MSTORE POP DUP2 ADD SWAP1 PUSH2 0x167 SWAP2 SWAP1 PUSH2 0x613 JUMP JUMPDEST POP POP POP POP POP JUMP JUMPDEST PUSH1 0x0 DUP1 PUSH1 0x0 SWAP1 SLOAD SWAP1 PUSH2 0x100 EXP SWAP1 DIV PUSH20 0xFFFFFFFFFFFFFFFFFFFFFFFFFFFFFFFFFFFFFFFF AND PUSH20 0xFFFFFFFFFFFFFFFFFFFFFFFFFFFFFFFFFFFFFFFF AND PUSH4 0x3D98A1E5 CALLER PUSH1 0x40 MLOAD DUP3 PUSH4 0xFFFFFFFF AND PUSH1 0xE0 SHL DUP2 MSTORE PUSH1 0x4 ADD PUSH2 0x1CA SWAP2 SWAP1 PUSH2 0x73D JUMP JUMPDEST PUSH1 0x20 PUSH1 0x40 MLOAD DUP1 DUP4 SUB DUP2 DUP7 DUP1 EXTCODESIZE ISZERO DUP1 ISZERO PUSH2 0x1E2 JUMPI PUSH1 0x0 DUP1 REVERT JUMPDEST POP GAS STATICCALL ISZERO DUP1 ISZERO PUSH2 0x1F6 JUMPI RETURNDATASIZE PUSH1 0x0 DUP1 RETURNDATACOPY RETURNDATASIZE PUSH1 0x0 REVERT JUMPDEST POP POP POP POP PUSH1 0x40 MLOAD RETURNDATASIZE PUSH1 0x1F NOT PUSH1 0x1F DUP3 ADD AND DUP3 ADD DUP1 PUSH1 0x40 MSTORE POP DUP2 ADD SWAP1 PUSH2 0x21A SWAP2 SWAP1 PUSH2 0x613 JUMP JUMPDEST PUSH2 0x259 JUMPI PUSH1 0x40 MLOAD PUSH32 0x8C379A000000000000000000000000000000000000000000000000000000000 DUP2 MSTORE PUSH1 0x4 ADD PUSH2 0x250 SWAP1 PUSH2 0x848 JUMP JUMPDEST PUSH1 0x40 MLOAD DUP1 SWAP2 SUB SWAP1 REVERT JUMPDEST ADDRESS PUSH20 0xFFFFFFFFFFFFFFFFFFFFFFFFFFFFFFFFFFFFFFFF AND DUP8 PUSH20 0xFFFFFFFFFFFFFFFFFFFFFFFFFFFFFFFFFFFFFFFF AND EQ PUSH2 0x2C7 JUMPI PUSH1 0x40 MLOAD PUSH32 0x8C379A000000000000000000000000000000000000000000000000000000000 DUP2 MSTORE PUSH1 0x4 ADD PUSH2 0x2BE SWAP1 PUSH2 0x828 JUMP JUMPDEST PUSH1 0x40 MLOAD DUP1 SWAP2 SUB SWAP1 REVERT JUMPDEST PUSH1 0x0 DUP1 DUP5 DUP5 DUP2 ADD SWAP1 PUSH2 0x2D9 SWAP2 SWAP1 PUSH2 0x4F6 JUMP JUMPDEST SWAP2 POP SWAP2 POP DUP8 PUSH20 0xFFFFFFFFFFFFFFFFFFFFFFFFFFFFFFFFFFFFFFFF AND DUP3 PUSH20 0xFFFFFFFFFFFFFFFFFFFFFFFFFFFFFFFFFFFFFFFF AND EQ PUSH2 0x34B JUMPI PUSH1 0x40 MLOAD PUSH32 0x8C379A000000000000000000000000000000000000000000000000000000000 DUP2 MSTORE PUSH1 0x4 ADD PUSH2 0x342 SWAP1 PUSH2 0x808 JUMP JUMPDEST PUSH1 0x40 MLOAD DUP1 SWAP2 SUB SWAP1 REVERT JUMPDEST DUP7 DUP2 EQ PUSH2 0x38D JUMPI PUSH1 0x40 MLOAD PUSH32 0x8C379A000000000000000000000000000000000000000000000000000000000 DUP2 MSTORE PUSH1 0x4 ADD PUSH2 0x384 SWAP1 PUSH2 0x7E8 JUMP JUMPDEST PUSH1 0x40 MLOAD DUP1 SWAP2 SUB SWAP1 REVERT JUMPDEST DUP8 PUSH20 0xFFFFFFFFFFFFFFFFFFFFFFFFFFFFFFFFFFFFFFFF AND PUSH4 0x95EA7B3 CALLER DUP9 DUP11 PUSH2 0x3B6 SWAP2 SWAP1 PUSH2 0x895 JUMP JUMPDEST PUSH1 0x40 MLOAD DUP4 PUSH4 0xFFFFFFFF AND PUSH1 0xE0 SHL DUP2 MSTORE PUSH1 0x4 ADD PUSH2 0x3D3 SWAP3 SWAP2 SWAP1 PUSH2 0x758 JUMP JUMPDEST PUSH1 0x0 PUSH1 0x40 MLOAD DUP1 DUP4 SUB DUP2 PUSH1 0x0 DUP8 DUP1 EXTCODESIZE ISZERO DUP1 ISZERO PUSH2 0x3ED JUMPI PUSH1 0x0 DUP1 REVERT JUMPDEST POP GAS CALL ISZERO DUP1 ISZERO PUSH2 0x401 JUMPI RETURNDATASIZE PUSH1 0x0 DUP1 RETURNDATACOPY RETURNDATASIZE PUSH1 0x0 REVERT JUMPDEST POP POP POP POP PUSH32 0x7968BA28153757DE2DA7BCE4C2BA9EBAF94445061F3050DE1B0DE5C34BB7D5D8 SWAP3 POP POP POP SWAP7 SWAP6 POP POP POP POP POP POP JUMP JUMPDEST PUSH1 0x0 DUP1 SLOAD SWAP1 PUSH2 0x100 EXP SWAP1 DIV PUSH20 0xFFFFFFFFFFFFFFFFFFFFFFFFFFFFFFFFFFFFFFFF AND DUP2 JUMP JUMPDEST PUSH1 0x0 DUP2 CALLDATALOAD SWAP1 POP PUSH2 0x467 DUP2 PUSH2 0xAFC JUMP JUMPDEST SWAP3 SWAP2 POP POP JUMP JUMPDEST PUSH1 0x0 DUP2 CALLDATALOAD SWAP1 POP PUSH2 0x47C DUP2 PUSH2 0xB13 JUMP JUMPDEST SWAP3 SWAP2 POP POP JUMP JUMPDEST PUSH1 0x0 DUP2 MLOAD SWAP1 POP PUSH2 0x491 DUP2 PUSH2 0xB2A JUMP JUMPDEST SWAP3 SWAP2 POP POP JUMP JUMPDEST PUSH1 0x0 DUP1 DUP4 PUSH1 0x1F DUP5 ADD SLT PUSH2 0x4A9 JUMPI PUSH1 0x0 DUP1 REVERT JUMPDEST DUP3 CALLDATALOAD SWAP1 POP PUSH8 0xFFFFFFFFFFFFFFFF DUP2 GT ISZERO PUSH2 0x4C2 JUMPI PUSH1 0x0 DUP1 REVERT JUMPDEST PUSH1 0x20 DUP4 ADD SWAP2 POP DUP4 PUSH1 0x1 DUP3 MUL DUP4 ADD GT ISZERO PUSH2 0x4DA JUMPI PUSH1 0x0 DUP1 REVERT JUMPDEST SWAP3 POP SWAP3 SWAP1 POP JUMP JUMPDEST PUSH1 0x0 DUP2 CALLDATALOAD SWAP1 POP PUSH2 0x4F0 DUP2 PUSH2 0xB41 JUMP JUMPDEST SWAP3 SWAP2 POP POP JUMP JUMPDEST PUSH1 0x0 DUP1 PUSH1 0x40 DUP4 DUP6 SUB SLT ISZERO PUSH2 0x509 JUMPI PUSH1 0x0 DUP1 REVERT JUMPDEST PUSH1 0x0 PUSH2 0x517 DUP6 DUP3 DUP7 ADD PUSH2 0x46D JUMP JUMPDEST SWAP3 POP POP PUSH1 0x20 PUSH2 0x528 DUP6 DUP3 DUP7 ADD PUSH2 0x4E1 JUMP JUMPDEST SWAP2 POP POP SWAP3 POP SWAP3 SWAP1 POP JUMP JUMPDEST PUSH1 0x0 DUP1 PUSH1 0x0 PUSH1 0x60 DUP5 DUP7 SUB SLT ISZERO PUSH2 0x547 JUMPI PUSH1 0x0 DUP1 REVERT JUMPDEST PUSH1 0x0 PUSH2 0x555 DUP7 DUP3 DUP8 ADD PUSH2 0x458 JUMP JUMPDEST SWAP4 POP POP PUSH1 0x20 PUSH2 0x566 DUP7 DUP3 DUP8 ADD PUSH2 0x458 JUMP JUMPDEST SWAP3 POP POP PUSH1 0x40 PUSH2 0x577 DUP7 DUP3 DUP8 ADD PUSH2 0x4E1 JUMP JUMPDEST SWAP2 POP POP SWAP3 POP SWAP3 POP SWAP3 JUMP JUMPDEST PUSH1 0x0 DUP1 PUSH1 0x0 DUP1 PUSH1 0x0 DUP1 PUSH1 0xA0 DUP8 DUP10 SUB SLT ISZERO PUSH2 0x59A JUMPI PUSH1 0x0 DUP1 REVERT JUMPDEST PUSH1 0x0 PUSH2 0x5A8 DUP10 DUP3 DUP11 ADD PUSH2 0x458 JUMP JUMPDEST SWAP7 POP POP PUSH1 0x20 PUSH2 0x5B9 DUP10 DUP3 DUP11 ADD PUSH2 0x458 JUMP JUMPDEST SWAP6 POP POP PUSH1 0x40 PUSH2 0x5CA DUP10 DUP3 DUP11 ADD PUSH2 0x4E1 JUMP JUMPDEST SWAP5 POP POP PUSH1 0x60 PUSH2 0x5DB DUP10 DUP3 DUP11 ADD PUSH2 0x4E1 JUMP JUMPDEST SWAP4 POP POP PUSH1 0x80 DUP8 ADD CALLDATALOAD PUSH8 0xFFFFFFFFFFFFFFFF DUP2 GT ISZERO PUSH2 0x5F8 JUMPI PUSH1 0x0 DUP1 REVERT JUMPDEST PUSH2 0x604 DUP10 DUP3 DUP11 ADD PUSH2 0x497 JUMP JUMPDEST SWAP3 POP SWAP3 POP POP SWAP3 SWAP6 POP SWAP3 SWAP6 POP SWAP3 SWAP6 JUMP JUMPDEST PUSH1 0x0 PUSH1 0x20 DUP3 DUP5 SUB SLT ISZERO PUSH2 0x625 JUMPI PUSH1 0x0 DUP1 REVERT JUMPDEST PUSH1 0x0 PUSH2 0x633 DUP5 DUP3 DUP6 ADD PUSH2 0x482 JUMP JUMPDEST SWAP2 POP POP SWAP3 SWAP2 POP POP JUMP JUMPDEST PUSH2 0x645 DUP2 PUSH2 0x8EB JUMP JUMPDEST DUP3 MSTORE POP POP JUMP JUMPDEST PUSH2 0x654 DUP2 PUSH2 0x91B JUMP JUMPDEST DUP3 MSTORE POP POP JUMP JUMPDEST PUSH1 0x0 PUSH2 0x665 DUP3 PUSH2 0x868 JUMP JUMPDEST PUSH2 0x66F DUP2 DUP6 PUSH2 0x873 JUMP JUMPDEST SWAP4 POP PUSH2 0x67F DUP2 DUP6 PUSH1 0x20 DUP7 ADD PUSH2 0x973 JUMP JUMPDEST PUSH2 0x688 DUP2 PUSH2 0x9D5 JUMP JUMPDEST DUP5 ADD SWAP2 POP POP SWAP3 SWAP2 POP POP JUMP JUMPDEST PUSH2 0x69C DUP2 PUSH2 0x94F JUMP JUMPDEST DUP3 MSTORE POP POP JUMP JUMPDEST PUSH1 0x0 PUSH2 0x6AF PUSH1 0x2A DUP4 PUSH2 0x884 JUMP JUMPDEST SWAP2 POP PUSH2 0x6BA DUP3 PUSH2 0x9E6 JUMP JUMPDEST PUSH1 0x40 DUP3 ADD SWAP1 POP SWAP2 SWAP1 POP JUMP JUMPDEST PUSH1 0x0 PUSH2 0x6D2 PUSH1 0x29 DUP4 PUSH2 0x884 JUMP JUMPDEST SWAP2 POP PUSH2 0x6DD DUP3 PUSH2 0xA35 JUMP JUMPDEST PUSH1 0x40 DUP3 ADD SWAP1 POP SWAP2 SWAP1 POP JUMP JUMPDEST PUSH1 0x0 PUSH2 0x6F5 PUSH1 0x27 DUP4 PUSH2 0x884 JUMP JUMPDEST SWAP2 POP PUSH2 0x700 DUP3 PUSH2 0xA84 JUMP JUMPDEST PUSH1 0x40 DUP3 ADD SWAP1 POP SWAP2 SWAP1 POP JUMP JUMPDEST PUSH1 0x0 PUSH2 0x718 PUSH1 0x18 DUP4 PUSH2 0x884 JUMP JUMPDEST SWAP2 POP PUSH2 0x723 DUP3 PUSH2 0xAD3 JUMP JUMPDEST PUSH1 0x20 DUP3 ADD SWAP1 POP SWAP2 SWAP1 POP JUMP JUMPDEST PUSH2 0x737 DUP2 PUSH2 0x945 JUMP JUMPDEST DUP3 MSTORE POP POP JUMP JUMPDEST PUSH1 0x0 PUSH1 0x20 DUP3 ADD SWAP1 POP PUSH2 0x752 PUSH1 0x0 DUP4 ADD DUP5 PUSH2 0x63C JUMP JUMPDEST SWAP3 SWAP2 POP POP JUMP JUMPDEST PUSH1 0x0 PUSH1 0x40 DUP3 ADD SWAP1 POP PUSH2 0x76D PUSH1 0x0 DUP4 ADD DUP6 PUSH2 0x63C JUMP JUMPDEST PUSH2 0x77A PUSH1 0x20 DUP4 ADD DUP5 PUSH2 0x72E JUMP JUMPDEST SWAP4 SWAP3 POP POP POP JUMP JUMPDEST PUSH1 0x0 PUSH1 0x20 DUP3 ADD SWAP1 POP PUSH2 0x796 PUSH1 0x0 DUP4 ADD DUP5 PUSH2 0x64B JUMP JUMPDEST SWAP3 SWAP2 POP POP JUMP JUMPDEST PUSH1 0x0 PUSH1 0x80 DUP3 ADD SWAP1 POP PUSH2 0x7B1 PUSH1 0x0 DUP4 ADD DUP8 PUSH2 0x693 JUMP JUMPDEST PUSH2 0x7BE PUSH1 0x20 DUP4 ADD DUP7 PUSH2 0x63C JUMP JUMPDEST PUSH2 0x7CB PUSH1 0x40 DUP4 ADD DUP6 PUSH2 0x72E JUMP JUMPDEST DUP2 DUP2 SUB PUSH1 0x60 DUP4 ADD MSTORE PUSH2 0x7DD DUP2 DUP5 PUSH2 0x65A JUMP JUMPDEST SWAP1 POP SWAP6 SWAP5 POP POP POP POP POP JUMP JUMPDEST PUSH1 0x0 PUSH1 0x20 DUP3 ADD SWAP1 POP DUP2 DUP2 SUB PUSH1 0x0 DUP4 ADD MSTORE PUSH2 0x801 DUP2 PUSH2 0x6A2 JUMP JUMPDEST SWAP1 POP SWAP2 SWAP1 POP JUMP JUMPDEST PUSH1 0x0 PUSH1 0x20 DUP3 ADD SWAP1 POP DUP2 DUP2 SUB PUSH1 0x0 DUP4 ADD MSTORE PUSH2 0x821 DUP2 PUSH2 0x6C5 JUMP JUMPDEST SWAP1 POP SWAP2 SWAP1 POP JUMP JUMPDEST PUSH1 0x0 PUSH1 0x20 DUP3 ADD SWAP1 POP DUP2 DUP2 SUB PUSH1 0x0 DUP4 ADD MSTORE PUSH2 0x841 DUP2 PUSH2 0x6E8 JUMP JUMPDEST SWAP1 POP SWAP2 SWAP1 POP JUMP JUMPDEST PUSH1 0x0 PUSH1 0x20 DUP3 ADD SWAP1 POP DUP2 DUP2 SUB PUSH1 0x0 DUP4 ADD MSTORE PUSH2 0x861 DUP2 PUSH2 0x70B JUMP JUMPDEST SWAP1 POP SWAP2 SWAP1 POP JUMP JUMPDEST PUSH1 0x0 DUP2 MLOAD SWAP1 POP SWAP2 SWAP1 POP JUMP JUMPDEST PUSH1 0x0 DUP3 DUP3 MSTORE PUSH1 0x20 DUP3 ADD SWAP1 POP SWAP3 SWAP2 POP POP JUMP JUMPDEST PUSH1 0x0 DUP3 DUP3 MSTORE PUSH1 0x20 DUP3 ADD SWAP1 POP SWAP3 SWAP2 POP POP JUMP JUMPDEST PUSH1 0x0 PUSH2 0x8A0 DUP3 PUSH2 0x945 JUMP JUMPDEST SWAP2 POP PUSH2 0x8AB DUP4 PUSH2 0x945 JUMP JUMPDEST SWAP3 POP DUP3 PUSH32 0xFFFFFFFFFFFFFFFFFFFFFFFFFFFFFFFFFFFFFFFFFFFFFFFFFFFFFFFFFFFFFFFF SUB DUP3 GT ISZERO PUSH2 0x8E0 JUMPI PUSH2 0x8DF PUSH2 0x9A6 JUMP JUMPDEST JUMPDEST DUP3 DUP3 ADD SWAP1 POP SWAP3 SWAP2 POP POP JUMP JUMPDEST PUSH1 0x0 PUSH2 0x8F6 DUP3 PUSH2 0x925 JUMP JUMPDEST SWAP1 POP SWAP2 SWAP1 POP JUMP JUMPDEST PUSH1 0x0 PUSH2 0x908 DUP3 PUSH2 0x925 JUMP JUMPDEST SWAP1 POP SWAP2 SWAP1 POP JUMP JUMPDEST PUSH1 0x0 DUP2 ISZERO ISZERO SWAP1 POP SWAP2 SWAP1 POP JUMP JUMPDEST PUSH1 0x0 DUP2 SWAP1 POP SWAP2 SWAP1 POP JUMP JUMPDEST PUSH1 0x0 PUSH20 0xFFFFFFFFFFFFFFFFFFFFFFFFFFFFFFFFFFFFFFFF DUP3 AND SWAP1 POP SWAP2 SWAP1 POP JUMP JUMPDEST PUSH1 0x0 DUP2 SWAP1 POP SWAP2 SWAP1 POP JUMP JUMPDEST PUSH1 0x0 PUSH2 0x95A DUP3 PUSH2 0x961 JUMP JUMPDEST SWAP1 POP SWAP2 SWAP1 POP JUMP JUMPDEST PUSH1 0x0 PUSH2 0x96C DUP3 PUSH2 0x925 JUMP JUMPDEST SWAP1 POP SWAP2 SWAP1 POP JUMP JUMPDEST PUSH1 0x0 JUMPDEST DUP4 DUP2 LT ISZERO PUSH2 0x991 JUMPI DUP1 DUP3 ADD MLOAD DUP2 DUP5 ADD MSTORE PUSH1 0x20 DUP2 ADD SWAP1 POP PUSH2 0x976 JUMP JUMPDEST DUP4 DUP2 GT ISZERO PUSH2 0x9A0 JUMPI PUSH1 0x0 DUP5 DUP5 ADD MSTORE JUMPDEST POP POP POP POP JUMP JUMPDEST PUSH32 0x4E487B7100000000000000000000000000000000000000000000000000000000 PUSH1 0x0 MSTORE PUSH1 0x11 PUSH1 0x4 MSTORE PUSH1 0x24 PUSH1 0x0 REVERT JUMPDEST PUSH1 0x0 PUSH1 0x1F NOT PUSH1 0x1F DUP4 ADD AND SWAP1 POP SWAP2 SWAP1 POP JUMP JUMPDEST PUSH32 0x656E636F64656420646174612028626F72726F77416D6F756E742920646F6573 PUSH1 0x0 DUP3 ADD MSTORE PUSH32 0x206E6F74206D6174636800000000000000000000000000000000000000000000 PUSH1 0x20 DUP3 ADD MSTORE POP JUMP JUMPDEST PUSH32 0x656E636F64656420646174612028626F72726F77546F6B656E2920646F657320 PUSH1 0x0 DUP3 ADD MSTORE PUSH32 0x6E6F74206D617463680000000000000000000000000000000000000000000000 PUSH1 0x20 DUP3 ADD MSTORE POP JUMP JUMPDEST PUSH32 0x466C617368426F72726F7765723A20556E74727573746564206C6F616E20696E PUSH1 0x0 DUP3 ADD MSTORE PUSH32 0x69746961746F7200000000000000000000000000000000000000000000000000 PUSH1 0x20 DUP3 ADD MSTORE POP JUMP JUMPDEST PUSH32 0x756E74727573746564206D6573736167652073656E6465720000000000000000 PUSH1 0x0 DUP3 ADD MSTORE POP JUMP JUMPDEST PUSH2 0xB05 DUP2 PUSH2 0x8EB JUMP JUMPDEST DUP2 EQ PUSH2 0xB10 JUMPI PUSH1 0x0 DUP1 REVERT JUMPDEST POP JUMP JUMPDEST PUSH2 0xB1C DUP2 PUSH2 0x8FD JUMP JUMPDEST DUP2 EQ PUSH2 0xB27 JUMPI PUSH1 0x0 DUP1 REVERT JUMPDEST POP JUMP JUMPDEST PUSH2 0xB33 DUP2 PUSH2 0x90F JUMP JUMPDEST DUP2 EQ PUSH2 0xB3E JUMPI PUSH1 0x0 DUP1 REVERT JUMPDEST POP JUMP JUMPDEST PUSH2 0xB4A DUP2 PUSH2 0x945 JUMP JUMPDEST DUP2 EQ PUSH2 0xB55 JUMPI PUSH1 0x0 DUP1 REVERT JUMPDEST POP JUMP INVALID LOG2 PUSH5 0x6970667358 0x22 SLT KECCAK256 0x1E 0xD 0xAF AND PUSH27 0x7FAC745BBFEBB3382ECFBB9E852219C741AD66E794EBFDF06561A4 PUSH5 0x736F6C6343 STOP ADDMOD DIV STOP CALLER "
        },
        "methodIdentifiers": {
          "comptroller()": "5fe3b567",
          "doFlashloan(address,address,uint256)": "1a7d913d",
          "onFlashLoan(address,address,uint256,uint256,bytes)": "23e30c8b"
        }
      }
    }
  }
}