{
  "contracts/JoeLiquidator.sol": {
    "JoeLiquidator": {
      "abi": [
        {
          "inputs": [
            {
              "internalType": "address",
              "name": "_joetrollerAddress",
              "type": "address"
            },
            {
              "internalType": "address",
              "name": "_joeRouter02Address",
              "type": "address"
            },
            {
              "internalType": "address",
              "name": "_jUSDCEAddress",
              "type": "address"
            },
            {
              "internalType": "address",
              "name": "_jWETHEAddress",
              "type": "address"
            }
          ],
          "stateMutability": "nonpayable",
          "type": "constructor"
        },
        {
          "inputs": [],
          "name": "DAIE",
          "outputs": [
            {
              "internalType": "address",
              "name": "",
              "type": "address"
            }
          ],
          "stateMutability": "view",
          "type": "function"
        },
        {
          "inputs": [],
          "name": "LINKE",
          "outputs": [
            {
              "internalType": "address",
              "name": "",
              "type": "address"
            }
          ],
          "stateMutability": "view",
          "type": "function"
        },
        {
          "inputs": [],
          "name": "MIM",
          "outputs": [
            {
              "internalType": "address",
              "name": "",
              "type": "address"
            }
          ],
          "stateMutability": "view",
          "type": "function"
        },
        {
          "inputs": [],
          "name": "USDCE",
          "outputs": [
            {
              "internalType": "address",
              "name": "",
              "type": "address"
            }
          ],
          "stateMutability": "view",
          "type": "function"
        },
        {
          "inputs": [],
          "name": "USDTE",
          "outputs": [
            {
              "internalType": "address",
              "name": "",
              "type": "address"
            }
          ],
          "stateMutability": "view",
          "type": "function"
        },
        {
          "inputs": [],
          "name": "WAVAX",
          "outputs": [
            {
              "internalType": "address",
              "name": "",
              "type": "address"
            }
          ],
          "stateMutability": "view",
          "type": "function"
        },
        {
          "inputs": [],
          "name": "WBTCE",
          "outputs": [
            {
              "internalType": "address",
              "name": "",
              "type": "address"
            }
          ],
          "stateMutability": "view",
          "type": "function"
        },
        {
          "inputs": [],
          "name": "WETHE",
          "outputs": [
            {
              "internalType": "address",
              "name": "",
              "type": "address"
            }
          ],
          "stateMutability": "view",
          "type": "function"
        },
        {
          "inputs": [
            {
              "internalType": "address",
              "name": "_flashloanLender",
              "type": "address"
            },
            {
              "internalType": "address",
              "name": "_jBorrowToken",
              "type": "address"
            },
            {
              "internalType": "uint256",
              "name": "_borrowAmount",
              "type": "uint256"
            },
            {
              "internalType": "address",
              "name": "_borrowerToLiquidate",
              "type": "address"
            },
            {
              "internalType": "bool",
              "name": "_isUSDC",
              "type": "bool"
            }
          ],
          "name": "doFlashloan",
          "outputs": [],
          "stateMutability": "nonpayable",
          "type": "function"
        },
        {
          "inputs": [],
          "name": "jUSDCEAddress",
          "outputs": [
            {
              "internalType": "address",
              "name": "",
              "type": "address"
            }
          ],
          "stateMutability": "view",
          "type": "function"
        },
        {
          "inputs": [],
          "name": "jWETHEAddress",
          "outputs": [
            {
              "internalType": "address",
              "name": "",
              "type": "address"
            }
          ],
          "stateMutability": "view",
          "type": "function"
        },
        {
          "inputs": [],
          "name": "joeRouter02Address",
          "outputs": [
            {
              "internalType": "address",
              "name": "",
              "type": "address"
            }
          ],
          "stateMutability": "view",
          "type": "function"
        },
        {
          "inputs": [],
          "name": "joetrollerAddress",
          "outputs": [
            {
              "internalType": "address",
              "name": "",
              "type": "address"
            }
          ],
          "stateMutability": "view",
          "type": "function"
        },
        {
          "inputs": [
            {
              "internalType": "address",
              "name": "_initiator",
              "type": "address"
            },
            {
              "internalType": "address",
              "name": "_underlyingToken",
              "type": "address"
            },
            {
              "internalType": "uint256",
              "name": "_amount",
              "type": "uint256"
            },
            {
              "internalType": "uint256",
              "name": "_fee",
              "type": "uint256"
            },
            {
              "internalType": "bytes",
              "name": "_data",
              "type": "bytes"
            }
          ],
          "name": "onFlashLoan",
          "outputs": [
            {
              "internalType": "bytes32",
              "name": "",
              "type": "bytes32"
            }
          ],
          "stateMutability": "nonpayable",
          "type": "function"
        }
      ],
      "evm": {
        "bytecode": {
          "linkReferences": {},
          "object": "60806040523480156200001157600080fd5b50604051620012fd380380620012fd83398181016040528101906200003791906200015b565b836000806101000a81548173ffffffffffffffffffffffffffffffffffffffff021916908373ffffffffffffffffffffffffffffffffffffffff16021790555082600160006101000a81548173ffffffffffffffffffffffffffffffffffffffff021916908373ffffffffffffffffffffffffffffffffffffffff16021790555081600260006101000a81548173ffffffffffffffffffffffffffffffffffffffff021916908373ffffffffffffffffffffffffffffffffffffffff16021790555080600360006101000a81548173ffffffffffffffffffffffffffffffffffffffff021916908373ffffffffffffffffffffffffffffffffffffffff1602179055505050505062000215565b6000815190506200015581620001fb565b92915050565b600080600080608085870312156200017257600080fd5b6000620001828782880162000144565b9450506020620001958782880162000144565b9350506040620001a88782880162000144565b9250506060620001bb8782880162000144565b91505092959194509250565b6000620001d482620001db565b9050919050565b600073ffffffffffffffffffffffffffffffffffffffff82169050919050565b6200020681620001c7565b81146200021257600080fd5b50565b6110d880620002256000396000f3fe608060405234801561001057600080fd5b50600436106100ea5760003560e01c8063897857b81161008c578063daec383d11610066578063daec383d1461022b578063df403b2d14610249578063e62fbf6a14610267578063f4a8361614610285576100ea565b8063897857b8146101d1578063974ab80e146101ef578063c2776d6f1461020d576100ea565b806323e30c8b116100c857806323e30c8b146101475780634350b345146101775780635b189e2d1461019557806373b295c2146101b3576100ea565b80630902c43a146100ef57806311897d461461010b578063195187e114610129575b600080fd5b610109600480360381019061010491906109e9565b6102a3565b005b610113610443565b6040516101209190610c1c565b60405180910390f35b61013161045b565b60405161013e9190610c1c565b60405180910390f35b610161600480360381019061015c9190610a60565b610473565b60405161016e9190610ca5565b60405180910390f35b61017f610754565b60405161018c9190610c1c565b60405180910390f35b61019d61077a565b6040516101aa9190610c1c565b60405180910390f35b6101bb610792565b6040516101c89190610c1c565b60405180910390f35b6101d96107aa565b6040516101e69190610c1c565b60405180910390f35b6101f76107ce565b6040516102049190610c1c565b60405180910390f35b6102156107e6565b6040516102229190610c1c565b60405180910390f35b6102336107fe565b6040516102409190610c1c565b60405180910390f35b610251610816565b60405161025e9190610c1c565b60405180910390f35b61026f61083c565b60405161027c9190610c1c565b60405180910390f35b61028d610862565b60405161029a9190610c1c565b60405180910390f35b600081156102d557600360009054906101000a900473ffffffffffffffffffffffffffffffffffffffff1690506102fb565b600260009054906101000a900473ffffffffffffffffffffffffffffffffffffffff1690505b60008573ffffffffffffffffffffffffffffffffffffffff16636f307dc36040518163ffffffff1660e01b815260040160206040518083038186803b15801561034357600080fd5b505afa158015610357573d6000803e3d6000fd5b505050506040513d601f19601f8201168201806040525081019061037b919061095d565b90506000818686896040516020016103969493929190610c60565b60405160208183030381529060405290508773ffffffffffffffffffffffffffffffffffffffff16635cffe9de308489856040518563ffffffff1660e01b81526004016103e69493929190610cc0565b602060405180830381600087803b15801561040057600080fd5b505af1158015610414573d6000803e3d6000fd5b505050506040513d601f19601f820116820180604052508101906104389190610af2565b505050505050505050565b7349d5c2bdffac6ce2bfdb6640f4f80f226bc10bab81565b73a7d7079b0fead91f3e65f86e8915cb59c1a4c66481565b60008060009054906101000a900473ffffffffffffffffffffffffffffffffffffffff1673ffffffffffffffffffffffffffffffffffffffff16633d98a1e5336040518263ffffffff1660e01b81526004016104cf9190610c1c565b60206040518083038186803b1580156104e757600080fd5b505afa1580156104fb573d6000803e3d6000fd5b505050506040513d601f19601f8201168201806040525081019061051f9190610af2565b61055e576040517f08c379a000000000000000000000000000000000000000000000000000000000815260040161055590610d0c565b60405180910390fd5b3073ffffffffffffffffffffffffffffffffffffffff168773ffffffffffffffffffffffffffffffffffffffff16146105cc576040517f08c379a00000000000000000000000000000000000000000000000000000000081526004016105c390610d2c565b60405180910390fd5b60008060008086868101906105e19190610986565b93509350935093508973ffffffffffffffffffffffffffffffffffffffff168473ffffffffffffffffffffffffffffffffffffffff1614610657576040517f08c379a000000000000000000000000000000000000000000000000000000000815260040161064e90610d4c565b60405180910390fd5b888314610699576040517f08c379a000000000000000000000000000000000000000000000000000000000815260040161069090610d6c565b60405180910390fd5b8973ffffffffffffffffffffffffffffffffffffffff1663095ea7b3336106c98b8d61087a90919063ffffffff16565b6040518363ffffffff1660e01b81526004016106e6929190610c37565b600060405180830381600087803b15801561070057600080fd5b505af1158015610714573d6000803e3d6000fd5b50505050610723828483610890565b7f7968ba28153757de2da7bce4c2ba9ebaf94445061f3050de1b0de5c34bb7d5d89450505050509695505050505050565b600360009054906101000a900473ffffffffffffffffffffffffffffffffffffffff1681565b7350b7545627a5162f82a992c33b87adc75187b21881565b73b31f66aa3c1e785363f0875a1b74e27b85fd66c781565b60008054906101000a900473ffffffffffffffffffffffffffffffffffffffff1681565b73c7198437980c041c805a1edcba50c1ce5db9511881565b735947bb275c521040051d82396192181b413227a381565b73130966628846bfd36ff31a822705796e8cb8c18d81565b600260009054906101000a900473ffffffffffffffffffffffffffffffffffffffff1681565b600160009054906101000a900473ffffffffffffffffffffffffffffffffffffffff1681565b73d586e7f844cea2f87f50152665bcbc2c279d8d7081565b600081836108889190610db9565b905092915050565b505050565b6000813590506108a481611046565b92915050565b6000815190506108b981611046565b92915050565b6000813590506108ce8161105d565b92915050565b6000813590506108e381611074565b92915050565b6000815190506108f881611074565b92915050565b60008083601f84011261091057600080fd5b8235905067ffffffffffffffff81111561092957600080fd5b60208301915083600182028301111561094157600080fd5b9250929050565b6000813590506109578161108b565b92915050565b60006020828403121561096f57600080fd5b600061097d848285016108aa565b91505092915050565b6000806000806080858703121561099c57600080fd5b60006109aa878288016108bf565b94505060206109bb87828801610948565b93505060406109cc878288016108bf565b92505060606109dd878288016108bf565b91505092959194509250565b600080600080600060a08688031215610a0157600080fd5b6000610a0f88828901610895565b9550506020610a2088828901610895565b9450506040610a3188828901610948565b9350506060610a4288828901610895565b9250506080610a53888289016108d4565b9150509295509295909350565b60008060008060008060a08789031215610a7957600080fd5b6000610a8789828a01610895565b9650506020610a9889828a01610895565b9550506040610aa989828a01610948565b9450506060610aba89828a01610948565b935050608087013567ffffffffffffffff811115610ad757600080fd5b610ae389828a016108fe565b92509250509295509295509295565b600060208284031215610b0457600080fd5b6000610b12848285016108e9565b91505092915050565b610b2481610e0f565b82525050565b610b3381610e3f565b82525050565b6000610b4482610d8c565b610b4e8185610d97565b9350610b5e818560208601610e97565b610b6781610ef9565b840191505092915050565b610b7b81610e73565b82525050565b6000610b8e602783610da8565b9150610b9982610f0a565b604082019050919050565b6000610bb1602783610da8565b9150610bbc82610f59565b604082019050919050565b6000610bd4603883610da8565b9150610bdf82610fa8565b604082019050919050565b6000610bf7603983610da8565b9150610c0282610ff7565b604082019050919050565b610c1681610e69565b82525050565b6000602082019050610c316000830184610b1b565b92915050565b6000604082019050610c4c6000830185610b1b565b610c596020830184610c0d565b9392505050565b6000608082019050610c756000830187610b1b565b610c826020830186610c0d565b610c8f6040830185610b1b565b610c9c6060830184610b1b565b95945050505050565b6000602082019050610cba6000830184610b2a565b92915050565b6000608082019050610cd56000830187610b72565b610ce26020830186610b1b565b610cef6040830185610c0d565b8181036060830152610d018184610b39565b905095945050505050565b60006020820190508181036000830152610d2581610b81565b9050919050565b60006020820190508181036000830152610d4581610ba4565b9050919050565b60006020820190508181036000830152610d6581610bc7565b9050919050565b60006020820190508181036000830152610d8581610bea565b9050919050565b600081519050919050565b600082825260208201905092915050565b600082825260208201905092915050565b6000610dc482610e69565b9150610dcf83610e69565b9250827fffffffffffffffffffffffffffffffffffffffffffffffffffffffffffffffff03821115610e0457610e03610eca565b5b828201905092915050565b6000610e1a82610e49565b9050919050565b6000610e2c82610e49565b9050919050565b60008115159050919050565b6000819050919050565b600073ffffffffffffffffffffffffffffffffffffffff82169050919050565b6000819050919050565b6000610e7e82610e85565b9050919050565b6000610e9082610e49565b9050919050565b60005b83811015610eb5578082015181840152602081019050610e9a565b83811115610ec4576000848401525b50505050565b7f4e487b7100000000000000000000000000000000000000000000000000000000600052601160045260246000fd5b6000601f19601f8301169050919050565b7f4a6f654c697175696461746f723a20556e74727573746564206d65737361676560008201527f2073656e64657200000000000000000000000000000000000000000000000000602082015250565b7f4a6f654c697175696461746f723a20556e74727573746564206c6f616e20696e60008201527f69746961746f7200000000000000000000000000000000000000000000000000602082015250565b7f4a6f654c697175696461746f723a20456e636f64656420646174612028626f7260008201527f726f77546f6b656e2920646f6573206e6f74206d617463680000000000000000602082015250565b7f4a6f654c697175696461746f723a20456e636f64656420646174612028626f7260008201527f726f77416d6f756e742920646f6573206e6f74206d6174636800000000000000602082015250565b61104f81610e0f565b811461105a57600080fd5b50565b61106681610e21565b811461107157600080fd5b50565b61107d81610e33565b811461108857600080fd5b50565b61109481610e69565b811461109f57600080fd5b5056fea2646970667358221220fda0f37df79f0b40fdd9afff9bc58aeb4c3450e1c6501a3becf958f5fb3eb43a64736f6c63430008040033",
          "opcodes": "PUSH1 0x80 PUSH1 0x40 MSTORE CALLVALUE DUP1 ISZERO PUSH3 0x11 JUMPI PUSH1 0x0 DUP1 REVERT JUMPDEST POP PUSH1 0x40 MLOAD PUSH3 0x12FD CODESIZE SUB DUP1 PUSH3 0x12FD DUP4 CODECOPY DUP2 DUP2 ADD PUSH1 0x40 MSTORE DUP2 ADD SWAP1 PUSH3 0x37 SWAP2 SWAP1 PUSH3 0x15B JUMP JUMPDEST DUP4 PUSH1 0x0 DUP1 PUSH2 0x100 EXP DUP2 SLOAD DUP2 PUSH20 0xFFFFFFFFFFFFFFFFFFFFFFFFFFFFFFFFFFFFFFFF MUL NOT AND SWAP1 DUP4 PUSH20 0xFFFFFFFFFFFFFFFFFFFFFFFFFFFFFFFFFFFFFFFF AND MUL OR SWAP1 SSTORE POP DUP3 PUSH1 0x1 PUSH1 0x0 PUSH2 0x100 EXP DUP2 SLOAD DUP2 PUSH20 0xFFFFFFFFFFFFFFFFFFFFFFFFFFFFFFFFFFFFFFFF MUL NOT AND SWAP1 DUP4 PUSH20 0xFFFFFFFFFFFFFFFFFFFFFFFFFFFFFFFFFFFFFFFF AND MUL OR SWAP1 SSTORE POP DUP2 PUSH1 0x2 PUSH1 0x0 PUSH2 0x100 EXP DUP2 SLOAD DUP2 PUSH20 0xFFFFFFFFFFFFFFFFFFFFFFFFFFFFFFFFFFFFFFFF MUL NOT AND SWAP1 DUP4 PUSH20 0xFFFFFFFFFFFFFFFFFFFFFFFFFFFFFFFFFFFFFFFF AND MUL OR SWAP1 SSTORE POP DUP1 PUSH1 0x3 PUSH1 0x0 PUSH2 0x100 EXP DUP2 SLOAD DUP2 PUSH20 0xFFFFFFFFFFFFFFFFFFFFFFFFFFFFFFFFFFFFFFFF MUL NOT AND SWAP1 DUP4 PUSH20 0xFFFFFFFFFFFFFFFFFFFFFFFFFFFFFFFFFFFFFFFF AND MUL OR SWAP1 SSTORE POP POP POP POP POP PUSH3 0x215 JUMP JUMPDEST PUSH1 0x0 DUP2 MLOAD SWAP1 POP PUSH3 0x155 DUP2 PUSH3 0x1FB JUMP JUMPDEST SWAP3 SWAP2 POP POP JUMP JUMPDEST PUSH1 0x0 DUP1 PUSH1 0x0 DUP1 PUSH1 0x80 DUP6 DUP8 SUB SLT ISZERO PUSH3 0x172 JUMPI PUSH1 0x0 DUP1 REVERT JUMPDEST PUSH1 0x0 PUSH3 0x182 DUP8 DUP3 DUP9 ADD PUSH3 0x144 JUMP JUMPDEST SWAP5 POP POP PUSH1 0x20 PUSH3 0x195 DUP8 DUP3 DUP9 ADD PUSH3 0x144 JUMP JUMPDEST SWAP4 POP POP PUSH1 0x40 PUSH3 0x1A8 DUP8 DUP3 DUP9 ADD PUSH3 0x144 JUMP JUMPDEST SWAP3 POP POP PUSH1 0x60 PUSH3 0x1BB DUP8 DUP3 DUP9 ADD PUSH3 0x144 JUMP JUMPDEST SWAP2 POP POP SWAP3 SWAP6 SWAP2 SWAP5 POP SWAP3 POP JUMP JUMPDEST PUSH1 0x0 PUSH3 0x1D4 DUP3 PUSH3 0x1DB JUMP JUMPDEST SWAP1 POP SWAP2 SWAP1 POP JUMP JUMPDEST PUSH1 0x0 PUSH20 0xFFFFFFFFFFFFFFFFFFFFFFFFFFFFFFFFFFFFFFFF DUP3 AND SWAP1 POP SWAP2 SWAP1 POP JUMP JUMPDEST PUSH3 0x206 DUP2 PUSH3 0x1C7 JUMP JUMPDEST DUP2 EQ PUSH3 0x212 JUMPI PUSH1 0x0 DUP1 REVERT JUMPDEST POP JUMP JUMPDEST PUSH2 0x10D8 DUP1 PUSH3 0x225 PUSH1 0x0 CODECOPY PUSH1 0x0 RETURN INVALID PUSH1 0x80 PUSH1 0x40 MSTORE CALLVALUE DUP1 ISZERO PUSH2 0x10 JUMPI PUSH1 0x0 DUP1 REVERT JUMPDEST POP PUSH1 0x4 CALLDATASIZE LT PUSH2 0xEA JUMPI PUSH1 0x0 CALLDATALOAD PUSH1 0xE0 SHR DUP1 PUSH4 0x897857B8 GT PUSH2 0x8C JUMPI DUP1 PUSH4 0xDAEC383D GT PUSH2 0x66 JUMPI DUP1 PUSH4 0xDAEC383D EQ PUSH2 0x22B JUMPI DUP1 PUSH4 0xDF403B2D EQ PUSH2 0x249 JUMPI DUP1 PUSH4 0xE62FBF6A EQ PUSH2 0x267 JUMPI DUP1 PUSH4 0xF4A83616 EQ PUSH2 0x285 JUMPI PUSH2 0xEA JUMP JUMPDEST DUP1 PUSH4 0x897857B8 EQ PUSH2 0x1D1 JUMPI DUP1 PUSH4 0x974AB80E EQ PUSH2 0x1EF JUMPI DUP1 PUSH4 0xC2776D6F EQ PUSH2 0x20D JUMPI PUSH2 0xEA JUMP JUMPDEST DUP1 PUSH4 0x23E30C8B GT PUSH2 0xC8 JUMPI DUP1 PUSH4 0x23E30C8B EQ PUSH2 0x147 JUMPI DUP1 PUSH4 0x4350B345 EQ PUSH2 0x177 JUMPI DUP1 PUSH4 0x5B189E2D EQ PUSH2 0x195 JUMPI DUP1 PUSH4 0x73B295C2 EQ PUSH2 0x1B3 JUMPI PUSH2 0xEA JUMP JUMPDEST DUP1 PUSH4 0x902C43A EQ PUSH2 0xEF JUMPI DUP1 PUSH4 0x11897D46 EQ PUSH2 0x10B JUMPI DUP1 PUSH4 0x195187E1 EQ PUSH2 0x129 JUMPI JUMPDEST PUSH1 0x0 DUP1 REVERT JUMPDEST PUSH2 0x109 PUSH1 0x4 DUP1 CALLDATASIZE SUB DUP2 ADD SWAP1 PUSH2 0x104 SWAP2 SWAP1 PUSH2 0x9E9 JUMP JUMPDEST PUSH2 0x2A3 JUMP JUMPDEST STOP JUMPDEST PUSH2 0x113 PUSH2 0x443 JUMP JUMPDEST PUSH1 0x40 MLOAD PUSH2 0x120 SWAP2 SWAP1 PUSH2 0xC1C JUMP JUMPDEST PUSH1 0x40 MLOAD DUP1 SWAP2 SUB SWAP1 RETURN JUMPDEST PUSH2 0x131 PUSH2 0x45B JUMP JUMPDEST PUSH1 0x40 MLOAD PUSH2 0x13E SWAP2 SWAP1 PUSH2 0xC1C JUMP JUMPDEST PUSH1 0x40 MLOAD DUP1 SWAP2 SUB SWAP1 RETURN JUMPDEST PUSH2 0x161 PUSH1 0x4 DUP1 CALLDATASIZE SUB DUP2 ADD SWAP1 PUSH2 0x15C SWAP2 SWAP1 PUSH2 0xA60 JUMP JUMPDEST PUSH2 0x473 JUMP JUMPDEST PUSH1 0x40 MLOAD PUSH2 0x16E SWAP2 SWAP1 PUSH2 0xCA5 JUMP JUMPDEST PUSH1 0x40 MLOAD DUP1 SWAP2 SUB SWAP1 RETURN JUMPDEST PUSH2 0x17F PUSH2 0x754 JUMP JUMPDEST PUSH1 0x40 MLOAD PUSH2 0x18C SWAP2 SWAP1 PUSH2 0xC1C JUMP JUMPDEST PUSH1 0x40 MLOAD DUP1 SWAP2 SUB SWAP1 RETURN JUMPDEST PUSH2 0x19D PUSH2 0x77A JUMP JUMPDEST PUSH1 0x40 MLOAD PUSH2 0x1AA SWAP2 SWAP1 PUSH2 0xC1C JUMP JUMPDEST PUSH1 0x40 MLOAD DUP1 SWAP2 SUB SWAP1 RETURN JUMPDEST PUSH2 0x1BB PUSH2 0x792 JUMP JUMPDEST PUSH1 0x40 MLOAD PUSH2 0x1C8 SWAP2 SWAP1 PUSH2 0xC1C JUMP JUMPDEST PUSH1 0x40 MLOAD DUP1 SWAP2 SUB SWAP1 RETURN JUMPDEST PUSH2 0x1D9 PUSH2 0x7AA JUMP JUMPDEST PUSH1 0x40 MLOAD PUSH2 0x1E6 SWAP2 SWAP1 PUSH2 0xC1C JUMP JUMPDEST PUSH1 0x40 MLOAD DUP1 SWAP2 SUB SWAP1 RETURN JUMPDEST PUSH2 0x1F7 PUSH2 0x7CE JUMP JUMPDEST PUSH1 0x40 MLOAD PUSH2 0x204 SWAP2 SWAP1 PUSH2 0xC1C JUMP JUMPDEST PUSH1 0x40 MLOAD DUP1 SWAP2 SUB SWAP1 RETURN JUMPDEST PUSH2 0x215 PUSH2 0x7E6 JUMP JUMPDEST PUSH1 0x40 MLOAD PUSH2 0x222 SWAP2 SWAP1 PUSH2 0xC1C JUMP JUMPDEST PUSH1 0x40 MLOAD DUP1 SWAP2 SUB SWAP1 RETURN JUMPDEST PUSH2 0x233 PUSH2 0x7FE JUMP JUMPDEST PUSH1 0x40 MLOAD PUSH2 0x240 SWAP2 SWAP1 PUSH2 0xC1C JUMP JUMPDEST PUSH1 0x40 MLOAD DUP1 SWAP2 SUB SWAP1 RETURN JUMPDEST PUSH2 0x251 PUSH2 0x816 JUMP JUMPDEST PUSH1 0x40 MLOAD PUSH2 0x25E SWAP2 SWAP1 PUSH2 0xC1C JUMP JUMPDEST PUSH1 0x40 MLOAD DUP1 SWAP2 SUB SWAP1 RETURN JUMPDEST PUSH2 0x26F PUSH2 0x83C JUMP JUMPDEST PUSH1 0x40 MLOAD PUSH2 0x27C SWAP2 SWAP1 PUSH2 0xC1C JUMP JUMPDEST PUSH1 0x40 MLOAD DUP1 SWAP2 SUB SWAP1 RETURN JUMPDEST PUSH2 0x28D PUSH2 0x862 JUMP JUMPDEST PUSH1 0x40 MLOAD PUSH2 0x29A SWAP2 SWAP1 PUSH2 0xC1C JUMP JUMPDEST PUSH1 0x40 MLOAD DUP1 SWAP2 SUB SWAP1 RETURN JUMPDEST PUSH1 0x0 DUP2 ISZERO PUSH2 0x2D5 JUMPI PUSH1 0x3 PUSH1 0x0 SWAP1 SLOAD SWAP1 PUSH2 0x100 EXP SWAP1 DIV PUSH20 0xFFFFFFFFFFFFFFFFFFFFFFFFFFFFFFFFFFFFFFFF AND SWAP1 POP PUSH2 0x2FB JUMP JUMPDEST PUSH1 0x2 PUSH1 0x0 SWAP1 SLOAD SWAP1 PUSH2 0x100 EXP SWAP1 DIV PUSH20 0xFFFFFFFFFFFFFFFFFFFFFFFFFFFFFFFFFFFFFFFF AND SWAP1 POP JUMPDEST PUSH1 0x0 DUP6 PUSH20 0xFFFFFFFFFFFFFFFFFFFFFFFFFFFFFFFFFFFFFFFF AND PUSH4 0x6F307DC3 PUSH1 0x40 MLOAD DUP2 PUSH4 0xFFFFFFFF AND PUSH1 0xE0 SHL DUP2 MSTORE PUSH1 0x4 ADD PUSH1 0x20 PUSH1 0x40 MLOAD DUP1 DUP4 SUB DUP2 DUP7 DUP1 EXTCODESIZE ISZERO DUP1 ISZERO PUSH2 0x343 JUMPI PUSH1 0x0 DUP1 REVERT JUMPDEST POP GAS STATICCALL ISZERO DUP1 ISZERO PUSH2 0x357 JUMPI RETURNDATASIZE PUSH1 0x0 DUP1 RETURNDATACOPY RETURNDATASIZE PUSH1 0x0 REVERT JUMPDEST POP POP POP POP PUSH1 0x40 MLOAD RETURNDATASIZE PUSH1 0x1F NOT PUSH1 0x1F DUP3 ADD AND DUP3 ADD DUP1 PUSH1 0x40 MSTORE POP DUP2 ADD SWAP1 PUSH2 0x37B SWAP2 SWAP1 PUSH2 0x95D JUMP JUMPDEST SWAP1 POP PUSH1 0x0 DUP2 DUP7 DUP7 DUP10 PUSH1 0x40 MLOAD PUSH1 0x20 ADD PUSH2 0x396 SWAP5 SWAP4 SWAP3 SWAP2 SWAP1 PUSH2 0xC60 JUMP JUMPDEST PUSH1 0x40 MLOAD PUSH1 0x20 DUP2 DUP4 SUB SUB DUP2 MSTORE SWAP1 PUSH1 0x40 MSTORE SWAP1 POP DUP8 PUSH20 0xFFFFFFFFFFFFFFFFFFFFFFFFFFFFFFFFFFFFFFFF AND PUSH4 0x5CFFE9DE ADDRESS DUP5 DUP10 DUP6 PUSH1 0x40 MLOAD DUP6 PUSH4 0xFFFFFFFF AND PUSH1 0xE0 SHL DUP2 MSTORE PUSH1 0x4 ADD PUSH2 0x3E6 SWAP5 SWAP4 SWAP3 SWAP2 SWAP1 PUSH2 0xCC0 JUMP JUMPDEST PUSH1 0x20 PUSH1 0x40 MLOAD DUP1 DUP4 SUB DUP2 PUSH1 0x0 DUP8 DUP1 EXTCODESIZE ISZERO DUP1 ISZERO PUSH2 0x400 JUMPI PUSH1 0x0 DUP1 REVERT JUMPDEST POP GAS CALL ISZERO DUP1 ISZERO PUSH2 0x414 JUMPI RETURNDATASIZE PUSH1 0x0 DUP1 RETURNDATACOPY RETURNDATASIZE PUSH1 0x0 REVERT JUMPDEST POP POP POP POP PUSH1 0x40 MLOAD RETURNDATASIZE PUSH1 0x1F NOT PUSH1 0x1F DUP3 ADD AND DUP3 ADD DUP1 PUSH1 0x40 MSTORE POP DUP2 ADD SWAP1 PUSH2 0x438 SWAP2 SWAP1 PUSH2 0xAF2 JUMP JUMPDEST POP POP POP POP POP POP POP POP POP JUMP JUMPDEST PUSH20 0x49D5C2BDFFAC6CE2BFDB6640F4F80F226BC10BAB DUP2 JUMP JUMPDEST PUSH20 0xA7D7079B0FEAD91F3E65F86E8915CB59C1A4C664 DUP2 JUMP JUMPDEST PUSH1 0x0 DUP1 PUSH1 0x0 SWAP1 SLOAD SWAP1 PUSH2 0x100 EXP SWAP1 DIV PUSH20 0xFFFFFFFFFFFFFFFFFFFFFFFFFFFFFFFFFFFFFFFF AND PUSH20 0xFFFFFFFFFFFFFFFFFFFFFFFFFFFFFFFFFFFFFFFF AND PUSH4 0x3D98A1E5 CALLER PUSH1 0x40 MLOAD DUP3 PUSH4 0xFFFFFFFF AND PUSH1 0xE0 SHL DUP2 MSTORE PUSH1 0x4 ADD PUSH2 0x4CF SWAP2 SWAP1 PUSH2 0xC1C JUMP JUMPDEST PUSH1 0x20 PUSH1 0x40 MLOAD DUP1 DUP4 SUB DUP2 DUP7 DUP1 EXTCODESIZE ISZERO DUP1 ISZERO PUSH2 0x4E7 JUMPI PUSH1 0x0 DUP1 REVERT JUMPDEST POP GAS STATICCALL ISZERO DUP1 ISZERO PUSH2 0x4FB JUMPI RETURNDATASIZE PUSH1 0x0 DUP1 RETURNDATACOPY RETURNDATASIZE PUSH1 0x0 REVERT JUMPDEST POP POP POP POP PUSH1 0x40 MLOAD RETURNDATASIZE PUSH1 0x1F NOT PUSH1 0x1F DUP3 ADD AND DUP3 ADD DUP1 PUSH1 0x40 MSTORE POP DUP2 ADD SWAP1 PUSH2 0x51F SWAP2 SWAP1 PUSH2 0xAF2 JUMP JUMPDEST PUSH2 0x55E JUMPI PUSH1 0x40 MLOAD PUSH32 0x8C379A000000000000000000000000000000000000000000000000000000000 DUP2 MSTORE PUSH1 0x4 ADD PUSH2 0x555 SWAP1 PUSH2 0xD0C JUMP JUMPDEST PUSH1 0x40 MLOAD DUP1 SWAP2 SUB SWAP1 REVERT JUMPDEST ADDRESS PUSH20 0xFFFFFFFFFFFFFFFFFFFFFFFFFFFFFFFFFFFFFFFF AND DUP8 PUSH20 0xFFFFFFFFFFFFFFFFFFFFFFFFFFFFFFFFFFFFFFFF AND EQ PUSH2 0x5CC JUMPI PUSH1 0x40 MLOAD PUSH32 0x8C379A000000000000000000000000000000000000000000000000000000000 DUP2 MSTORE PUSH1 0x4 ADD PUSH2 0x5C3 SWAP1 PUSH2 0xD2C JUMP JUMPDEST PUSH1 0x40 MLOAD DUP1 SWAP2 SUB SWAP1 REVERT JUMPDEST PUSH1 0x0 DUP1 PUSH1 0x0 DUP1 DUP7 DUP7 DUP2 ADD SWAP1 PUSH2 0x5E1 SWAP2 SWAP1 PUSH2 0x986 JUMP JUMPDEST SWAP4 POP SWAP4 POP SWAP4 POP SWAP4 POP DUP10 PUSH20 0xFFFFFFFFFFFFFFFFFFFFFFFFFFFFFFFFFFFFFFFF AND DUP5 PUSH20 0xFFFFFFFFFFFFFFFFFFFFFFFFFFFFFFFFFFFFFFFF AND EQ PUSH2 0x657 JUMPI PUSH1 0x40 MLOAD PUSH32 0x8C379A000000000000000000000000000000000000000000000000000000000 DUP2 MSTORE PUSH1 0x4 ADD PUSH2 0x64E SWAP1 PUSH2 0xD4C JUMP JUMPDEST PUSH1 0x40 MLOAD DUP1 SWAP2 SUB SWAP1 REVERT JUMPDEST DUP9 DUP4 EQ PUSH2 0x699 JUMPI PUSH1 0x40 MLOAD PUSH32 0x8C379A000000000000000000000000000000000000000000000000000000000 DUP2 MSTORE PUSH1 0x4 ADD PUSH2 0x690 SWAP1 PUSH2 0xD6C JUMP JUMPDEST PUSH1 0x40 MLOAD DUP1 SWAP2 SUB SWAP1 REVERT JUMPDEST DUP10 PUSH20 0xFFFFFFFFFFFFFFFFFFFFFFFFFFFFFFFFFFFFFFFF AND PUSH4 0x95EA7B3 CALLER PUSH2 0x6C9 DUP12 DUP14 PUSH2 0x87A SWAP1 SWAP2 SWAP1 PUSH4 0xFFFFFFFF AND JUMP JUMPDEST PUSH1 0x40 MLOAD DUP4 PUSH4 0xFFFFFFFF AND PUSH1 0xE0 SHL DUP2 MSTORE PUSH1 0x4 ADD PUSH2 0x6E6 SWAP3 SWAP2 SWAP1 PUSH2 0xC37 JUMP JUMPDEST PUSH1 0x0 PUSH1 0x40 MLOAD DUP1 DUP4 SUB DUP2 PUSH1 0x0 DUP8 DUP1 EXTCODESIZE ISZERO DUP1 ISZERO PUSH2 0x700 JUMPI PUSH1 0x0 DUP1 REVERT JUMPDEST POP GAS CALL ISZERO DUP1 ISZERO PUSH2 0x714 JUMPI RETURNDATASIZE PUSH1 0x0 DUP1 RETURNDATACOPY RETURNDATASIZE PUSH1 0x0 REVERT JUMPDEST POP POP POP POP PUSH2 0x723 DUP3 DUP5 DUP4 PUSH2 0x890 JUMP JUMPDEST PUSH32 0x7968BA28153757DE2DA7BCE4C2BA9EBAF94445061F3050DE1B0DE5C34BB7D5D8 SWAP5 POP POP POP POP POP SWAP7 SWAP6 POP POP POP POP POP POP JUMP JUMPDEST PUSH1 0x3 PUSH1 0x0 SWAP1 SLOAD SWAP1 PUSH2 0x100 EXP SWAP1 DIV PUSH20 0xFFFFFFFFFFFFFFFFFFFFFFFFFFFFFFFFFFFFFFFF AND DUP2 JUMP JUMPDEST PUSH20 0x50B7545627A5162F82A992C33B87ADC75187B218 DUP2 JUMP JUMPDEST PUSH20 0xB31F66AA3C1E785363F0875A1B74E27B85FD66C7 DUP2 JUMP JUMPDEST PUSH1 0x0 DUP1 SLOAD SWAP1 PUSH2 0x100 EXP SWAP1 DIV PUSH20 0xFFFFFFFFFFFFFFFFFFFFFFFFFFFFFFFFFFFFFFFF AND DUP2 JUMP JUMPDEST PUSH20 0xC7198437980C041C805A1EDCBA50C1CE5DB95118 DUP2 JUMP JUMPDEST PUSH20 0x5947BB275C521040051D82396192181B413227A3 DUP2 JUMP JUMPDEST PUSH20 0x130966628846BFD36FF31A822705796E8CB8C18D DUP2 JUMP JUMPDEST PUSH1 0x2 PUSH1 0x0 SWAP1 SLOAD SWAP1 PUSH2 0x100 EXP SWAP1 DIV PUSH20 0xFFFFFFFFFFFFFFFFFFFFFFFFFFFFFFFFFFFFFFFF AND DUP2 JUMP JUMPDEST PUSH1 0x1 PUSH1 0x0 SWAP1 SLOAD SWAP1 PUSH2 0x100 EXP SWAP1 DIV PUSH20 0xFFFFFFFFFFFFFFFFFFFFFFFFFFFFFFFFFFFFFFFF AND DUP2 JUMP JUMPDEST PUSH20 0xD586E7F844CEA2F87F50152665BCBC2C279D8D70 DUP2 JUMP JUMPDEST PUSH1 0x0 DUP2 DUP4 PUSH2 0x888 SWAP2 SWAP1 PUSH2 0xDB9 JUMP JUMPDEST SWAP1 POP SWAP3 SWAP2 POP POP JUMP JUMPDEST POP POP POP JUMP JUMPDEST PUSH1 0x0 DUP2 CALLDATALOAD SWAP1 POP PUSH2 0x8A4 DUP2 PUSH2 0x1046 JUMP JUMPDEST SWAP3 SWAP2 POP POP JUMP JUMPDEST PUSH1 0x0 DUP2 MLOAD SWAP1 POP PUSH2 0x8B9 DUP2 PUSH2 0x1046 JUMP JUMPDEST SWAP3 SWAP2 POP POP JUMP JUMPDEST PUSH1 0x0 DUP2 CALLDATALOAD SWAP1 POP PUSH2 0x8CE DUP2 PUSH2 0x105D JUMP JUMPDEST SWAP3 SWAP2 POP POP JUMP JUMPDEST PUSH1 0x0 DUP2 CALLDATALOAD SWAP1 POP PUSH2 0x8E3 DUP2 PUSH2 0x1074 JUMP JUMPDEST SWAP3 SWAP2 POP POP JUMP JUMPDEST PUSH1 0x0 DUP2 MLOAD SWAP1 POP PUSH2 0x8F8 DUP2 PUSH2 0x1074 JUMP JUMPDEST SWAP3 SWAP2 POP POP JUMP JUMPDEST PUSH1 0x0 DUP1 DUP4 PUSH1 0x1F DUP5 ADD SLT PUSH2 0x910 JUMPI PUSH1 0x0 DUP1 REVERT JUMPDEST DUP3 CALLDATALOAD SWAP1 POP PUSH8 0xFFFFFFFFFFFFFFFF DUP2 GT ISZERO PUSH2 0x929 JUMPI PUSH1 0x0 DUP1 REVERT JUMPDEST PUSH1 0x20 DUP4 ADD SWAP2 POP DUP4 PUSH1 0x1 DUP3 MUL DUP4 ADD GT ISZERO PUSH2 0x941 JUMPI PUSH1 0x0 DUP1 REVERT JUMPDEST SWAP3 POP SWAP3 SWAP1 POP JUMP JUMPDEST PUSH1 0x0 DUP2 CALLDATALOAD SWAP1 POP PUSH2 0x957 DUP2 PUSH2 0x108B JUMP JUMPDEST SWAP3 SWAP2 POP POP JUMP JUMPDEST PUSH1 0x0 PUSH1 0x20 DUP3 DUP5 SUB SLT ISZERO PUSH2 0x96F JUMPI PUSH1 0x0 DUP1 REVERT JUMPDEST PUSH1 0x0 PUSH2 0x97D DUP5 DUP3 DUP6 ADD PUSH2 0x8AA JUMP JUMPDEST SWAP2 POP POP SWAP3 SWAP2 POP POP JUMP JUMPDEST PUSH1 0x0 DUP1 PUSH1 0x0 DUP1 PUSH1 0x80 DUP6 DUP8 SUB SLT ISZERO PUSH2 0x99C JUMPI PUSH1 0x0 DUP1 REVERT JUMPDEST PUSH1 0x0 PUSH2 0x9AA DUP8 DUP3 DUP9 ADD PUSH2 0x8BF JUMP JUMPDEST SWAP5 POP POP PUSH1 0x20 PUSH2 0x9BB DUP8 DUP3 DUP9 ADD PUSH2 0x948 JUMP JUMPDEST SWAP4 POP POP PUSH1 0x40 PUSH2 0x9CC DUP8 DUP3 DUP9 ADD PUSH2 0x8BF JUMP JUMPDEST SWAP3 POP POP PUSH1 0x60 PUSH2 0x9DD DUP8 DUP3 DUP9 ADD PUSH2 0x8BF JUMP JUMPDEST SWAP2 POP POP SWAP3 SWAP6 SWAP2 SWAP5 POP SWAP3 POP JUMP JUMPDEST PUSH1 0x0 DUP1 PUSH1 0x0 DUP1 PUSH1 0x0 PUSH1 0xA0 DUP7 DUP9 SUB SLT ISZERO PUSH2 0xA01 JUMPI PUSH1 0x0 DUP1 REVERT JUMPDEST PUSH1 0x0 PUSH2 0xA0F DUP9 DUP3 DUP10 ADD PUSH2 0x895 JUMP JUMPDEST SWAP6 POP POP PUSH1 0x20 PUSH2 0xA20 DUP9 DUP3 DUP10 ADD PUSH2 0x895 JUMP JUMPDEST SWAP5 POP POP PUSH1 0x40 PUSH2 0xA31 DUP9 DUP3 DUP10 ADD PUSH2 0x948 JUMP JUMPDEST SWAP4 POP POP PUSH1 0x60 PUSH2 0xA42 DUP9 DUP3 DUP10 ADD PUSH2 0x895 JUMP JUMPDEST SWAP3 POP POP PUSH1 0x80 PUSH2 0xA53 DUP9 DUP3 DUP10 ADD PUSH2 0x8D4 JUMP JUMPDEST SWAP2 POP POP SWAP3 SWAP6 POP SWAP3 SWAP6 SWAP1 SWAP4 POP JUMP JUMPDEST PUSH1 0x0 DUP1 PUSH1 0x0 DUP1 PUSH1 0x0 DUP1 PUSH1 0xA0 DUP8 DUP10 SUB SLT ISZERO PUSH2 0xA79 JUMPI PUSH1 0x0 DUP1 REVERT JUMPDEST PUSH1 0x0 PUSH2 0xA87 DUP10 DUP3 DUP11 ADD PUSH2 0x895 JUMP JUMPDEST SWAP7 POP POP PUSH1 0x20 PUSH2 0xA98 DUP10 DUP3 DUP11 ADD PUSH2 0x895 JUMP JUMPDEST SWAP6 POP POP PUSH1 0x40 PUSH2 0xAA9 DUP10 DUP3 DUP11 ADD PUSH2 0x948 JUMP JUMPDEST SWAP5 POP POP PUSH1 0x60 PUSH2 0xABA DUP10 DUP3 DUP11 ADD PUSH2 0x948 JUMP JUMPDEST SWAP4 POP POP PUSH1 0x80 DUP8 ADD CALLDATALOAD PUSH8 0xFFFFFFFFFFFFFFFF DUP2 GT ISZERO PUSH2 0xAD7 JUMPI PUSH1 0x0 DUP1 REVERT JUMPDEST PUSH2 0xAE3 DUP10 DUP3 DUP11 ADD PUSH2 0x8FE JUMP JUMPDEST SWAP3 POP SWAP3 POP POP SWAP3 SWAP6 POP SWAP3 SWAP6 POP SWAP3 SWAP6 JUMP JUMPDEST PUSH1 0x0 PUSH1 0x20 DUP3 DUP5 SUB SLT ISZERO PUSH2 0xB04 JUMPI PUSH1 0x0 DUP1 REVERT JUMPDEST PUSH1 0x0 PUSH2 0xB12 DUP5 DUP3 DUP6 ADD PUSH2 0x8E9 JUMP JUMPDEST SWAP2 POP POP SWAP3 SWAP2 POP POP JUMP JUMPDEST PUSH2 0xB24 DUP2 PUSH2 0xE0F JUMP JUMPDEST DUP3 MSTORE POP POP JUMP JUMPDEST PUSH2 0xB33 DUP2 PUSH2 0xE3F JUMP JUMPDEST DUP3 MSTORE POP POP JUMP JUMPDEST PUSH1 0x0 PUSH2 0xB44 DUP3 PUSH2 0xD8C JUMP JUMPDEST PUSH2 0xB4E DUP2 DUP6 PUSH2 0xD97 JUMP JUMPDEST SWAP4 POP PUSH2 0xB5E DUP2 DUP6 PUSH1 0x20 DUP7 ADD PUSH2 0xE97 JUMP JUMPDEST PUSH2 0xB67 DUP2 PUSH2 0xEF9 JUMP JUMPDEST DUP5 ADD SWAP2 POP POP SWAP3 SWAP2 POP POP JUMP JUMPDEST PUSH2 0xB7B DUP2 PUSH2 0xE73 JUMP JUMPDEST DUP3 MSTORE POP POP JUMP JUMPDEST PUSH1 0x0 PUSH2 0xB8E PUSH1 0x27 DUP4 PUSH2 0xDA8 JUMP JUMPDEST SWAP2 POP PUSH2 0xB99 DUP3 PUSH2 0xF0A JUMP JUMPDEST PUSH1 0x40 DUP3 ADD SWAP1 POP SWAP2 SWAP1 POP JUMP JUMPDEST PUSH1 0x0 PUSH2 0xBB1 PUSH1 0x27 DUP4 PUSH2 0xDA8 JUMP JUMPDEST SWAP2 POP PUSH2 0xBBC DUP3 PUSH2 0xF59 JUMP JUMPDEST PUSH1 0x40 DUP3 ADD SWAP1 POP SWAP2 SWAP1 POP JUMP JUMPDEST PUSH1 0x0 PUSH2 0xBD4 PUSH1 0x38 DUP4 PUSH2 0xDA8 JUMP JUMPDEST SWAP2 POP PUSH2 0xBDF DUP3 PUSH2 0xFA8 JUMP JUMPDEST PUSH1 0x40 DUP3 ADD SWAP1 POP SWAP2 SWAP1 POP JUMP JUMPDEST PUSH1 0x0 PUSH2 0xBF7 PUSH1 0x39 DUP4 PUSH2 0xDA8 JUMP JUMPDEST SWAP2 POP PUSH2 0xC02 DUP3 PUSH2 0xFF7 JUMP JUMPDEST PUSH1 0x40 DUP3 ADD SWAP1 POP SWAP2 SWAP1 POP JUMP JUMPDEST PUSH2 0xC16 DUP2 PUSH2 0xE69 JUMP JUMPDEST DUP3 MSTORE POP POP JUMP JUMPDEST PUSH1 0x0 PUSH1 0x20 DUP3 ADD SWAP1 POP PUSH2 0xC31 PUSH1 0x0 DUP4 ADD DUP5 PUSH2 0xB1B JUMP JUMPDEST SWAP3 SWAP2 POP POP JUMP JUMPDEST PUSH1 0x0 PUSH1 0x40 DUP3 ADD SWAP1 POP PUSH2 0xC4C PUSH1 0x0 DUP4 ADD DUP6 PUSH2 0xB1B JUMP JUMPDEST PUSH2 0xC59 PUSH1 0x20 DUP4 ADD DUP5 PUSH2 0xC0D JUMP JUMPDEST SWAP4 SWAP3 POP POP POP JUMP JUMPDEST PUSH1 0x0 PUSH1 0x80 DUP3 ADD SWAP1 POP PUSH2 0xC75 PUSH1 0x0 DUP4 ADD DUP8 PUSH2 0xB1B JUMP JUMPDEST PUSH2 0xC82 PUSH1 0x20 DUP4 ADD DUP7 PUSH2 0xC0D JUMP JUMPDEST PUSH2 0xC8F PUSH1 0x40 DUP4 ADD DUP6 PUSH2 0xB1B JUMP JUMPDEST PUSH2 0xC9C PUSH1 0x60 DUP4 ADD DUP5 PUSH2 0xB1B JUMP JUMPDEST SWAP6 SWAP5 POP POP POP POP POP JUMP JUMPDEST PUSH1 0x0 PUSH1 0x20 DUP3 ADD SWAP1 POP PUSH2 0xCBA PUSH1 0x0 DUP4 ADD DUP5 PUSH2 0xB2A JUMP JUMPDEST SWAP3 SWAP2 POP POP JUMP JUMPDEST PUSH1 0x0 PUSH1 0x80 DUP3 ADD SWAP1 POP PUSH2 0xCD5 PUSH1 0x0 DUP4 ADD DUP8 PUSH2 0xB72 JUMP JUMPDEST PUSH2 0xCE2 PUSH1 0x20 DUP4 ADD DUP7 PUSH2 0xB1B JUMP JUMPDEST PUSH2 0xCEF PUSH1 0x40 DUP4 ADD DUP6 PUSH2 0xC0D JUMP JUMPDEST DUP2 DUP2 SUB PUSH1 0x60 DUP4 ADD MSTORE PUSH2 0xD01 DUP2 DUP5 PUSH2 0xB39 JUMP JUMPDEST SWAP1 POP SWAP6 SWAP5 POP POP POP POP POP JUMP JUMPDEST PUSH1 0x0 PUSH1 0x20 DUP3 ADD SWAP1 POP DUP2 DUP2 SUB PUSH1 0x0 DUP4 ADD MSTORE PUSH2 0xD25 DUP2 PUSH2 0xB81 JUMP JUMPDEST SWAP1 POP SWAP2 SWAP1 POP JUMP JUMPDEST PUSH1 0x0 PUSH1 0x20 DUP3 ADD SWAP1 POP DUP2 DUP2 SUB PUSH1 0x0 DUP4 ADD MSTORE PUSH2 0xD45 DUP2 PUSH2 0xBA4 JUMP JUMPDEST SWAP1 POP SWAP2 SWAP1 POP JUMP JUMPDEST PUSH1 0x0 PUSH1 0x20 DUP3 ADD SWAP1 POP DUP2 DUP2 SUB PUSH1 0x0 DUP4 ADD MSTORE PUSH2 0xD65 DUP2 PUSH2 0xBC7 JUMP JUMPDEST SWAP1 POP SWAP2 SWAP1 POP JUMP JUMPDEST PUSH1 0x0 PUSH1 0x20 DUP3 ADD SWAP1 POP DUP2 DUP2 SUB PUSH1 0x0 DUP4 ADD MSTORE PUSH2 0xD85 DUP2 PUSH2 0xBEA JUMP JUMPDEST SWAP1 POP SWAP2 SWAP1 POP JUMP JUMPDEST PUSH1 0x0 DUP2 MLOAD SWAP1 POP SWAP2 SWAP1 POP JUMP JUMPDEST PUSH1 0x0 DUP3 DUP3 MSTORE PUSH1 0x20 DUP3 ADD SWAP1 POP SWAP3 SWAP2 POP POP JUMP JUMPDEST PUSH1 0x0 DUP3 DUP3 MSTORE PUSH1 0x20 DUP3 ADD SWAP1 POP SWAP3 SWAP2 POP POP JUMP JUMPDEST PUSH1 0x0 PUSH2 0xDC4 DUP3 PUSH2 0xE69 JUMP JUMPDEST SWAP2 POP PUSH2 0xDCF DUP4 PUSH2 0xE69 JUMP JUMPDEST SWAP3 POP DUP3 PUSH32 0xFFFFFFFFFFFFFFFFFFFFFFFFFFFFFFFFFFFFFFFFFFFFFFFFFFFFFFFFFFFFFFFF SUB DUP3 GT ISZERO PUSH2 0xE04 JUMPI PUSH2 0xE03 PUSH2 0xECA JUMP JUMPDEST JUMPDEST DUP3 DUP3 ADD SWAP1 POP SWAP3 SWAP2 POP POP JUMP JUMPDEST PUSH1 0x0 PUSH2 0xE1A DUP3 PUSH2 0xE49 JUMP JUMPDEST SWAP1 POP SWAP2 SWAP1 POP JUMP JUMPDEST PUSH1 0x0 PUSH2 0xE2C DUP3 PUSH2 0xE49 JUMP JUMPDEST SWAP1 POP SWAP2 SWAP1 POP JUMP JUMPDEST PUSH1 0x0 DUP2 ISZERO ISZERO SWAP1 POP SWAP2 SWAP1 POP JUMP JUMPDEST PUSH1 0x0 DUP2 SWAP1 POP SWAP2 SWAP1 POP JUMP JUMPDEST PUSH1 0x0 PUSH20 0xFFFFFFFFFFFFFFFFFFFFFFFFFFFFFFFFFFFFFFFF DUP3 AND SWAP1 POP SWAP2 SWAP1 POP JUMP JUMPDEST PUSH1 0x0 DUP2 SWAP1 POP SWAP2 SWAP1 POP JUMP JUMPDEST PUSH1 0x0 PUSH2 0xE7E DUP3 PUSH2 0xE85 JUMP JUMPDEST SWAP1 POP SWAP2 SWAP1 POP JUMP JUMPDEST PUSH1 0x0 PUSH2 0xE90 DUP3 PUSH2 0xE49 JUMP JUMPDEST SWAP1 POP SWAP2 SWAP1 POP JUMP JUMPDEST PUSH1 0x0 JUMPDEST DUP4 DUP2 LT ISZERO PUSH2 0xEB5 JUMPI DUP1 DUP3 ADD MLOAD DUP2 DUP5 ADD MSTORE PUSH1 0x20 DUP2 ADD SWAP1 POP PUSH2 0xE9A JUMP JUMPDEST DUP4 DUP2 GT ISZERO PUSH2 0xEC4 JUMPI PUSH1 0x0 DUP5 DUP5 ADD MSTORE JUMPDEST POP POP POP POP JUMP JUMPDEST PUSH32 0x4E487B7100000000000000000000000000000000000000000000000000000000 PUSH1 0x0 MSTORE PUSH1 0x11 PUSH1 0x4 MSTORE PUSH1 0x24 PUSH1 0x0 REVERT JUMPDEST PUSH1 0x0 PUSH1 0x1F NOT PUSH1 0x1F DUP4 ADD AND SWAP1 POP SWAP2 SWAP1 POP JUMP JUMPDEST PUSH32 0x4A6F654C697175696461746F723A20556E74727573746564206D657373616765 PUSH1 0x0 DUP3 ADD MSTORE PUSH32 0x2073656E64657200000000000000000000000000000000000000000000000000 PUSH1 0x20 DUP3 ADD MSTORE POP JUMP JUMPDEST PUSH32 0x4A6F654C697175696461746F723A20556E74727573746564206C6F616E20696E PUSH1 0x0 DUP3 ADD MSTORE PUSH32 0x69746961746F7200000000000000000000000000000000000000000000000000 PUSH1 0x20 DUP3 ADD MSTORE POP JUMP JUMPDEST PUSH32 0x4A6F654C697175696461746F723A20456E636F64656420646174612028626F72 PUSH1 0x0 DUP3 ADD MSTORE PUSH32 0x726F77546F6B656E2920646F6573206E6F74206D617463680000000000000000 PUSH1 0x20 DUP3 ADD MSTORE POP JUMP JUMPDEST PUSH32 0x4A6F654C697175696461746F723A20456E636F64656420646174612028626F72 PUSH1 0x0 DUP3 ADD MSTORE PUSH32 0x726F77416D6F756E742920646F6573206E6F74206D6174636800000000000000 PUSH1 0x20 DUP3 ADD MSTORE POP JUMP JUMPDEST PUSH2 0x104F DUP2 PUSH2 0xE0F JUMP JUMPDEST DUP2 EQ PUSH2 0x105A JUMPI PUSH1 0x0 DUP1 REVERT JUMPDEST POP JUMP JUMPDEST PUSH2 0x1066 DUP2 PUSH2 0xE21 JUMP JUMPDEST DUP2 EQ PUSH2 0x1071 JUMPI PUSH1 0x0 DUP1 REVERT JUMPDEST POP JUMP JUMPDEST PUSH2 0x107D DUP2 PUSH2 0xE33 JUMP JUMPDEST DUP2 EQ PUSH2 0x1088 JUMPI PUSH1 0x0 DUP1 REVERT JUMPDEST POP JUMP JUMPDEST PUSH2 0x1094 DUP2 PUSH2 0xE69 JUMP JUMPDEST DUP2 EQ PUSH2 0x109F JUMPI PUSH1 0x0 DUP1 REVERT JUMPDEST POP JUMP INVALID LOG2 PUSH5 0x6970667358 0x22 SLT KECCAK256 REVERT LOG0 RETURN PUSH30 0xF79F0B40FDD9AFFF9BC58AEB4C3450E1C6501A3BECF958F5FB3EB43A6473 PUSH16 0x6C634300080400330000000000000000 "
        },
        "methodIdentifiers": {
          "DAIE()": "f4a83616",
          "LINKE()": "c2776d6f",
          "MIM()": "daec383d",
          "USDCE()": "195187e1",
          "USDTE()": "974ab80e",
          "WAVAX()": "73b295c2",
          "WBTCE()": "5b189e2d",
          "WETHE()": "11897d46",
          "doFlashloan(address,address,uint256,address,bool)": "0902c43a",
          "jUSDCEAddress()": "df403b2d",
          "jWETHEAddress()": "4350b345",
          "joeRouter02Address()": "e62fbf6a",
          "joetrollerAddress()": "897857b8",
          "onFlashLoan(address,address,uint256,uint256,bytes)": "23e30c8b"
        }
      }
    }
  }
}