{
  "_format": "hh-sol-artifact-1",
  "contractName": "JoeLiquidator",
  "sourceName": "contracts/JoeLiquidator.sol",
  "abi": [
    {
      "inputs": [
        {
          "internalType": "address",
          "name": "_joetrollerAddress",
          "type": "address"
        },
        {
          "internalType": "address",
          "name": "_joeRouter02Address",
          "type": "address"
        },
        {
          "internalType": "address",
          "name": "_jUSDCAddress",
          "type": "address"
        },
        {
          "internalType": "address",
          "name": "_jWETHAddress",
          "type": "address"
        }
      ],
      "stateMutability": "nonpayable",
      "type": "constructor"
    },
    {
      "anonymous": false,
      "inputs": [
        {
          "indexed": true,
          "internalType": "address",
          "name": "_borrowerLiquidated",
          "type": "address"
        },
        {
          "indexed": false,
          "internalType": "address",
          "name": "_jRepayToken",
          "type": "address"
        },
        {
          "indexed": false,
          "internalType": "address",
          "name": "_jSeizeToken",
          "type": "address"
        },
        {
          "indexed": false,
          "internalType": "uint256",
          "name": "_repayAmount",
          "type": "uint256"
        },
        {
          "indexed": false,
          "internalType": "uint256",
          "name": "_profitedAVAX",
          "type": "uint256"
        }
      ],
      "name": "LiquidationEvent",
      "type": "event"
    },
    {
      "inputs": [],
      "name": "USDC",
      "outputs": [
        {
          "internalType": "address",
          "name": "",
          "type": "address"
        }
      ],
      "stateMutability": "view",
      "type": "function"
    },
    {
      "inputs": [],
      "name": "WAVAX",
      "outputs": [
        {
          "internalType": "address",
          "name": "",
          "type": "address"
        }
      ],
      "stateMutability": "view",
      "type": "function"
    },
    {
      "inputs": [],
      "name": "WETH",
      "outputs": [
        {
          "internalType": "address",
          "name": "",
          "type": "address"
        }
      ],
      "stateMutability": "view",
      "type": "function"
    },
    {
      "inputs": [],
      "name": "jUSDCAddress",
      "outputs": [
        {
          "internalType": "address",
          "name": "",
          "type": "address"
        }
      ],
      "stateMutability": "view",
      "type": "function"
    },
    {
      "inputs": [],
      "name": "jWETHAddress",
      "outputs": [
        {
          "internalType": "address",
          "name": "",
          "type": "address"
        }
      ],
      "stateMutability": "view",
      "type": "function"
    },
    {
      "inputs": [],
      "name": "joeRouter02Address",
      "outputs": [
        {
          "internalType": "address",
          "name": "",
          "type": "address"
        }
      ],
      "stateMutability": "view",
      "type": "function"
    },
    {
      "inputs": [],
      "name": "joetrollerAddress",
      "outputs": [
        {
          "internalType": "address",
          "name": "",
          "type": "address"
        }
      ],
      "stateMutability": "view",
      "type": "function"
    },
    {
      "inputs": [
        {
          "internalType": "address",
          "name": "_borrowerToLiquidate",
          "type": "address"
        },
        {
          "internalType": "address",
          "name": "_jRepayTokenAddress",
          "type": "address"
        },
        {
          "internalType": "address",
          "name": "_jSeizeTokenAddress",
          "type": "address"
        }
      ],
      "name": "liquidate",
      "outputs": [],
      "stateMutability": "nonpayable",
      "type": "function"
    },
    {
      "inputs": [
        {
          "internalType": "address",
          "name": "_initiator",
          "type": "address"
        },
        {
          "internalType": "address",
          "name": "_flashLoanTokenAddress",
          "type": "address"
        },
        {
          "internalType": "uint256",
          "name": "_flashLoanAmount",
          "type": "uint256"
        },
        {
          "internalType": "uint256",
          "name": "_flashLoanFee",
          "type": "uint256"
        },
        {
          "internalType": "bytes",
          "name": "_data",
          "type": "bytes"
        }
      ],
      "name": "onFlashLoan",
      "outputs": [
        {
          "internalType": "bytes32",
          "name": "",
          "type": "bytes32"
        }
      ],
      "stateMutability": "nonpayable",
      "type": "function"
    },
    {
      "stateMutability": "payable",
      "type": "receive"
    }
  ],
  "bytecode": "0x60806040523480156200001157600080fd5b50604051620040d6380380620040d68339810160408190526200003491620000a5565b600080546001600160a01b039586166001600160a01b031991821617909155600180549486169482169490941790935560028054928516928416929092179091556003805491909316911617905562000101565b80516001600160a01b0381168114620000a057600080fd5b919050565b60008060008060808587031215620000bb578384fd5b620000c68562000088565b9350620000d66020860162000088565b9250620000e66040860162000088565b9150620000f66060860162000088565b905092959194509250565b613fc580620001116000396000f3fe60806040526004361061008a5760003560e01c806389a302711161005957806389a3027114610149578063ad5c464814610171578063c62d275114610199578063ca5ce2ec146101b9578063e62fbf6a146101db57600080fd5b8063218377a01461009657806323e30c8b146100d357806373b295c214610101578063897857b81461012957600080fd5b3661009157005b600080fd5b3480156100a257600080fd5b506003546100b6906001600160a01b031681565b6040516001600160a01b0390911681526020015b60405180910390f35b3480156100df57600080fd5b506100f36100ee366004613259565b6101fb565b6040519081526020016100ca565b34801561010d57600080fd5b506100b673b31f66aa3c1e785363f0875a1b74e27b85fd66c781565b34801561013557600080fd5b506000546100b6906001600160a01b031681565b34801561015557600080fd5b506100b673a7d7079b0fead91f3e65f86e8915cb59c1a4c66481565b34801561017d57600080fd5b506100b67349d5c2bdffac6ce2bfdb6640f4f80f226bc10bab81565b3480156101a557600080fd5b506002546100b6906001600160a01b031681565b3480156101c557600080fd5b506101d96101d436600461320f565b6104e7565b005b3480156101e757600080fd5b506001546100b6906001600160a01b031681565b60008054604051633d98a1e560e01b81523360048201526001600160a01b0390911690633d98a1e59060240160206040518083038186803b15801561023f57600080fd5b505afa158015610253573d6000803e3d6000fd5b505050506040513d601f19601f8201168201806040525081019061027791906133be565b6102ee5760405162461bcd60e51b815260206004820152603b60248201527f4a6f654c697175696461746f723a20556e74727573746564206d65737361676560448201527f2073656e6465722063616c6c696e67206f6e466c6173684c6f616e000000000060648201526084015b60405180910390fd5b61030f6040518060600160405280602a8152602001613746602a91396106e9565b6103183361072f565b6103396040518060600160405280603081526020016137a2603091396106e9565b6103428661072f565b60006103518888888787610777565b9050600061035f8787610975565b90506000826000015190506103ec8989836001600160a01b0316636f307dc36040518163ffffffff1660e01b8152600401602060405180830381600087803b1580156103aa57600080fd5b505af11580156103be573d6000803e3d6000fd5b505050506040513d601f19601f820116820180604052508101906103e29190613171565b866060015161098a565b61040481846040015185606001518660200151610cf6565b610411836020015161162f565b61042083602001518a8461190a565b60006104308b8560200151611e44565b905083604001516001600160a01b03167f1683d07b2bca5806ccc25a2d5ecdad3343784e4ed273236e2a53890b4f1d95a6856000015186602001518760600151856040516104a594939291906001600160a01b0394851681529290931660208301526040820152606081019190915260800190565b60405180910390a26104b78a84612350565b507f7968ba28153757de2da7bce4c2ba9ebaf94445061f3050de1b0de5c34bb7d5d89a9950505050505050505050565b60008054604051635ec88c7960e01b81526001600160a01b0380871660048301528693928392911690635ec88c799060240160606040518083038186803b15801561053157600080fd5b505afa158015610545573d6000803e3d6000fd5b505050506040513d601f19601f8201168201806040525081019061056991906133f6565b92509250506105916040518060800160405280605b8152602001613ef6605b91398383612445565b61059a8361072f565b811561060e5760405162461bcd60e51b815260206004820152603f60248201527f4a6f654c697175696461746f723a2043616e6e6f74206c69717569646174652060448201527f6163636f756e742077697468206e6f6e2d7a65726f206c69717569646974790060648201526084016102e5565b806106815760405162461bcd60e51b815260206004820152603b60248201527f4a6f654c697175696461746f723a2043616e6e6f74206c69717569646174652060448201527f6163636f756e742077697468207a65726f2073686f727466616c6c000000000060648201526084016102e5565b6106a26040518060600160405280602c8152602001613c0e602c91396106e9565b60006106af878787612491565b90506106d46040518060600160405280603e8152602001613c3a603e91398288612971565b6106e0878787846129b8565b50505050505050565b61072c816040516024016106fd91906134ee565b60408051601f198184030181529190526020810180516001600160e01b031663104c13eb60e21b179052612bc8565b50565b6040516001600160a01b038216602482015261072c9060440160408051601f198184030181529190526020810180516001600160e01b031663161765e160e11b179052612bc8565b6040805160808101825260008082526020820181905291810182905260608101829052908080808080806107ad8a8a018b61318d565b9650965096509650965096509650866001600160a01b03168d6001600160a01b03161461082c5760405162461bcd60e51b815260206004820152602760248201527f4a6f654c697175696461746f723a20556e74727573746564206c6f616e20696e60448201526634ba34b0ba37b960c91b60648201526084016102e5565b826001600160a01b03168c6001600160a01b0316146108c15760405162461bcd60e51b8152602060048201526044602482018190527f4a6f654c697175696461746f723a20456e636f64656420646174612028666c61908201527f73684c6f616e6564546f6b656e416464726573732920646f6573206e6f74206d6064820152630c2e8c6d60e31b608482015260a4016102e5565b818b146109365760405162461bcd60e51b815260206004820152603c60248201527f4a6f654c697175696461746f723a20456e636f64656420646174612028666c6160448201527f73684c6f616e416d6f756e742920646f6573206e6f74206d617463680000000060648201526084016102e5565b604080516080810182526001600160a01b0396871681529486166020860152959094169483019490945250606081019190915298975050505050505050565b600061098182846136ad565b90505b92915050565b6109ad604051806080016040528060528152602001613e6c605291398483612445565b60015460405163095ea7b360e01b81526001600160a01b039182166004820152602481018590529085169063095ea7b390604401600060405180830381600087803b1580156109fb57600080fd5b505af1158015610a0f573d6000803e3d6000fd5b506000925060029150610a1f9050565b604051908082528060200260200182016040528015610a48578160200160208202803683370190505b5090508481600081518110610a6d57634e487b7160e01b600052603260045260246000fd5b60200260200101906001600160a01b031690816001600160a01b0316815250508281600181518110610aaf57634e487b7160e01b600052603260045260246000fd5b60200260200101906001600160a01b031690816001600160a01b0316815250506000610adb8583612be9565b9050610b506040518060600160405280603f8152602001613f51603f913982600081518110610b1a57634e487b7160e01b600052603260045260246000fd5b602002602001015183600181518110610b4357634e487b7160e01b600052603260045260246000fd5b6020026020010151612445565b610b598661072f565b610b628461072f565b6001600160a01b03841673b31f66aa3c1e785363f0875a1b74e27b85fd66c7148015610c3d57610ba960405180608001604052806041815260200161393b604191396106e9565b60015460405163676528d160e01b81526001600160a01b039091169063676528d190610be19089908890889030904290600401613671565b600060405180830381600087803b158015610bfb57600080fd5b505af1158015610c0f573d6000803e3d6000fd5b505050506040513d6000823e601f3d908101601f19168201604052610c3791908101906132fe565b506106e0565b610c5e604051806080016040528060428152602001613d13604291396106e9565b6001546040516338ed173960e01b81526001600160a01b03909116906338ed173990610c969089908890889030904290600401613671565b600060405180830381600087803b158015610cb057600080fd5b505af1158015610cc4573d6000803e3d6000fd5b505050506040513d6000823e601f3d908101601f19168201604052610cec91908101906132fe565b5050505050505050565b600073b31f66aa3c1e785363f0875a1b74e27b85fd66c76001600160a01b0316856001600160a01b0316636f307dc36040518163ffffffff1660e01b8152600401602060405180830381600087803b158015610d5157600080fd5b505af1158015610d65573d6000803e3d6000fd5b505050506040513d601f19601f82011682018060405250810190610d899190613171565b6001600160a01b0316149050610dfb6040518060600160405280603e8152602001613dc7603e913982610dd9576040518060400160405280600581526020016466616c736560d81b815250612c70565b604051806040016040528060048152602001637472756560e01b815250612c70565b600081610ef357856001600160a01b0316636f307dc36040518163ffffffff1660e01b8152600401602060405180830381600087803b158015610e3d57600080fd5b505af1158015610e51573d6000803e3d6000fd5b505050506040513d601f19601f82011682018060405250810190610e759190613171565b6040516370a0823160e01b81523060048201526001600160a01b0391909116906370a082319060240160206040518083038186803b158015610eb657600080fd5b505afa158015610eca573d6000803e3d6000fd5b505050506040513d601f19601f82011682018060405250810190610eee91906133de565b610ef5565b475b9050610f1a604051806080016040528060578152602001613c78605791398286612445565b83811015610fb65760405162461bcd60e51b815260206004820152605b60248201527f4a6f654c697175696461746f723a20457870656374656420746f20686176652060448201527f656e6f75676820756e6465726c79696e6720726570617920746f6b656e20746f60648201527f206c697175696461746520626f72726f7720706f736974696f6e2e0000000000608482015260a4016102e5565b610fd86040518060800160405280604781526020016137d26047913982612cb9565b611053866001600160a01b0316636f307dc36040518163ffffffff1660e01b8152600401602060405180830381600087803b15801561101657600080fd5b505af115801561102a573d6000803e3d6000fd5b505050506040513d601f19601f8201168201806040525081019061104e9190613171565b61072f565b6000821561140e5760008054604051632fe3f38f60e11b81526001600160a01b038a81166004830152878116602483015230604483015289811660648301526084820189905290911690635fc7e71e9060a401602060405180830381600087803b1580156110c057600080fd5b505af11580156110d4573d6000803e3d6000fd5b505050506040513d601f19601f820116820180604052508101906110f891906133de565b905061111c6040518060600160405280603581526020016138c16035913982612cb9565b60008054604051635ec88c7960e01b81526001600160a01b038a8116600483015283921690635ec88c799060240160606040518083038186803b15801561116257600080fd5b505afa158015611176573d6000803e3d6000fd5b505050506040513d601f19601f8201168201806040525081019061119a91906133f6565b92505091506111c26040518060800160405280604a8152602001613b6d604a91398284612445565b60008054604051631200453160e11b81526001600160a01b038d811660048301523060248301528c81166044830152606482018c9052909116906324008a6290608401602060405180830381600087803b15801561121f57600080fd5b505af1158015611233573d6000803e3d6000fd5b505050506040513d601f19601f8201168201806040525081019061125791906133de565b905061127b6040518060600160405280603281526020016137706032913982612cb9565b6000886001600160a01b031663cfa992016040518163ffffffff1660e01b815260040160206040518083038186803b1580156112b657600080fd5b505afa1580156112ca573d6000803e3d6000fd5b505050506040513d601f19601f820116820180604052508101906112ee91906133de565b9050600042905061131860405180608001604052806057815260200161386a605791398383612445565b611339604051806060016040528060388152602001613ebe603891396106e9565b61136a6040518060400160405280600f81526020016e1c995c185e505b5bdd5b9d0e880959608a1b8152508c612cb9565b6113738c61072f565b61137c8a61072f565b604051630a45c9e960e21b81526001600160a01b038d811660048301528b811660248301528e169063291727a4908d906044016020604051808303818588803b1580156113c857600080fd5b505af11580156113dc573d6000803e3d6000fd5b50505050506040513d601f19601f8201168201806040525081019061140191906133de565b9650505050505050611593565b61142f604051806060016040528060338152602001613a51603391396106e9565b866001600160a01b0316636f307dc36040518163ffffffff1660e01b8152600401602060405180830381600087803b15801561146a57600080fd5b505af115801561147e573d6000803e3d6000fd5b505050506040513d601f19601f820116820180604052508101906114a29190613171565b60405163095ea7b360e01b81526001600160a01b03898116600483015260248201889052919091169063095ea7b390604401600060405180830381600087803b1580156114ee57600080fd5b505af1158015611502573d6000803e3d6000fd5b5050604051637af1e23160e11b81526001600160a01b0389811660048301526024820189905287811660448301528a16925063f5e3c4629150606401602060405180830381600087803b15801561155857600080fd5b505af115801561156c573d6000803e3d6000fd5b505050506040513d601f19601f8201168201806040525081019061159091906133de565b90505b80156115bb576115bb604051806080016040528060458152602001613aef6045913982612cb9565b80156106e05760405162461bcd60e51b815260206004820152603760248201527f4a6f654c697175696461746f723a204572726f72206f6363757272656420747260448201527f79696e6720746f206c6971756964617465426f72726f7700000000000000000060648201526084016102e5565b6040516370a0823160e01b81523060048201526000906001600160a01b038316906370a082319060240160206040518083038186803b15801561167157600080fd5b505afa158015611685573d6000803e3d6000fd5b505050506040513d601f19601f820116820180604052508101906116a991906133de565b90506000829050600073b31f66aa3c1e785363f0875a1b74e27b85fd66c76001600160a01b0316826001600160a01b0316636f307dc36040518163ffffffff1660e01b8152600401602060405180830381600087803b15801561170b57600080fd5b505af115801561171f573d6000803e3d6000fd5b505050506040513d601f19601f820116820180604052508101906117439190613171565b6001600160a01b0316149050600081156117d857604051634bf03edf60e01b8152600481018590526001600160a01b03861690634bf03edf90602401602060405180830381600087803b15801561179957600080fd5b505af11580156117ad573d6000803e3d6000fd5b505050506040513d601f19601f820116820180604052508101906117d191906133de565b9050611855565b60405163db006a7560e01b8152600481018590526001600160a01b0384169063db006a7590602401602060405180830381600087803b15801561181a57600080fd5b505af115801561182e573d6000803e3d6000fd5b505050506040513d601f19601f8201168201806040525081019061185291906133de565b90505b80156118d85760405162461bcd60e51b815260206004820152604660248201527f4a6f654c697175696461746f723a204572726f72206f6363757272656420747260448201527f79696e6720746f2072656465656d20756e6465726c79696e67207365697a6520606482015265746f6b656e7360d01b608482015260a4016102e5565b6118fa604051806080016040528060438152602001613aac6043913985612cb9565b6119038561072f565b5050505050565b61192c604051806080016040528060578152602001613bb76057913982612cb9565b60008390506000816001600160a01b0316636f307dc36040518163ffffffff1660e01b8152600401602060405180830381600087803b15801561196e57600080fd5b505af1158015611982573d6000803e3d6000fd5b505050506040513d601f19601f820116820180604052508101906119a69190613171565b604080516002808252606082018352929350600092909160208301908036833701905050905081816000815181106119ee57634e487b7160e01b600052603260045260246000fd5b60200260200101906001600160a01b031690816001600160a01b0316815250508481600181518110611a3057634e487b7160e01b600052603260045260246000fd5b60200260200101906001600160a01b031690816001600160a01b031681525050611a71604051806080016040528060448152602001613ccf604491396106e9565b611a7a8261072f565b611a838561072f565b6001546040516307c0329d60e21b81526000916001600160a01b031690631f00ca7490611ab69088908690600401613623565b60006040518083038186803b158015611ace57600080fd5b505afa158015611ae2573d6000803e3d6000fd5b505050506040513d6000823e601f3d908101601f19168201604052611b0a91908101906132fe565b600081518110611b2a57634e487b7160e01b600052603260045260246000fd5b60200260200101519050611b566040518060800160405280604581526020016139ae6045913982612cb9565b6001600160a01b03831673b31f66aa3c1e785363f0875a1b74e27b85fd66c7148015611c105760015460405163a2a1623d60e01b81526001600160a01b039091169063a2a1623d908490611bb4908a9088903090429060040161363c565b6000604051808303818588803b158015611bcd57600080fd5b505af1158015611be1573d6000803e3d6000fd5b50505050506040513d6000823e601f3d908101601f19168201604052611c0a91908101906132fe565b50611da0565b60015460405163095ea7b360e01b81526001600160a01b03918216600482015260248101849052859182169063095ea7b390604401600060405180830381600087803b158015611c5f57600080fd5b505af1158015611c73573d6000803e3d6000fd5b50505050611d0f604051806060016040528060398152602001613b34603991396040516370a0823160e01b81523060048201526001600160a01b038416906370a082319060240160206040518083038186803b158015611cd257600080fd5b505afa158015611ce6573d6000803e3d6000fd5b505050506040513d601f19601f82011682018060405250810190611d0a91906133de565b612cb9565b6001546040516338ed173960e01b81526001600160a01b03909116906338ed173990611d479086908b90899030904290600401613671565b600060405180830381600087803b158015611d6157600080fd5b505af1158015611d75573d6000803e3d6000fd5b505050506040513d6000823e601f3d908101601f19168201604052611d9d91908101906132fe565b50505b6040516370a0823160e01b8152306004820152879087906001600160a01b038316906370a082319060240160206040518083038186803b158015611de357600080fd5b505afa158015611df7573d6000803e3d6000fd5b505050506040513d601f19601f82011682018060405250810190611e1b91906133de565b1015611e395760405162461bcd60e51b81526004016102e5906135a0565b505050505050505050565b6000808290506000816001600160a01b0316636f307dc36040518163ffffffff1660e01b8152600401602060405180830381600087803b158015611e8757600080fd5b505af1158015611e9b573d6000803e3d6000fd5b505050506040513d601f19601f82011682018060405250810190611ebf9190613171565b90506001600160a01b03811673b31f66aa3c1e785363f0875a1b74e27b85fd66c7148015611fbc5760405147906000906001600160a01b0389169083908381818185875af1925050503d8060008114611f34576040519150601f19603f3d011682016040523d82523d6000602084013e611f39565b606091505b5050905080611fb05760405162461bcd60e51b815260206004820152603b60248201527f4a6f654c697175696461746f723a204661696c656420746f207472616e73666560448201527f72206e6174697665204156415820746f206c697175696461746f72000000000060648201526084016102e5565b50935061098492505050565b6040516370a0823160e01b815230600482015282906000906001600160a01b038316906370a082319060240160206040518083038186803b15801561200057600080fd5b505afa158015612014573d6000803e3d6000fd5b505050506040513d601f19601f8201168201806040525081019061203891906133de565b9050600081116120e05760405162461bcd60e51b815260206004820152606160248201527f4a6f654c697175696461746f723a20457870656374656420746f20686176652060448201527f72656d61696e696e67207365697a6520616d6f756e7420696e206f726465722060648201527f746f20686176652070726f66697465642066726f6d206c69717569646174696f6084820152603760f91b60a482015260c4016102e5565b612102604051806080016040528060448152602001613e056044913982612cb9565b60015460405163095ea7b360e01b81526001600160a01b039182166004820152602481018390529083169063095ea7b390604401600060405180830381600087803b15801561215057600080fd5b505af1158015612164573d6000803e3d6000fd5b5060009250600291506121749050565b60405190808252806020026020018201604052801561219d578160200160208202803683370190505b50905084816000815181106121c257634e487b7160e01b600052603260045260246000fd5b60200260200101906001600160a01b031690816001600160a01b03168152505073b31f66aa3c1e785363f0875a1b74e27b85fd66c78160018151811061221857634e487b7160e01b600052603260045260246000fd5b60200260200101906001600160a01b031690816001600160a01b0316815250506000600160009054906101000a90046001600160a01b03166001600160a01b031663676528d1846000858e426040518663ffffffff1660e01b8152600401612284959493929190613671565b600060405180830381600087803b15801561229e57600080fd5b505af11580156122b2573d6000803e3d6000fd5b505050506040513d6000823e601f3d908101601f191682016040526122da91908101906132fe565b90506123196040518060800160405280604581526020016138f66045913982600081518110610b1a57634e487b7160e01b600052603260045260246000fd5b8060018151811061233a57634e487b7160e01b600052603260045260246000fd5b6020026020010151975050505050505050610984565b6040516370a0823160e01b8152306004820152829082906001600160a01b038316906370a082319060240160206040518083038186803b15801561239357600080fd5b505afa1580156123a7573d6000803e3d6000fd5b505050506040513d601f19601f820116820180604052508101906123cb91906133de565b10156123e95760405162461bcd60e51b81526004016102e5906135a0565b60405163095ea7b360e01b8152336004820152602481018390526001600160a01b0382169063095ea7b390604401600060405180830381600087803b15801561243157600080fd5b505af11580156106e0573d6000803e3d6000fd5b61248c83838360405160240161245d9392919061357b565b60408051601f198184030181529190526020810180516001600160e01b031663969cdd0360e01b179052612bc8565b505050565b60008060008054906101000a90046001600160a01b031690506000816001600160a01b0316637dc0d1d06040518163ffffffff1660e01b815260040160206040518083038186803b1580156124e557600080fd5b505afa1580156124f9573d6000803e3d6000fd5b505050506040513d601f19601f8201168201806040525081019061251d9190613171565b90506125406040518060600160405280602c8152602001613d9b602c91396106e9565b6000826001600160a01b031663e87554466040518163ffffffff1660e01b815260040160206040518083038186803b15801561257b57600080fd5b505afa15801561258f573d6000803e3d6000fd5b505050506040513d601f19601f820116820180604052508101906125b391906133de565b90506000836001600160a01b0316634ada90af6040518163ffffffff1660e01b815260040160206040518083038186803b1580156125f057600080fd5b505afa158015612604573d6000803e3d6000fd5b505050506040513d601f19601f8201168201806040525081019061262891906133de565b905061264d604051806080016040528060468152602001613d55604691398383612445565b60405163fc57d4df60e01b81526001600160a01b0388811660048301526000919085169063fc57d4df9060240160206040518083038186803b15801561269257600080fd5b505afa1580156126a6573d6000803e3d6000fd5b505050506040513d601f19601f820116820180604052508101906126ca91906133de565b60405163fc57d4df60e01b81526001600160a01b03898116600483015291925060009186169063fc57d4df9060240160206040518083038186803b15801561271157600080fd5b505afa158015612725573d6000803e3d6000fd5b505050506040513d601f19601f8201168201806040525081019061274991906133de565b905061276e6040518060800160405280605e81526020016139f3605e91398383612445565b612812604051806080016040528060518152602001613819605191396040516395dd919360e01b81526001600160a01b038d811660048301528c16906395dd91939060240160206040518083038186803b1580156127cb57600080fd5b505afa1580156127df573d6000803e3d6000fd5b505050506040513d601f19601f8201168201806040525081019061280391906133de565b61280d8b8e612cfe565b612445565b6040516395dd919360e01b81526001600160a01b038b81166004830152600091670de0b6b3a7640000918791908d16906395dd91939060240160206040518083038186803b15801561286357600080fd5b505afa158015612877573d6000803e3d6000fd5b505050506040513d601f19601f8201168201806040525081019061289b91906133de565b6128a591906136e5565b6128af91906136c5565b9050600084670de0b6b3a76400006128c78c8f612cfe565b6128d191906136e5565b6128db91906136c5565b905061290060405180606001604052806032815260200161397c603291398585612445565b600061290c85846136e5565b9050600061291a85846136e5565b9050600081831061292b578161292d565b825b9050612952604051806060016040528060288152602001613a84602891398888612445565b61295c87826136c5565b9b5050505050505050505050505b9392505050565b61248c83838360405160240161298993929190613548565b60408051601f198184030181529190526020810180516001600160e01b031663e3849f7960e01b179052612bc8565b6000836001600160a01b0316636f307dc36040518163ffffffff1660e01b8152600401602060405180830381600087803b1580156129f557600080fd5b505af1158015612a09573d6000803e3d6000fd5b505050506040513d601f19601f82011682018060405250810190612a2d9190613171565b90506001600160a01b03811673a7d7079b0fead91f3e65f86e8915cb59c1a4c664146000612a5c838584612e15565b90506000612a6983612fd9565b9050600033898989856001600160a01b0316636f307dc36040518163ffffffff1660e01b8152600401602060405180830381600087803b158015612aac57600080fd5b505af1158015612ac0573d6000803e3d6000fd5b505050506040513d601f19601f82011682018060405250810190612ae49190613171565b604080516001600160a01b0396871660208201529486169085015291841660608401528316608083015290911660a082015260c0810184905260e081018790526101000160408051601f1981840301815290829052632e7ff4ef60e11b825291506001600160a01b03831690635cffe9de90612b6a9030903390889087906004016134b1565b602060405180830381600087803b158015612b8457600080fd5b505af1158015612b98573d6000803e3d6000fd5b505050506040513d601f19601f82011682018060405250810190612bbc91906133be565b50505050505050505050565b80516a636f6e736f6c652e6c6f67602083016000808483855afa5050505050565b60015460405163d06ca61f60e01b81526060916001600160a01b03169063d06ca61f90612c1c9086908690600401613623565b60006040518083038186803b158015612c3457600080fd5b505afa158015612c48573d6000803e3d6000fd5b505050506040513d6000823e601f3d908101601f1916820160405261098191908101906132fe565b612cb58282604051602401612c86929190613501565b60408051601f198184030181529190526020810180516001600160e01b0316634b5c427760e01b179052612bc8565b5050565b612cb58282604051602401612ccf929190613526565b60408051601f198184030181529190526020810180516001600160e01b03166309710a9d60e41b179052612bc8565b60008083905060006040518060200160405280836001600160a01b031663182df0f56040518163ffffffff1660e01b815260040160206040518083038186803b158015612d4a57600080fd5b505afa158015612d5e573d6000803e3d6000fd5b505050506040513d601f19601f82011682018060405250810190612d8291906133de565b90526040516370a0823160e01b81526001600160a01b038681166004830152919250612e0c918391908516906370a082319060240160206040518083038186803b158015612dcf57600080fd5b505afa158015612de3573d6000803e3d6000fd5b505050506040513d601f19601f82011682018060405250810190612e0791906133de565b61306f565b95945050505050565b604080516002808252606082018352600092839291906020830190803683370190505090508215612e9b577349d5c2bdffac6ce2bfdb6640f4f80f226bc10bab81600081518110612e7657634e487b7160e01b600052603260045260246000fd5b60200260200101906001600160a01b031690816001600160a01b031681525050612ef2565b73a7d7079b0fead91f3e65f86e8915cb59c1a4c66481600081518110612ed157634e487b7160e01b600052603260045260246000fd5b60200260200101906001600160a01b031690816001600160a01b0316815250505b8481600181518110612f1457634e487b7160e01b600052603260045260246000fd5b6001600160a01b0392831660209182029290920101526001546040516307c0329d60e21b8152911690631f00ca7490612f539087908590600401613623565b60006040518083038186803b158015612f6b57600080fd5b505afa158015612f7f573d6000803e3d6000fd5b505050506040513d6000823e601f3d908101601f19168201604052612fa791908101906132fe565b600081518110612fc757634e487b7160e01b600052603260045260246000fd5b60200260200101519150509392505050565b6000811561302857613002604051806060016040528060238152602001613e49602391396106e9565b600354613017906001600160a01b031661072f565b50506003546001600160a01b031690565b613049604051806060016040528060238152602001613e49602391396106e9565b60025461305e906001600160a01b031661072f565b50506002546001600160a01b031690565b60008061307c848461308f565b9050613087816130c0565b949350505050565b60408051602081019091526000815260405180602001604052806130b78560000151856130d8565b90529392505050565b805160009061098490670de0b6b3a7640000906136c5565b600061098183836040518060400160405280601781526020017f6d756c7469706c69636174696f6e206f766572666c6f770000000000000000008152506000831580613122575082155b1561312f5750600061296a565b600061313b84866136e5565b90508361314886836136c5565b1483906131685760405162461bcd60e51b81526004016102e591906134ee565b50949350505050565b600060208284031215613182578081fd5b815161296a81613730565b600080600080600080600060e0888a0312156131a7578283fd5b87356131b281613730565b965060208801356131c281613730565b955060408801356131d281613730565b945060608801356131e281613730565b935060808801356131f281613730565b9699959850939692959460a0840135945060c09093013592915050565b600080600060608486031215613223578283fd5b833561322e81613730565b9250602084013561323e81613730565b9150604084013561324e81613730565b809150509250925092565b60008060008060008060a08789031215613271578182fd5b863561327c81613730565b9550602087013561328c81613730565b94506040870135935060608701359250608087013567ffffffffffffffff808211156132b6578384fd5b818901915089601f8301126132c9578384fd5b8135818111156132d7578485fd5b8a60208285010111156132e8578485fd5b6020830194508093505050509295509295509295565b60006020808385031215613310578182fd5b825167ffffffffffffffff80821115613327578384fd5b818501915085601f83011261333a578384fd5b81518181111561334c5761334c61371a565b8060051b604051601f19603f830116810181811085821117156133715761337161371a565b604052828152858101935084860182860187018a101561338f578788fd5b8795505b838610156133b1578051855260019590950194938601938601613393565b5098975050505050505050565b6000602082840312156133cf578081fd5b8151801515811461296a578182fd5b6000602082840312156133ef578081fd5b5051919050565b60008060006060848603121561340a578283fd5b8351925060208401519150604084015190509250925092565b6000815180845260208085019450808401835b8381101561345b5781516001600160a01b031687529582019590820190600101613436565b509495945050505050565b60008151808452815b8181101561348b5760208185018101518683018201520161346f565b8181111561349c5782602083870101525b50601f01601f19169290920160200192915050565b6001600160a01b03858116825284166020820152604081018390526080606082018190526000906134e490830184613466565b9695505050505050565b6020815260006109816020830184613466565b6040815260006135146040830185613466565b8281036020840152612e0c8185613466565b6040815260006135396040830185613466565b90508260208301529392505050565b60608152600061355b6060830186613466565b6020830194909452506001600160a01b0391909116604090910152919050565b60608152600061358e6060830186613466565b60208301949094525060400152919050565b6020808252605f908201527f4a6f654c697175696461746f723a20457870656374656420746f20686176652060408201527f656e6f75676820746f6b656e7320746f20726570617920666c617368206c6f6160608201527f6e206166746572207377617070696e67207365697a656420746f6b656e732e00608082015260a00190565b8281526040602082015260006130876040830184613423565b8481526080602082015260006136556080830186613423565b6001600160a01b03949094166040830152506060015292915050565b85815284602082015260a06040820152600061369060a0830186613423565b6001600160a01b0394909416606083015250608001529392505050565b600082198211156136c0576136c0613704565b500190565b6000826136e057634e487b7160e01b81526012600452602481fd5b500490565b60008160001904831182151516156136ff576136ff613704565b500290565b634e487b7160e01b600052601160045260246000fd5b634e487b7160e01b600052604160045260246000fd5b6001600160a01b038116811461072c57600080fdfe5b4a6f654c697175696461746f725d206f6e466c6173684c6f616e207761732063616c6c65642062793a5b4a6f654c697175696461746f725d204a6f6574726f6c6c65722069735265706179416c6c6f7765643a20282564292e2e2e5b4a6f654c697175696461746f725d2054686520666c617368206c6f616e20746f6b656e20616464726573732069733a5b4a6f654c697175696461746f725d2041626f757420746f206c6971756964617465426f72726f772e20506f737365737320256420746f6b656e73206f6620616464726573733a5b4a6f654c697175696461746f725d20476f742063757272656e7420626f72726f772062616c616e6365202825642920616e642063757272656e74207365697a652062616c616e636520282564292e2e2e5b4a6f654c697175696461746f725d206a5365697a65546f6b656e206163637275616c426c6f636b54696d657374616d70206f6620256420616e642063757272656e74426c6f636b54696d657374616d702025642e2e2e5b4a6f654c697175696461746f725d204a6f6574726f6c6c6572206c6971756964617465426f72726f77416c6c6f7765643a2025645b4a6f654c697175696461746f725d205375636365737366756c6c79207472616e7366657272656420616c6c2070726f666974746564204156415821202825642c202564295b4a6f654c697175696461746f725d205377617070696e6720666c617368206c6f616e20746f6b656e20746f204156415820726570617920746f6b656e732e2e2e5b4a6f654c697175696461746f725d20476f74206d617820726570617920616e64207365697a6520616d6f756e74732e2e2e5b4a6f654c697175696461746f725d20416d6f756e74206f66207365697a6520746f6b656e7320746f207377617020746f20666c61736820746f6b656e20282564292e2e2e5b4a6f654c697175696461746f725d20476f7420726570617920746f6b656e20756e6465726c79696e67207072696365202825642920616e64207365697a6520746f6b656e20756e6465726c79696e6720707269636520282564292e2e2e5b4a6f654c697175696461746f725d2043616c6c696e67206c6971756964617465426f72726f77206f6e2045524332302e2e2e5b4a6f654c697175696461746f725d20476f74206d617820616d6f756e7420696e205553442e2e2e5b4a6f654c697175696461746f725d205375636365737366756c6c792072656465656d6564202564206a5365697a65546f6b656e73207769746820616464726573733a5b4a6f654c697175696461746f725d5b4552524f525d205265636569766564206572726f7220256420747279696e6720746f206c6971756964617465426f72726f772e2e2e5b4a6f654c697175696461746f725d20416d6f756e74206f66207365697a6520746f6b656e7320776520706f737365737320282564292e2e2e5b4a6f654c697175696461746f725d204a6f6574726f6c6c657220626f72726f776572546f4c69717569646174652073686f727466616c6c202825642920616e642065727220282564295b4a6f654c697175696461746f725d205377617070696e67207365697a6520746f6b656e7320746f20666c61736820746f6b656e7320746f20726570617920666c617368206c6f616e20746f74616c20282564292e2e2e5b4a6f654c697175696461746f725d2043616c63756c6174696e6720616d6f756e7420746f207061792e2e2e5b4a6f654c697175696461746f725d20476f696e6720746f20726570617920256420666f7220746f6b656e207769746820616464726573732025732e2e2e4a6f654c697175696461746f723a2041626f757420746f205f6c6971756964617465426f72726f772e207265706179546f6b656e42616c616e636520697320256420616e64207265706179416d6f756e742069732025645b4a6f654c697175696461746f725d2043616c63756c6174696e6720616d6f756e74206f66207365697a6520746f6b656e20746f2073776170207769746820706174683a5b4a6f654c697175696461746f725d205377617070696e6720666c617368206c6f616e20746f6b656e20746f20455243323020726570617920746f6b656e732e2e2e5b4a6f654c697175696461746f725d20476f7420636c6f736520666163746f72202825642920616e64206c697175646174696f6e20696e63656e7469766520282564292e2e2e5b4a6f654c697175696461746f725d20476f74206a6f6574726f6c6c657220616e64206f7261636c652e2e2e4a6f654c697175696461746f723a2041626f757420746f205f6c6971756964617465426f72726f772e20697352657061794e61746976652069733a2025735b4a6f654c697175696461746f725d20576520686176652025642072656d61696e696e67207365697a6520746f6b656e7320746f207377617020746f20415641582e2e2e5b4a6f654c697175696461746f725d20466c617368206c6f616e696e672066726f6d3a5b4a6f654c697175696461746f725d205377617070696e6720666c617368206c6f616e20746f6b656e2028706f737365732025642920666f7220726570617920746f6b656e20286e656564202564292e2e2e5b4a6f654c697175696461746f725d2043616c6c696e67206c6971756964617465426f72726f774e6174697665207769746820617267733a5b4a6f654c697175696461746f725d20476f74206c6971756964697479202825642920616e642073686f727466616c6c202825642920666f7220626f72726f776572546f4c6971756964617465207769746820616464726573733a5b4a6f654c697175696461746f725d2047657474696e6720616d6f756e7473206f75742072657475726e73202825642c20256429207769746820706174683aa2646970667358221220e4d467ddf9ae1e9a7aedf5c50fd41dabf0dc2d3a2226559b1b83c354bc4609cb64736f6c63430008040033",
  "linkReferences": {},
  "deployedLinkReferences": {}
}