{
  "_format": "hh-sol-artifact-1",
  "contractName": "JoeLiquidator",
  "sourceName": "contracts/JoeLiquidator.sol",
  "abi": [
    {
      "inputs": [
        {
          "internalType": "address",
          "name": "_joetrollerAddress",
          "type": "address"
        },
        {
          "internalType": "address",
          "name": "_joeRouter02Address",
          "type": "address"
        },
        {
          "internalType": "address",
          "name": "_jUSDCEAddress",
          "type": "address"
        },
        {
          "internalType": "address",
          "name": "_jWETHEAddress",
          "type": "address"
        }
      ],
      "stateMutability": "nonpayable",
      "type": "constructor"
    },
    {
      "inputs": [],
      "name": "DAIE",
      "outputs": [
        {
          "internalType": "address",
          "name": "",
          "type": "address"
        }
      ],
      "stateMutability": "view",
      "type": "function"
    },
    {
      "inputs": [],
      "name": "LINKE",
      "outputs": [
        {
          "internalType": "address",
          "name": "",
          "type": "address"
        }
      ],
      "stateMutability": "view",
      "type": "function"
    },
    {
      "inputs": [],
      "name": "MIM",
      "outputs": [
        {
          "internalType": "address",
          "name": "",
          "type": "address"
        }
      ],
      "stateMutability": "view",
      "type": "function"
    },
    {
      "inputs": [],
      "name": "USDCE",
      "outputs": [
        {
          "internalType": "address",
          "name": "",
          "type": "address"
        }
      ],
      "stateMutability": "view",
      "type": "function"
    },
    {
      "inputs": [],
      "name": "USDTE",
      "outputs": [
        {
          "internalType": "address",
          "name": "",
          "type": "address"
        }
      ],
      "stateMutability": "view",
      "type": "function"
    },
    {
      "inputs": [],
      "name": "WAVAX",
      "outputs": [
        {
          "internalType": "address",
          "name": "",
          "type": "address"
        }
      ],
      "stateMutability": "view",
      "type": "function"
    },
    {
      "inputs": [],
      "name": "WBTCE",
      "outputs": [
        {
          "internalType": "address",
          "name": "",
          "type": "address"
        }
      ],
      "stateMutability": "view",
      "type": "function"
    },
    {
      "inputs": [],
      "name": "WETHE",
      "outputs": [
        {
          "internalType": "address",
          "name": "",
          "type": "address"
        }
      ],
      "stateMutability": "view",
      "type": "function"
    },
    {
      "inputs": [
        {
          "internalType": "address",
          "name": "_flashloanLender",
          "type": "address"
        },
        {
          "internalType": "address",
          "name": "_jBorrowToken",
          "type": "address"
        },
        {
          "internalType": "uint256",
          "name": "_borrowAmount",
          "type": "uint256"
        },
        {
          "internalType": "address",
          "name": "_borrowerToLiquidate",
          "type": "address"
        },
        {
          "internalType": "bool",
          "name": "_isUSDC",
          "type": "bool"
        }
      ],
      "name": "doFlashloan",
      "outputs": [],
      "stateMutability": "nonpayable",
      "type": "function"
    },
    {
      "inputs": [
        {
          "internalType": "address",
          "name": "_underlyingBorrowToken",
          "type": "address"
        },
        {
          "internalType": "uint256",
          "name": "_borrowAmount",
          "type": "uint256"
        }
      ],
      "name": "getAmountOfUSDCEToFlashLoan",
      "outputs": [
        {
          "internalType": "uint256[]",
          "name": "amounts",
          "type": "uint256[]"
        }
      ],
      "stateMutability": "view",
      "type": "function"
    },
    {
      "inputs": [],
      "name": "jUSDCEAddress",
      "outputs": [
        {
          "internalType": "address",
          "name": "",
          "type": "address"
        }
      ],
      "stateMutability": "view",
      "type": "function"
    },
    {
      "inputs": [],
      "name": "jWETHEAddress",
      "outputs": [
        {
          "internalType": "address",
          "name": "",
          "type": "address"
        }
      ],
      "stateMutability": "view",
      "type": "function"
    },
    {
      "inputs": [],
      "name": "joeRouter02Address",
      "outputs": [
        {
          "internalType": "address",
          "name": "",
          "type": "address"
        }
      ],
      "stateMutability": "view",
      "type": "function"
    },
    {
      "inputs": [],
      "name": "joetrollerAddress",
      "outputs": [
        {
          "internalType": "address",
          "name": "",
          "type": "address"
        }
      ],
      "stateMutability": "view",
      "type": "function"
    },
    {
      "inputs": [
        {
          "internalType": "address",
          "name": "_initiator",
          "type": "address"
        },
        {
          "internalType": "address",
          "name": "_underlyingToken",
          "type": "address"
        },
        {
          "internalType": "uint256",
          "name": "_amount",
          "type": "uint256"
        },
        {
          "internalType": "uint256",
          "name": "_fee",
          "type": "uint256"
        },
        {
          "internalType": "bytes",
          "name": "_data",
          "type": "bytes"
        }
      ],
      "name": "onFlashLoan",
      "outputs": [
        {
          "internalType": "bytes32",
          "name": "",
          "type": "bytes32"
        }
      ],
      "stateMutability": "nonpayable",
      "type": "function"
    }
  ],
  "bytecode": "0x608060405234801561001057600080fd5b50604051610d76380380610d7683398101604081905261002f9161009e565b600080546001600160a01b039586166001600160a01b03199182161790915560018054948616948216949094179093556002805492851692841692909217909155600380549190931691161790556100f1565b80516001600160a01b038116811461009957600080fd5b919050565b600080600080608085870312156100b3578384fd5b6100bc85610082565b93506100ca60208601610082565b92506100d860408601610082565b91506100e660608601610082565b905092959194509250565b610c76806101006000396000f3fe608060405234801561001057600080fd5b50600436106100f55760003560e01c806373b295c211610097578063daec383d11610066578063daec383d14610239578063df403b2d14610254578063e62fbf6a14610267578063f4a836161461027a57600080fd5b806373b295c2146101d5578063897857b8146101f0578063974ab80e14610203578063c2776d6f1461021e57600080fd5b8063195187e1116100d3578063195187e11461016b57806323e30c8b146101865780634350b345146101a75780635b189e2d146101ba57600080fd5b8063028e0a41146100fa5780630902c43a1461012357806311897d4614610138575b600080fd5b61010d6101083660046109c9565b610295565b60405161011a9190610ad0565b60405180910390f35b6101366101313660046108bd565b6103cd565b005b6101537349d5c2bdffac6ce2bfdb6640f4f80f226bc10bab81565b6040516001600160a01b03909116815260200161011a565b61015373a7d7079b0fead91f3e65f86e8915cb59c1a4c66481565b610199610194366004610924565b61053a565b60405190815260200161011a565b600354610153906001600160a01b031681565b6101537350b7545627a5162f82a992c33b87adc75187b21881565b61015373b31f66aa3c1e785363f0875a1b74e27b85fd66c781565b600054610153906001600160a01b031681565b61015373c7198437980c041c805a1edcba50c1ce5db9511881565b610153735947bb275c521040051d82396192181b413227a381565b61015373130966628846bfd36ff31a822705796e8cb8c18d81565b600254610153906001600160a01b031681565b600154610153906001600160a01b031681565b61015373d586e7f844cea2f87f50152665bcbc2c279d8d7081565b6040805160028082526060808301845292600092919060208301908036833701905050905073a7d7079b0fead91f3e65f86e8915cb59c1a4c664816000815181106102f057634e487b7160e01b600052603260045260246000fd5b60200260200101906001600160a01b031690816001600160a01b031681525050838160018151811061033257634e487b7160e01b600052603260045260246000fd5b6001600160a01b0392831660209182029290920101526001546040516307c0329d60e21b8152911690631f00ca74906103719086908590600401610b8a565b60006040518083038186803b15801561038957600080fd5b505afa15801561039d573d6000803e3d6000fd5b505050506040513d6000823e601f3d908101601f191682016040526103c591908101906109f4565b949350505050565b600081156103e757506003546001600160a01b03166103f5565b506002546001600160a01b03165b6000856001600160a01b0316636f307dc36040518163ffffffff1660e01b815260040160206040518083038186803b15801561043057600080fd5b505afa158015610444573d6000803e3d6000fd5b505050506040513d601f19601f82011682018060405250810190610468919061084f565b604080516001600160a01b0380841660208301529181018890528187166060820152908816608082015290915060009060a00160408051601f1981840301815290829052632e7ff4ef60e11b825291506001600160a01b03891690635cffe9de906104dd90309086908b908790600401610b14565b602060405180830381600087803b1580156104f757600080fd5b505af115801561050b573d6000803e3d6000fd5b505050506040513d601f19601f8201168201806040525081019061052f9190610ab4565b505050505050505050565b60008054604051633d98a1e560e01b81523360048201526001600160a01b0390911690633d98a1e59060240160206040518083038186803b15801561057e57600080fd5b505afa158015610592573d6000803e3d6000fd5b505050506040513d601f19601f820116820180604052508101906105b69190610ab4565b6106175760405162461bcd60e51b815260206004820152602760248201527f4a6f654c697175696461746f723a20556e74727573746564206d6573736167656044820152661039b2b73232b960c91b60648201526084015b60405180910390fd5b6001600160a01b038716301461067f5760405162461bcd60e51b815260206004820152602760248201527f4a6f654c697175696461746f723a20556e74727573746564206c6f616e20696e60448201526634ba34b0ba37b960c91b606482015260840161060e565b60008080806106908688018861086b565b9350935093509350896001600160a01b0316846001600160a01b03161461071f5760405162461bcd60e51b815260206004820152603860248201527f4a6f654c697175696461746f723a20456e636f64656420646174612028626f7260448201527f726f77546f6b656e2920646f6573206e6f74206d617463680000000000000000606482015260840161060e565b8883146107945760405162461bcd60e51b815260206004820152603960248201527f4a6f654c697175696461746f723a20456e636f64656420646174612028626f7260448201527f726f77416d6f756e742920646f6573206e6f74206d6174636800000000000000606482015260840161060e565b6001600160a01b038a1663095ea7b3336107ae8c8c61083c565b6040516001600160e01b031960e085901b1681526001600160a01b0390921660048301526024820152604401600060405180830381600087803b1580156107f457600080fd5b505af1158015610808573d6000803e3d6000fd5b50505050507f7968ba28153757de2da7bce4c2ba9ebaf94445061f3050de1b0de5c34bb7d5d89a9950505050505050505050565b60006108488284610be0565b9392505050565b600060208284031215610860578081fd5b815161084881610c1a565b60008060008060808587031215610880578283fd5b843561088b81610c1a565b93506020850135925060408501356108a281610c1a565b915060608501356108b281610c1a565b939692955090935050565b600080600080600060a086880312156108d4578081fd5b85356108df81610c1a565b945060208601356108ef81610c1a565b935060408601359250606086013561090681610c1a565b9150608086013561091681610c32565b809150509295509295909350565b60008060008060008060a0878903121561093c578081fd5b863561094781610c1a565b9550602087013561095781610c1a565b94506040870135935060608701359250608087013567ffffffffffffffff80821115610981578283fd5b818901915089601f830112610994578283fd5b8135818111156109a2578384fd5b8a60208285010111156109b3578384fd5b6020830194508093505050509295509295509295565b600080604083850312156109db578182fd5b82356109e681610c1a565b946020939093013593505050565b60006020808385031215610a06578182fd5b825167ffffffffffffffff80821115610a1d578384fd5b818501915085601f830112610a30578384fd5b815181811115610a4257610a42610c04565b8060051b604051601f19603f83011681018181108582111715610a6757610a67610c04565b604052828152858101935084860182860187018a1015610a85578788fd5b8795505b83861015610aa7578051855260019590950194938601938601610a89565b5098975050505050505050565b600060208284031215610ac5578081fd5b815161084881610c32565b6020808252825182820181905260009190848201906040850190845b81811015610b0857835183529284019291840191600101610aec565b50909695505050505050565b600060018060a01b0380871683526020818716818501528560408501526080606085015284519150816080850152825b82811015610b605785810182015185820160a001528101610b44565b82811115610b71578360a084870101525b5050601f01601f19169190910160a00195945050505050565b60006040820184835260206040818501528185518084526060860191508287019350845b81811015610bd35784516001600160a01b031683529383019391830191600101610bae565b5090979650505050505050565b60008219821115610bff57634e487b7160e01b81526011600452602481fd5b500190565b634e487b7160e01b600052604160045260246000fd5b6001600160a01b0381168114610c2f57600080fd5b50565b8015158114610c2f57600080fdfea2646970667358221220b13783ac611c75b422cb3469a23909426d59c08f2b3748a174f086e9ebf6776664736f6c63430008040033",
  "linkReferences": {},
  "deployedLinkReferences": {}
}