{
  "_format": "hh-sol-artifact-1",
  "contractName": "JoeLiquidator",
  "sourceName": "contracts/JoeLiquidator.sol",
  "abi": [
    {
      "inputs": [
        {
          "internalType": "address",
          "name": "_joetrollerAddress",
          "type": "address"
        },
        {
          "internalType": "address",
          "name": "_joeRouter02Address",
          "type": "address"
        },
        {
          "internalType": "address",
          "name": "_jUSDCEAddress",
          "type": "address"
        },
        {
          "internalType": "address",
          "name": "_jWETHEAddress",
          "type": "address"
        }
      ],
      "stateMutability": "nonpayable",
      "type": "constructor"
    },
    {
      "inputs": [],
      "name": "DAIE",
      "outputs": [
        {
          "internalType": "address",
          "name": "",
          "type": "address"
        }
      ],
      "stateMutability": "view",
      "type": "function"
    },
    {
      "inputs": [],
      "name": "LINKE",
      "outputs": [
        {
          "internalType": "address",
          "name": "",
          "type": "address"
        }
      ],
      "stateMutability": "view",
      "type": "function"
    },
    {
      "inputs": [],
      "name": "MIM",
      "outputs": [
        {
          "internalType": "address",
          "name": "",
          "type": "address"
        }
      ],
      "stateMutability": "view",
      "type": "function"
    },
    {
      "inputs": [],
      "name": "USDCE",
      "outputs": [
        {
          "internalType": "address",
          "name": "",
          "type": "address"
        }
      ],
      "stateMutability": "view",
      "type": "function"
    },
    {
      "inputs": [],
      "name": "USDTE",
      "outputs": [
        {
          "internalType": "address",
          "name": "",
          "type": "address"
        }
      ],
      "stateMutability": "view",
      "type": "function"
    },
    {
      "inputs": [],
      "name": "WAVAX",
      "outputs": [
        {
          "internalType": "address",
          "name": "",
          "type": "address"
        }
      ],
      "stateMutability": "view",
      "type": "function"
    },
    {
      "inputs": [],
      "name": "WBTCE",
      "outputs": [
        {
          "internalType": "address",
          "name": "",
          "type": "address"
        }
      ],
      "stateMutability": "view",
      "type": "function"
    },
    {
      "inputs": [],
      "name": "WETHE",
      "outputs": [
        {
          "internalType": "address",
          "name": "",
          "type": "address"
        }
      ],
      "stateMutability": "view",
      "type": "function"
    },
    {
      "inputs": [
        {
          "internalType": "address",
          "name": "_jRepayTokenAddress",
          "type": "address"
        },
        {
          "internalType": "uint256",
          "name": "_repayAmount",
          "type": "uint256"
        },
        {
          "internalType": "address",
          "name": "_borrowerToLiquidate",
          "type": "address"
        },
        {
          "internalType": "bool",
          "name": "_isRepayTokenUSDC",
          "type": "bool"
        },
        {
          "internalType": "address",
          "name": "_jSeizeTokenAddress",
          "type": "address"
        }
      ],
      "name": "doFlashloan",
      "outputs": [],
      "stateMutability": "nonpayable",
      "type": "function"
    },
    {
      "inputs": [],
      "name": "jUSDCEAddress",
      "outputs": [
        {
          "internalType": "address",
          "name": "",
          "type": "address"
        }
      ],
      "stateMutability": "view",
      "type": "function"
    },
    {
      "inputs": [],
      "name": "jWETHEAddress",
      "outputs": [
        {
          "internalType": "address",
          "name": "",
          "type": "address"
        }
      ],
      "stateMutability": "view",
      "type": "function"
    },
    {
      "inputs": [],
      "name": "joeRouter02Address",
      "outputs": [
        {
          "internalType": "address",
          "name": "",
          "type": "address"
        }
      ],
      "stateMutability": "view",
      "type": "function"
    },
    {
      "inputs": [],
      "name": "joetrollerAddress",
      "outputs": [
        {
          "internalType": "address",
          "name": "",
          "type": "address"
        }
      ],
      "stateMutability": "view",
      "type": "function"
    },
    {
      "inputs": [
        {
          "internalType": "address",
          "name": "_initiator",
          "type": "address"
        },
        {
          "internalType": "address",
          "name": "_flashLoanTokenAddress",
          "type": "address"
        },
        {
          "internalType": "uint256",
          "name": "_flashLoanAmount",
          "type": "uint256"
        },
        {
          "internalType": "uint256",
          "name": "_flashLoanFee",
          "type": "uint256"
        },
        {
          "internalType": "bytes",
          "name": "_data",
          "type": "bytes"
        }
      ],
      "name": "onFlashLoan",
      "outputs": [
        {
          "internalType": "bytes32",
          "name": "",
          "type": "bytes32"
        }
      ],
      "stateMutability": "nonpayable",
      "type": "function"
    }
  ],
  "bytecode": "0x60806040523480156200001157600080fd5b5060405162001866380380620018668339810160408190526200003491620000a5565b600080546001600160a01b039586166001600160a01b031991821617909155600180549486169482169490941790935560028054928516928416929092179091556003805491909316911617905562000101565b80516001600160a01b0381168114620000a057600080fd5b919050565b60008060008060808587031215620000bb578384fd5b620000c68562000088565b9350620000d66020860162000088565b9250620000e66040860162000088565b9150620000f66060860162000088565b905092959194509250565b61175580620001116000396000f3fe608060405234801561001057600080fd5b50600436106100ea5760003560e01c8063974ab80e1161008c578063daec383d11610066578063daec383d1461020a578063df403b2d14610225578063e62fbf6a14610238578063f4a836161461024b57600080fd5b8063974ab80e146101bf578063bb670a7b146101da578063c2776d6f146101ef57600080fd5b80634350b345116100c85780634350b345146101635780635b189e2d1461017657806373b295c214610191578063897857b8146101ac57600080fd5b806311897d46146100ef578063195187e11461012757806323e30c8b14610142575b600080fd5b61010a7349d5c2bdffac6ce2bfdb6640f4f80f226bc10bab81565b6040516001600160a01b0390911681526020015b60405180910390f35b61010a73a7d7079b0fead91f3e65f86e8915cb59c1a4c66481565b6101556101503660046113a9565b610266565b60405190815260200161011e565b60035461010a906001600160a01b031681565b61010a7350b7545627a5162f82a992c33b87adc75187b21881565b61010a73b31f66aa3c1e785363f0875a1b74e27b85fd66c781565b60005461010a906001600160a01b031681565b61010a73c7198437980c041c805a1edcba50c1ce5db9511881565b6101ed6101e836600461144e565b610690565b005b61010a735947bb275c521040051d82396192181b413227a381565b61010a73130966628846bfd36ff31a822705796e8cb8c18d81565b60025461010a906001600160a01b031681565b60015461010a906001600160a01b031681565b61010a73d586e7f844cea2f87f50152665bcbc2c279d8d7081565b60008054604051633d98a1e560e01b81523360048201526001600160a01b0390911690633d98a1e59060240160206040518083038186803b1580156102aa57600080fd5b505afa1580156102be573d6000803e3d6000fd5b505050506040513d601f19601f820116820180604052508101906102e29190611575565b6103435760405162461bcd60e51b815260206004820152602760248201527f4a6f654c697175696461746f723a20556e74727573746564206d6573736167656044820152661039b2b73232b960c91b60648201526084015b60405180910390fd5b6040805160808101825260008082526020820181905291810182905260608101829052908080808080806103798b8b018c611326565b9650965096509650965096509650866001600160a01b03168f6001600160a01b0316146103f85760405162461bcd60e51b815260206004820152602760248201527f4a6f654c697175696461746f723a20556e74727573746564206c6f616e20696e60448201526634ba34b0ba37b960c91b606482015260840161033a565b846001600160a01b03168e6001600160a01b03161461048d5760405162461bcd60e51b8152602060048201526044602482018190527f4a6f654c697175696461746f723a20456e636f64656420646174612028666c61908201527f73684c6f616e6564546f6b656e416464726573732920646f6573206e6f74206d6064820152630c2e8c6d60e31b608482015260a40161033a565b828d146105025760405162461bcd60e51b815260206004820152603c60248201527f4a6f654c697175696461746f723a20456e636f64656420646174612028666c6160448201527f73684c6f616e416d6f756e742920646f6573206e6f74206d6174636800000000606482015260840161033a565b6001600160a01b03958616604089015292851687526060870152509091166020840152508790506000610535888861087e565b60405163095ea7b360e01b8152336004820152602481018290529091506001600160a01b0383169063095ea7b390604401600060405180830381600087803b15801561058057600080fd5b505af1158015610594573d6000803e3d6000fd5b505050506000836000015190506106238a8a836001600160a01b0316636f307dc36040518163ffffffff1660e01b8152600401602060405180830381600087803b1580156105e157600080fd5b505af11580156105f5573d6000803e3d6000fd5b505050506040513d601f19601f82011682018060405250810190610619919061130a565b8760600151610891565b61063b81856040015186606001518760200151610a36565b61064a84602001518b84610b41565b6106578460200151610d65565b6106608b61104f565b507f7968ba28153757de2da7bce4c2ba9ebaf94445061f3050de1b0de5c34bb7d5d89a9950505050505050505050565b6000856001600160a01b0316636f307dc36040518163ffffffff1660e01b8152600401602060405180830381600087803b1580156106cd57600080fd5b505af11580156106e1573d6000803e3d6000fd5b505050506040513d601f19601f82011682018060405250810190610705919061130a565b9050600061071482878661111c565b90506000610721856112e0565b905060003387836001600160a01b0316636f307dc36040518163ffffffff1660e01b8152600401602060405180830381600087803b15801561076257600080fd5b505af1158015610776573d6000803e3d6000fd5b505050506040513d601f19601f8201168201806040525081019061079a919061130a565b604080516001600160a01b0394851660208201529284169083015282166060820152818b16608082015260a0810185905260c081018a905290861660e08201526101000160408051601f1981840301815290829052632e7ff4ef60e11b825291506001600160a01b03831690635cffe9de906108209030903390889087906004016115ec565b602060405180830381600087803b15801561083a57600080fd5b505af115801561084e573d6000803e3d6000fd5b505050506040513d601f19601f820116820180604052508101906108729190611575565b50505050505050505050565b600061088a82846116bf565b9392505050565b60015460405163095ea7b360e01b81526001600160a01b039182166004820152602481018590529085169063095ea7b390604401600060405180830381600087803b1580156108df57600080fd5b505af11580156108f3573d6000803e3d6000fd5b5060009250600291506109039050565b60405190808252806020026020018201604052801561092c578160200160208202803683370190505b509050848160008151811061095157634e487b7160e01b600052603260045260246000fd5b60200260200101906001600160a01b031690816001600160a01b031681525050828160018151811061099357634e487b7160e01b600052603260045260246000fd5b6001600160a01b0392831660209182029290920101526001546040516338ed173960e01b81529116906338ed1739906109d89087908690869089904290600401611683565b600060405180830381600087803b1580156109f257600080fd5b505af1158015610a06573d6000803e3d6000fd5b505050506040513d6000823e601f3d908101601f19168201604052610a2e91908101906114b5565b505050505050565b604051637af1e23160e11b81526001600160a01b0384811660048301526024820184905282811660448301526000919086169063f5e3c46290606401602060405180830381600087803b158015610a8c57600080fd5b505af1158015610aa0573d6000803e3d6000fd5b505050506040513d601f19601f82011682018060405250810190610ac49190611591565b90508015610b3a5760405162461bcd60e51b815260206004820152603760248201527f4a6f654c697175696461746f723a204572726f72206f6363757272656420747260448201527f79696e6720746f206c6971756964617465426f72726f77000000000000000000606482015260840161033a565b5050505050565b6040516370a0823160e01b815230600482015283906000906001600160a01b038316906370a082319060240160206040518083038186803b158015610b8557600080fd5b505afa158015610b99573d6000803e3d6000fd5b505050506040513d601f19601f82011682018060405250810190610bbd9190611591565b60015460405163095ea7b360e01b81526001600160a01b0391821660048201526024810183905291925083169063095ea7b390604401600060405180830381600087803b158015610c0d57600080fd5b505af1158015610c21573d6000803e3d6000fd5b506000925060029150610c319050565b604051908082528060200260200182016040528015610c5a578160200160208202803683370190505b5090508581600081518110610c7f57634e487b7160e01b600052603260045260246000fd5b60200260200101906001600160a01b031690816001600160a01b0316815250508481600181518110610cc157634e487b7160e01b600052603260045260246000fd5b6001600160a01b0392831660209182029290920101526001546040516338ed173960e01b81529116906338ed173990610d06908590889086908b904290600401611683565b600060405180830381600087803b158015610d2057600080fd5b505af1158015610d34573d6000803e3d6000fd5b505050506040513d6000823e601f3d908101601f19168201604052610d5c91908101906114b5565b50505050505050565b6040516370a0823160e01b815230600482015281906000906001600160a01b038316906370a082319060240160206040518083038186803b158015610da957600080fd5b505afa158015610dbd573d6000803e3d6000fd5b505050506040513d601f19601f82011682018060405250810190610de19190611591565b905060008111610e895760405162461bcd60e51b815260206004820152606160248201527f4a6f654c697175696461746f723a20457870656374656420746f20686176652060448201527f72656d61696e696e67207365697a6520616d6f756e7420696e206f726465722060648201527f746f20686176652070726f66697465642066726f6d206c69717569646174696f6084820152603760f91b60a482015260c40161033a565b60015460405163095ea7b360e01b81526001600160a01b039182166004820152602481018390529083169063095ea7b390604401600060405180830381600087803b158015610ed757600080fd5b505af1158015610eeb573d6000803e3d6000fd5b506000925060029150610efb9050565b604051908082528060200260200182016040528015610f24578160200160208202803683370190505b5090508381600081518110610f4957634e487b7160e01b600052603260045260246000fd5b60200260200101906001600160a01b031690816001600160a01b03168152505073b31f66aa3c1e785363f0875a1b74e27b85fd66c781600181518110610f9f57634e487b7160e01b600052603260045260246000fd5b6001600160a01b03928316602091820292909201015260015460405163676528d160e01b815291169063676528d190610ff9908590600090869073b31f66aa3c1e785363f0875a1b74e27b85fd66c7904290600401611683565b600060405180830381600087803b15801561101357600080fd5b505af1158015611027573d6000803e3d6000fd5b505050506040513d6000823e601f3d908101601f19168201604052610b3a91908101906114b5565b6000816001600160a01b03164760405160006040518083038185875af1925050503d806000811461109c576040519150601f19603f3d011682016040523d82523d6000602084013e6110a1565b606091505b50509050806111185760405162461bcd60e51b815260206004820152603d60248201527f4a6f654c697175696461746f723a204661696c656420746f207472616e73666560448201527f722070726f6669746564204156415820746f206c697175696461746f72000000606482015260840161033a565b5050565b6040805160028082526060820183526000928392919060208301908036833701905050905082156111a2577349d5c2bdffac6ce2bfdb6640f4f80f226bc10bab8160008151811061117d57634e487b7160e01b600052603260045260246000fd5b60200260200101906001600160a01b031690816001600160a01b0316815250506111f9565b73a7d7079b0fead91f3e65f86e8915cb59c1a4c664816000815181106111d857634e487b7160e01b600052603260045260246000fd5b60200260200101906001600160a01b031690816001600160a01b0316815250505b848160018151811061121b57634e487b7160e01b600052603260045260246000fd5b6001600160a01b0392831660209182029290920101526001546040516307c0329d60e21b8152911690631f00ca749061125a9087908590600401611662565b60006040518083038186803b15801561127257600080fd5b505afa158015611286573d6000803e3d6000fd5b505050506040513d6000823e601f3d908101601f191682016040526112ae91908101906114b5565b6000815181106112ce57634e487b7160e01b600052603260045260246000fd5b60200260200101519150509392505050565b600081156112f95750506003546001600160a01b031690565b50506002546001600160a01b031690565b60006020828403121561131b578081fd5b815161088a816116f9565b600080600080600080600060e0888a031215611340578283fd5b873561134b816116f9565b9650602088013561135b816116f9565b9550604088013561136b816116f9565b9450606088013561137b816116f9565b93506080880135925060a0880135915060c0880135611399816116f9565b8091505092959891949750929550565b60008060008060008060a087890312156113c1578182fd5b86356113cc816116f9565b955060208701356113dc816116f9565b94506040870135935060608701359250608087013567ffffffffffffffff80821115611406578384fd5b818901915089601f830112611419578384fd5b813581811115611427578485fd5b8a6020828501011115611438578485fd5b6020830194508093505050509295509295509295565b600080600080600060a08688031215611465578081fd5b8535611470816116f9565b9450602086013593506040860135611487816116f9565b9250606086013561149781611711565b915060808601356114a7816116f9565b809150509295509295909350565b600060208083850312156114c7578182fd5b825167ffffffffffffffff808211156114de578384fd5b818501915085601f8301126114f1578384fd5b815181811115611503576115036116e3565b8060051b604051601f19603f83011681018181108582111715611528576115286116e3565b604052828152858101935084860182860187018a1015611546578788fd5b8795505b8386101561156857805185526001959095019493860193860161154a565b5098975050505050505050565b600060208284031215611586578081fd5b815161088a81611711565b6000602082840312156115a2578081fd5b5051919050565b6000815180845260208085019450808401835b838110156115e15781516001600160a01b0316875295820195908201906001016115bc565b509495945050505050565b600060018060a01b0380871683526020818716818501528560408501526080606085015284519150816080850152825b828110156116385785810182015185820160a00152810161161c565b82811115611649578360a084870101525b5050601f01601f19169190910160a00195945050505050565b82815260406020820152600061167b60408301846115a9565b949350505050565b85815284602082015260a0604082015260006116a260a08301866115a9565b6001600160a01b0394909416606083015250608001529392505050565b600082198211156116de57634e487b7160e01b81526011600452602481fd5b500190565b634e487b7160e01b600052604160045260246000fd5b6001600160a01b038116811461170e57600080fd5b50565b801515811461170e57600080fdfea2646970667358221220ee8ea54ec4f528dab2eaf46e4c55579e23e67a89086c13d86fa7f8418726fdd564736f6c63430008040033",
  "linkReferences": {},
  "deployedLinkReferences": {}
}