{
  "_format": "hh-sol-artifact-1",
  "contractName": "JoeLiquidator",
  "sourceName": "contracts/JoeLiquidator.sol",
  "abi": [
    {
      "inputs": [
        {
          "internalType": "address",
          "name": "_joetrollerAddress",
          "type": "address"
        },
        {
          "internalType": "address",
          "name": "_joeRouter02Address",
          "type": "address"
        },
        {
          "internalType": "address",
          "name": "_jUSDCEAddress",
          "type": "address"
        },
        {
          "internalType": "address",
          "name": "_jWETHEAddress",
          "type": "address"
        }
      ],
      "stateMutability": "nonpayable",
      "type": "constructor"
    },
    {
      "anonymous": false,
      "inputs": [
        {
          "indexed": true,
          "internalType": "address",
          "name": "_borrowerLiquidated",
          "type": "address"
        },
        {
          "indexed": false,
          "internalType": "address",
          "name": "_jRepayToken",
          "type": "address"
        },
        {
          "indexed": false,
          "internalType": "address",
          "name": "_jSeizeToken",
          "type": "address"
        },
        {
          "indexed": false,
          "internalType": "uint256",
          "name": "_repayAmount",
          "type": "uint256"
        },
        {
          "indexed": false,
          "internalType": "uint256",
          "name": "_profitedAVAX",
          "type": "uint256"
        }
      ],
      "name": "LiquidationEvent",
      "type": "event"
    },
    {
      "inputs": [],
      "name": "DAIE",
      "outputs": [
        {
          "internalType": "address",
          "name": "",
          "type": "address"
        }
      ],
      "stateMutability": "view",
      "type": "function"
    },
    {
      "inputs": [],
      "name": "LINKE",
      "outputs": [
        {
          "internalType": "address",
          "name": "",
          "type": "address"
        }
      ],
      "stateMutability": "view",
      "type": "function"
    },
    {
      "inputs": [],
      "name": "MIM",
      "outputs": [
        {
          "internalType": "address",
          "name": "",
          "type": "address"
        }
      ],
      "stateMutability": "view",
      "type": "function"
    },
    {
      "inputs": [],
      "name": "USDCE",
      "outputs": [
        {
          "internalType": "address",
          "name": "",
          "type": "address"
        }
      ],
      "stateMutability": "view",
      "type": "function"
    },
    {
      "inputs": [],
      "name": "USDTE",
      "outputs": [
        {
          "internalType": "address",
          "name": "",
          "type": "address"
        }
      ],
      "stateMutability": "view",
      "type": "function"
    },
    {
      "inputs": [],
      "name": "WAVAX",
      "outputs": [
        {
          "internalType": "address",
          "name": "",
          "type": "address"
        }
      ],
      "stateMutability": "view",
      "type": "function"
    },
    {
      "inputs": [],
      "name": "WBTCE",
      "outputs": [
        {
          "internalType": "address",
          "name": "",
          "type": "address"
        }
      ],
      "stateMutability": "view",
      "type": "function"
    },
    {
      "inputs": [],
      "name": "WETHE",
      "outputs": [
        {
          "internalType": "address",
          "name": "",
          "type": "address"
        }
      ],
      "stateMutability": "view",
      "type": "function"
    },
    {
      "inputs": [],
      "name": "jUSDCEAddress",
      "outputs": [
        {
          "internalType": "address",
          "name": "",
          "type": "address"
        }
      ],
      "stateMutability": "view",
      "type": "function"
    },
    {
      "inputs": [],
      "name": "jWETHEAddress",
      "outputs": [
        {
          "internalType": "address",
          "name": "",
          "type": "address"
        }
      ],
      "stateMutability": "view",
      "type": "function"
    },
    {
      "inputs": [],
      "name": "joeRouter02Address",
      "outputs": [
        {
          "internalType": "address",
          "name": "",
          "type": "address"
        }
      ],
      "stateMutability": "view",
      "type": "function"
    },
    {
      "inputs": [],
      "name": "joetrollerAddress",
      "outputs": [
        {
          "internalType": "address",
          "name": "",
          "type": "address"
        }
      ],
      "stateMutability": "view",
      "type": "function"
    },
    {
      "inputs": [
        {
          "internalType": "address",
          "name": "_borrowerToLiquidate",
          "type": "address"
        },
        {
          "internalType": "address",
          "name": "_jRepayTokenAddress",
          "type": "address"
        },
        {
          "internalType": "address",
          "name": "_jSeizeTokenAddress",
          "type": "address"
        }
      ],
      "name": "liquidate",
      "outputs": [],
      "stateMutability": "nonpayable",
      "type": "function"
    },
    {
      "inputs": [
        {
          "internalType": "address",
          "name": "_initiator",
          "type": "address"
        },
        {
          "internalType": "address",
          "name": "_flashLoanTokenAddress",
          "type": "address"
        },
        {
          "internalType": "uint256",
          "name": "_flashLoanAmount",
          "type": "uint256"
        },
        {
          "internalType": "uint256",
          "name": "_flashLoanFee",
          "type": "uint256"
        },
        {
          "internalType": "bytes",
          "name": "_data",
          "type": "bytes"
        }
      ],
      "name": "onFlashLoan",
      "outputs": [
        {
          "internalType": "bytes32",
          "name": "",
          "type": "bytes32"
        }
      ],
      "stateMutability": "nonpayable",
      "type": "function"
    }
  ],
  "bytecode": "0x60806040523480156200001157600080fd5b506040516200350d3803806200350d8339810160408190526200003491620000a5565b600080546001600160a01b039586166001600160a01b031991821617909155600180549486169482169490941790935560028054928516928416929092179091556003805491909316911617905562000101565b80516001600160a01b0381168114620000a057600080fd5b919050565b60008060008060808587031215620000bb578384fd5b620000c68562000088565b9350620000d66020860162000088565b9250620000e66040860162000088565b9150620000f66060860162000088565b905092959194509250565b6133fc80620001116000396000f3fe608060405234801561001057600080fd5b50600436106100ea5760003560e01c8063974ab80e1161008c578063daec383d11610066578063daec383d1461020a578063df403b2d14610225578063e62fbf6a14610238578063f4a836161461024b57600080fd5b8063974ab80e146101bf578063c2776d6f146101da578063ca5ce2ec146101f557600080fd5b80634350b345116100c85780634350b345146101635780635b189e2d1461017657806373b295c214610191578063897857b8146101ac57600080fd5b806311897d46146100ef578063195187e11461012757806323e30c8b14610142575b600080fd5b61010a7349d5c2bdffac6ce2bfdb6640f4f80f226bc10bab81565b6040516001600160a01b0390911681526020015b60405180910390f35b61010a73a7d7079b0fead91f3e65f86e8915cb59c1a4c66481565b610155610150366004612992565b610266565b60405190815260200161011e565b60035461010a906001600160a01b031681565b61010a7350b7545627a5162f82a992c33b87adc75187b21881565b61010a73b31f66aa3c1e785363f0875a1b74e27b85fd66c781565b60005461010a906001600160a01b031681565b61010a73c7198437980c041c805a1edcba50c1ce5db9511881565b61010a735947bb275c521040051d82396192181b413227a381565b610208610203366004612948565b610865565b005b61010a73130966628846bfd36ff31a822705796e8cb8c18d81565b60025461010a906001600160a01b031681565b60015461010a906001600160a01b031681565b61010a73d586e7f844cea2f87f50152665bcbc2c279d8d7081565b60008054604051633d98a1e560e01b81523360048201526001600160a01b0390911690633d98a1e59060240160206040518083038186803b1580156102aa57600080fd5b505afa1580156102be573d6000803e3d6000fd5b505050506040513d601f19601f820116820180604052508101906102e29190612af7565b6103595760405162461bcd60e51b815260206004820152603b60248201527f4a6f654c697175696461746f723a20556e74727573746564206d65737361676560448201527f2073656e6465722063616c6c696e67206f6e466c6173684c6f616e000000000060648201526084015b60405180910390fd5b61037a6040518060600160405280602a8152602001612e25602a91396109c3565b61038333610a09565b6103a4604051806060016040528060308152602001612e4f603091396109c3565b6103ad86610a09565b60006103bc8888888787610a51565b905060006103ca8787610c4f565b90506000826000015190506104578989836001600160a01b0316636f307dc36040518163ffffffff1660e01b8152600401602060405180830381600087803b15801561041557600080fd5b505af1158015610429573d6000803e3d6000fd5b505050506040513d601f19601f8201168201806040525081019061044d91906128aa565b8660600151610c62565b8260600151816001600160a01b0316636f307dc36040518163ffffffff1660e01b8152600401602060405180830381600087803b15801561049757600080fd5b505af11580156104ab573d6000803e3d6000fd5b505050506040513d601f19601f820116820180604052508101906104cf91906128aa565b6040516370a0823160e01b81523060048201526001600160a01b0391909116906370a082319060240160206040518083038186803b15801561051057600080fd5b505afa158015610524573d6000803e3d6000fd5b505050506040513d601f19601f820116820180604052508101906105489190612b17565b146105e15760405162461bcd60e51b815260206004820152605b60248201527f4a6f654c697175696461746f723a20457870656374656420746f20686176652060448201527f656e6f75676820756e6465726c79696e6720726570617920746f6b656e20746f60648201527f206c697175696461746520626f72726f7720706f736974696f6e2e0000000000608482015260a401610350565b6106ef604051806080016040528060478152602001612e7f60479139826001600160a01b0316636f307dc36040518163ffffffff1660e01b8152600401602060405180830381600087803b15801561063857600080fd5b505af115801561064c573d6000803e3d6000fd5b505050506040513d601f19601f8201168201806040525081019061067091906128aa565b6040516370a0823160e01b81523060048201526001600160a01b0391909116906370a08231906024015b60206040518083038186803b1580156106b257600080fd5b505afa1580156106c6573d6000803e3d6000fd5b505050506040513d601f19601f820116820180604052508101906106ea9190612b17565b610ef9565b61076a816001600160a01b0316636f307dc36040518163ffffffff1660e01b8152600401602060405180830381600087803b15801561072d57600080fd5b505af1158015610741573d6000803e3d6000fd5b505050506040513d601f19601f8201168201806040525081019061076591906128aa565b610a09565b61078281846040015185606001518660200151610f42565b61078f836020015161114b565b61079e83602001518a846112fa565b60006107ae8b8560200151611728565b905083604001516001600160a01b03167f1683d07b2bca5806ccc25a2d5ecdad3343784e4ed273236e2a53890b4f1d95a68560000151866020015187606001518560405161082394939291906001600160a01b0394851681529290931660208301526040820152606081019190915260800190565b60405180910390a26108358a84611b18565b507f7968ba28153757de2da7bce4c2ba9ebaf94445061f3050de1b0de5c34bb7d5d89a9950505050505050505050565b60008054604051635ec88c7960e01b81526001600160a01b0380871660048301528693921690635ec88c799060240160606040518083038186803b1580156108ac57600080fd5b505afa1580156108c0573d6000803e3d6000fd5b505050506040513d601f19601f820116820180604052508101906108e49190612b2f565b50915050801561095c5760405162461bcd60e51b815260206004820152603f60248201527f4a6f654c697175696461746f723a2043616e6e6f74206c69717569646174652060448201527f6163636f756e742077697468206e6f6e2d7a65726f206c6971756964697479006064820152608401610350565b61097d6040518060600160405280602c8152602001613171602c91396109c3565b600061098a868686611c0d565b90506109af6040518060600160405280603e815260200161319d603e913982876120eb565b6109bb86868684612132565b505050505050565b610a06816040516024016109d79190612c27565b60408051601f198184030181529190526020810180516001600160e01b031663104c13eb60e21b179052612342565b50565b6040516001600160a01b0382166024820152610a069060440160408051601f198184030181529190526020810180516001600160e01b031663161765e160e11b179052612342565b604080516080810182526000808252602082018190529181018290526060810182905290808080808080610a878a8a018b6128c6565b9650965096509650965096509650866001600160a01b03168d6001600160a01b031614610b065760405162461bcd60e51b815260206004820152602760248201527f4a6f654c697175696461746f723a20556e74727573746564206c6f616e20696e60448201526634ba34b0ba37b960c91b6064820152608401610350565b826001600160a01b03168c6001600160a01b031614610b9b5760405162461bcd60e51b8152602060048201526044602482018190527f4a6f654c697175696461746f723a20456e636f64656420646174612028666c61908201527f73684c6f616e6564546f6b656e416464726573732920646f6573206e6f74206d6064820152630c2e8c6d60e31b608482015260a401610350565b818b14610c105760405162461bcd60e51b815260206004820152603c60248201527f4a6f654c697175696461746f723a20456e636f64656420646174612028666c6160448201527f73684c6f616e416d6f756e742920646f6573206e6f74206d61746368000000006064820152608401610350565b604080516080810182526001600160a01b0396871681529486166020860152959094169483019490945250606081019190915298975050505050505050565b6000610c5b8284612d8c565b9392505050565b610c85604051806080016040528060528152602001613336605291398483612363565b610cad6040518060600160405280603e8152602001613265603e91396106ea848460006123aa565b60015460405163095ea7b360e01b81526001600160a01b039182166004820152602481018590529085169063095ea7b390604401600060405180830381600087803b158015610cfb57600080fd5b505af1158015610d0f573d6000803e3d6000fd5b506000925060029150610d1f9050565b604051908082528060200260200182016040528015610d48578160200160208202803683370190505b5090508481600081518110610d6d57634e487b7160e01b600052603260045260246000fd5b60200260200101906001600160a01b031690816001600160a01b0316815250508281600181518110610daf57634e487b7160e01b600052603260045260246000fd5b60200260200101906001600160a01b031690816001600160a01b0316815250506000610ddb858361256e565b9050610e506040518060600160405280603f8152602001613388603f913982600081518110610e1a57634e487b7160e01b600052603260045260246000fd5b602002602001015183600181518110610e4357634e487b7160e01b600052603260045260246000fd5b6020026020010151612363565b610e5986610a09565b610e6284610a09565b6001546040516338ed173960e01b81526001600160a01b03909116906338ed173990610e9a9088908790879030904290600401612d50565b600060405180830381600087803b158015610eb457600080fd5b505af1158015610ec8573d6000803e3d6000fd5b505050506040513d6000823e601f3d908101601f19168201604052610ef09190810190612a37565b50505050505050565b610f3e8282604051602401610f0f929190612c3a565b60408051601f198184030181529190526020810180516001600160e01b03166309710a9d60e41b179052612342565b5050565b836001600160a01b0316636f307dc36040518163ffffffff1660e01b8152600401602060405180830381600087803b158015610f7d57600080fd5b505af1158015610f91573d6000803e3d6000fd5b505050506040513d601f19601f82011682018060405250810190610fb591906128aa565b60405163095ea7b360e01b81526001600160a01b03868116600483015260248201859052919091169063095ea7b390604401600060405180830381600087803b15801561100157600080fd5b505af1158015611015573d6000803e3d6000fd5b5050604051637af1e23160e11b81526001600160a01b038681166004830152602482018690528481166044830152600093508716915063f5e3c46290606401602060405180830381600087803b15801561106e57600080fd5b505af1158015611082573d6000803e3d6000fd5b505050506040513d601f19601f820116820180604052508101906110a69190612b17565b905080156110d0576110d060405180608001604052806045815260200161309c6045913982610ef9565b80156111445760405162461bcd60e51b815260206004820152603760248201527f4a6f654c697175696461746f723a204572726f72206f6363757272656420747260448201527f79696e6720746f206c6971756964617465426f72726f770000000000000000006064820152608401610350565b5050505050565b6040516370a0823160e01b81523060048201526000906001600160a01b038316906370a082319060240160206040518083038186803b15801561118d57600080fd5b505afa1580156111a1573d6000803e3d6000fd5b505050506040513d601f19601f820116820180604052508101906111c59190612b17565b60405163db006a7560e01b8152600481018290529091506000906001600160a01b0384169063db006a7590602401602060405180830381600087803b15801561120d57600080fd5b505af1158015611221573d6000803e3d6000fd5b505050506040513d601f19601f820116820180604052508101906112459190612b17565b905080156112ca5760405162461bcd60e51b815260206004820152604660248201527f4a6f654c697175696461746f723a204572726f72206f6363757272656420747260448201527f79696e6720746f2072656465656d20756e6465726c79696e67207365697a6520606482015265746f6b656e7360d01b608482015260a401610350565b6112ec6040518060800160405280604381526020016130596043913983610ef9565b6112f583610a09565b505050565b61131c60405180608001604052806057815260200161311a6057913982610ef9565b60008390506000816001600160a01b0316636f307dc36040518163ffffffff1660e01b8152600401602060405180830381600087803b15801561135e57600080fd5b505af1158015611372573d6000803e3d6000fd5b505050506040513d601f19601f8201168201806040525081019061139691906128aa565b604080516002808252606082018352929350600092909160208301908036833701905050905081816000815181106113de57634e487b7160e01b600052603260045260246000fd5b60200260200101906001600160a01b031690816001600160a01b031681525050848160018151811061142057634e487b7160e01b600052603260045260246000fd5b60200260200101906001600160a01b031690816001600160a01b0316815250506114616040518060800160405280604481526020016131db604491396109c3565b61146a82610a09565b61147385610a09565b6001546040516307c0329d60e21b81526000916001600160a01b031690631f00ca74906114a69088908690600401612d37565b60006040518083038186803b1580156114be57600080fd5b505afa1580156114d2573d6000803e3d6000fd5b505050506040513d6000823e601f3d908101601f191682016040526114fa9190810190612a37565b60008151811061151a57634e487b7160e01b600052603260045260246000fd5b60200260200101519050611546604051806080016040528060458152602001612f8e6045913982610ef9565b60015460405163095ea7b360e01b81526001600160a01b03918216600482015260248101839052849182169063095ea7b390604401600060405180830381600087803b15801561159557600080fd5b505af11580156115a9573d6000803e3d6000fd5b505050506115f56040518060600160405280603981526020016130e1603991396040516370a0823160e01b81523060048201526001600160a01b038416906370a082319060240161069a565b6001546040516338ed173960e01b81526001600160a01b03909116906338ed17399061162d9085908a90889030904290600401612d50565b600060405180830381600087803b15801561164757600080fd5b505af115801561165b573d6000803e3d6000fd5b505050506040513d6000823e601f3d908101601f191682016040526116839190810190612a37565b506040516370a0823160e01b8152306004820152879087906001600160a01b038316906370a082319060240160206040518083038186803b1580156116c757600080fd5b505afa1580156116db573d6000803e3d6000fd5b505050506040513d601f19601f820116820180604052508101906116ff9190612b17565b101561171d5760405162461bcd60e51b815260040161035090612cb4565b505050505050505050565b6000808290506000816001600160a01b0316636f307dc36040518163ffffffff1660e01b8152600401602060405180830381600087803b15801561176b57600080fd5b505af115801561177f573d6000803e3d6000fd5b505050506040513d601f19601f820116820180604052508101906117a391906128aa565b6040516370a0823160e01b815230600482015290915081906000906001600160a01b038316906370a082319060240160206040518083038186803b1580156117ea57600080fd5b505afa1580156117fe573d6000803e3d6000fd5b505050506040513d601f19601f820116820180604052508101906118229190612b17565b9050600081116118ca5760405162461bcd60e51b815260206004820152606160248201527f4a6f654c697175696461746f723a20457870656374656420746f20686176652060448201527f72656d61696e696e67207365697a6520616d6f756e7420696e206f726465722060648201527f746f20686176652070726f66697465642066726f6d206c69717569646174696f6084820152603760f91b60a482015260c401610350565b6118ec6040518060800160405280604481526020016132cf6044913982610ef9565b60015460405163095ea7b360e01b81526001600160a01b039182166004820152602481018390529083169063095ea7b390604401600060405180830381600087803b15801561193a57600080fd5b505af115801561194e573d6000803e3d6000fd5b50600092506002915061195e9050565b604051908082528060200260200182016040528015611987578160200160208202803683370190505b50905083816000815181106119ac57634e487b7160e01b600052603260045260246000fd5b60200260200101906001600160a01b031690816001600160a01b03168152505073b31f66aa3c1e785363f0875a1b74e27b85fd66c781600181518110611a0257634e487b7160e01b600052603260045260246000fd5b6001600160a01b03928316602091820292909201015260015460405163676528d160e01b8152600092919091169063676528d190611a4c908690859087908f904290600401612d50565b600060405180830381600087803b158015611a6657600080fd5b505af1158015611a7a573d6000803e3d6000fd5b505050506040513d6000823e601f3d908101601f19168201604052611aa29190810190612a37565b9050611ae1604051806080016040528060458152602001612f176045913982600081518110610e1a57634e487b7160e01b600052603260045260246000fd5b80600181518110611b0257634e487b7160e01b600052603260045260246000fd5b6020026020010151965050505050505092915050565b6040516370a0823160e01b8152306004820152829082906001600160a01b038316906370a082319060240160206040518083038186803b158015611b5b57600080fd5b505afa158015611b6f573d6000803e3d6000fd5b505050506040513d601f19601f82011682018060405250810190611b939190612b17565b1015611bb15760405162461bcd60e51b815260040161035090612cb4565b60405163095ea7b360e01b8152336004820152602481018390526001600160a01b0382169063095ea7b390604401600060405180830381600087803b158015611bf957600080fd5b505af1158015610ef0573d6000803e3d6000fd5b60008060008054906101000a90046001600160a01b031690506000816001600160a01b0316637dc0d1d06040518163ffffffff1660e01b815260040160206040518083038186803b158015611c6157600080fd5b505afa158015611c75573d6000803e3d6000fd5b505050506040513d601f19601f82011682018060405250810190611c9991906128aa565b9050611cbc6040518060600160405280602c81526020016132a3602c91396109c3565b6000826001600160a01b031663e87554466040518163ffffffff1660e01b815260040160206040518083038186803b158015611cf757600080fd5b505afa158015611d0b573d6000803e3d6000fd5b505050506040513d601f19601f82011682018060405250810190611d2f9190612b17565b90506000836001600160a01b0316634ada90af6040518163ffffffff1660e01b815260040160206040518083038186803b158015611d6c57600080fd5b505afa158015611d80573d6000803e3d6000fd5b505050506040513d601f19601f82011682018060405250810190611da49190612b17565b9050611dc960405180608001604052806046815260200161321f604691398383612363565b60405163fc57d4df60e01b81526001600160a01b0388811660048301526000919085169063fc57d4df9060240160206040518083038186803b158015611e0e57600080fd5b505afa158015611e22573d6000803e3d6000fd5b505050506040513d601f19601f82011682018060405250810190611e469190612b17565b60405163fc57d4df60e01b81526001600160a01b03898116600483015291925060009186169063fc57d4df9060240160206040518083038186803b158015611e8d57600080fd5b505afa158015611ea1573d6000803e3d6000fd5b505050506040513d601f19601f82011682018060405250810190611ec59190612b17565b9050611eea6040518060800160405280605e8152602001612fd3605e91398383612363565b611f8e604051806080016040528060518152602001612ec6605191396040516395dd919360e01b81526001600160a01b038d811660048301528c16906395dd91939060240160206040518083038186803b158015611f4757600080fd5b505afa158015611f5b573d6000803e3d6000fd5b505050506040513d601f19601f82011682018060405250810190611f7f9190612b17565b611f898b8e6125f5565b612363565b6040516395dd919360e01b81526001600160a01b038b81166004830152600091670de0b6b3a7640000918791908d16906395dd91939060240160206040518083038186803b158015611fdf57600080fd5b505afa158015611ff3573d6000803e3d6000fd5b505050506040513d601f19601f820116820180604052508101906120179190612b17565b6120219190612dc4565b61202b9190612da4565b90506000670de0b6b3a7640000856120438c8f6125f5565b61204d9190612dc4565b6120579190612da4565b905061207c604051806060016040528060328152602001612f5c603291398585612363565b60006120888584612dc4565b905060006120968584612dc4565b905060008183106120a757816120a9565b825b90506120ce604051806060016040528060288152602001613031602891398888612363565b6120d88782612da4565b9f9e505050505050505050505050505050565b6112f583838360405160240161210393929190612c5c565b60408051601f198184030181529190526020810180516001600160e01b031663e3849f7960e01b179052612342565b6000836001600160a01b0316636f307dc36040518163ffffffff1660e01b8152600401602060405180830381600087803b15801561216f57600080fd5b505af1158015612183573d6000803e3d6000fd5b505050506040513d601f19601f820116820180604052508101906121a791906128aa565b90506001600160a01b03811673a7d7079b0fead91f3e65f86e8915cb59c1a4c6641460006121d68385846123aa565b905060006121e38361270c565b9050600033898989856001600160a01b0316636f307dc36040518163ffffffff1660e01b8152600401602060405180830381600087803b15801561222657600080fd5b505af115801561223a573d6000803e3d6000fd5b505050506040513d601f19601f8201168201806040525081019061225e91906128aa565b604080516001600160a01b0396871660208201529486169085015291841660608401528316608083015290911660a082015260c0810184905260e081018790526101000160408051601f1981840301815290829052632e7ff4ef60e11b825291506001600160a01b03831690635cffe9de906122e4903090339088908790600401612bea565b602060405180830381600087803b1580156122fe57600080fd5b505af1158015612312573d6000803e3d6000fd5b505050506040513d601f19601f820116820180604052508101906123369190612af7565b50505050505050505050565b80516a636f6e736f6c652e6c6f67602083016000808483855afa5050505050565b6112f583838360405160240161237b93929190612c8f565b60408051601f198184030181529190526020810180516001600160e01b031663969cdd0360e01b179052612342565b604080516002808252606082018352600092839291906020830190803683370190505090508215612430577349d5c2bdffac6ce2bfdb6640f4f80f226bc10bab8160008151811061240b57634e487b7160e01b600052603260045260246000fd5b60200260200101906001600160a01b031690816001600160a01b031681525050612487565b73a7d7079b0fead91f3e65f86e8915cb59c1a4c6648160008151811061246657634e487b7160e01b600052603260045260246000fd5b60200260200101906001600160a01b031690816001600160a01b0316815250505b84816001815181106124a957634e487b7160e01b600052603260045260246000fd5b6001600160a01b0392831660209182029290920101526001546040516307c0329d60e21b8152911690631f00ca74906124e89087908590600401612d37565b60006040518083038186803b15801561250057600080fd5b505afa158015612514573d6000803e3d6000fd5b505050506040513d6000823e601f3d908101601f1916820160405261253c9190810190612a37565b60008151811061255c57634e487b7160e01b600052603260045260246000fd5b60200260200101519150509392505050565b60015460405163d06ca61f60e01b81526060916001600160a01b03169063d06ca61f906125a19086908690600401612d37565b60006040518083038186803b1580156125b957600080fd5b505afa1580156125cd573d6000803e3d6000fd5b505050506040513d6000823e601f3d908101601f19168201604052610c5b9190810190612a37565b60008083905060006040518060200160405280836001600160a01b031663182df0f56040518163ffffffff1660e01b815260040160206040518083038186803b15801561264157600080fd5b505afa158015612655573d6000803e3d6000fd5b505050506040513d601f19601f820116820180604052508101906126799190612b17565b90526040516370a0823160e01b81526001600160a01b038681166004830152919250612703918391908516906370a082319060240160206040518083038186803b1580156126c657600080fd5b505afa1580156126da573d6000803e3d6000fd5b505050506040513d601f19601f820116820180604052508101906126fe9190612b17565b6127a2565b95945050505050565b6000811561275b57612735604051806060016040528060238152602001613313602391396109c3565b60035461274a906001600160a01b0316610a09565b50506003546001600160a01b031690565b61277c604051806060016040528060238152602001613313602391396109c3565b600254612791906001600160a01b0316610a09565b50506002546001600160a01b031690565b6000806127af84846127c2565b90506127ba816127f3565b949350505050565b60408051602081019091526000815260405180602001604052806127ea856000015185612811565b90529392505050565b805160009061280b90670de0b6b3a764000090612da4565b92915050565b6000610c5b83836040518060400160405280601781526020017f6d756c7469706c69636174696f6e206f766572666c6f77000000000000000000815250600083158061285b575082155b1561286857506000610c5b565b60006128748486612dc4565b9050836128818683612da4565b1483906128a15760405162461bcd60e51b81526004016103509190612c27565b50949350505050565b6000602082840312156128bb578081fd5b8151610c5b81612e0f565b600080600080600080600060e0888a0312156128e0578283fd5b87356128eb81612e0f565b965060208801356128fb81612e0f565b9550604088013561290b81612e0f565b9450606088013561291b81612e0f565b9350608088013561292b81612e0f565b9699959850939692959460a0840135945060c09093013592915050565b60008060006060848603121561295c578283fd5b833561296781612e0f565b9250602084013561297781612e0f565b9150604084013561298781612e0f565b809150509250925092565b60008060008060008060a087890312156129aa578182fd5b86356129b581612e0f565b955060208701356129c581612e0f565b94506040870135935060608701359250608087013567ffffffffffffffff808211156129ef578384fd5b818901915089601f830112612a02578384fd5b813581811115612a10578485fd5b8a6020828501011115612a21578485fd5b6020830194508093505050509295509295509295565b60006020808385031215612a49578182fd5b825167ffffffffffffffff80821115612a60578384fd5b818501915085601f830112612a73578384fd5b815181811115612a8557612a85612df9565b8060051b604051601f19603f83011681018181108582111715612aaa57612aaa612df9565b604052828152858101935084860182860187018a1015612ac8578788fd5b8795505b83861015612aea578051855260019590950194938601938601612acc565b5098975050505050505050565b600060208284031215612b08578081fd5b81518015158114610c5b578182fd5b600060208284031215612b28578081fd5b5051919050565b600080600060608486031215612b43578283fd5b8351925060208401519150604084015190509250925092565b6000815180845260208085019450808401835b83811015612b945781516001600160a01b031687529582019590820190600101612b6f565b509495945050505050565b60008151808452815b81811015612bc457602081850181015186830182015201612ba8565b81811115612bd55782602083870101525b50601f01601f19169290920160200192915050565b6001600160a01b0385811682528416602082015260408101839052608060608201819052600090612c1d90830184612b9f565b9695505050505050565b602081526000610c5b6020830184612b9f565b604081526000612c4d6040830185612b9f565b90508260208301529392505050565b606081526000612c6f6060830186612b9f565b6020830194909452506001600160a01b0391909116604090910152919050565b606081526000612ca26060830186612b9f565b60208301949094525060400152919050565b6020808252605f908201527f4a6f654c697175696461746f723a20457870656374656420746f20686176652060408201527f656e6f75676820746f6b656e7320746f20726570617920666c617368206c6f6160608201527f6e206166746572207377617070696e67207365697a656420746f6b656e732e00608082015260a00190565b8281526040602082015260006127ba6040830184612b5c565b85815284602082015260a060408201526000612d6f60a0830186612b5c565b6001600160a01b0394909416606083015250608001529392505050565b60008219821115612d9f57612d9f612de3565b500190565b600082612dbf57634e487b7160e01b81526012600452602481fd5b500490565b6000816000190483118215151615612dde57612dde612de3565b500290565b634e487b7160e01b600052601160045260246000fd5b634e487b7160e01b600052604160045260246000fd5b6001600160a01b0381168114610a0657600080fdfe5b4a6f654c697175696461746f725d206f6e466c6173684c6f616e207761732063616c6c65642062793a5b4a6f654c697175696461746f725d2054686520666c617368206c6f616e20746f6b656e20616464726573732069733a5b4a6f654c697175696461746f725d2041626f757420746f206c6971756964617465426f72726f772e20506f737365737320256420746f6b656e73206f6620616464726573733a5b4a6f654c697175696461746f725d20476f742063757272656e7420626f72726f772062616c616e6365202825642920616e642063757272656e74207365697a652062616c616e636520282564292e2e2e5b4a6f654c697175696461746f725d205375636365737366756c6c79207472616e7366657272656420616c6c2070726f666974746564204156415821202825642c202564295b4a6f654c697175696461746f725d20476f74206d617820726570617920616e64207365697a6520616d6f756e74732e2e2e5b4a6f654c697175696461746f725d20416d6f756e74206f66207365697a6520746f6b656e7320746f207377617020746f20666c61736820746f6b656e20282564292e2e2e5b4a6f654c697175696461746f725d20476f7420726570617920746f6b656e20756e6465726c79696e67207072696365202825642920616e64207365697a6520746f6b656e20756e6465726c79696e6720707269636520282564292e2e2e5b4a6f654c697175696461746f725d20476f74206d617820616d6f756e7420696e205553442e2e2e5b4a6f654c697175696461746f725d205375636365737366756c6c792072656465656d6564202564206a5365697a65546f6b656e73207769746820616464726573733a5b4a6f654c697175696461746f725d5b4552524f525d205265636569766564206572726f7220256420747279696e6720746f206c6971756964617465426f72726f772e2e2e5b4a6f654c697175696461746f725d20416d6f756e74206f66207365697a6520746f6b656e7320776520706f737365737320282564292e2e2e5b4a6f654c697175696461746f725d205377617070696e67207365697a6520746f6b656e7320746f20666c61736820746f6b656e7320746f20726570617920666c617368206c6f616e20746f74616c20282564292e2e2e5b4a6f654c697175696461746f725d2043616c63756c6174696e6720616d6f756e7420746f207061792e2e2e5b4a6f654c697175696461746f725d20476f696e6720746f20726570617920256420666f7220746f6b656e207769746820616464726573732025732e2e2e5b4a6f654c697175696461746f725d2043616c63756c6174696e6720616d6f756e74206f66207365697a6520746f6b656e20746f2073776170207769746820706174683a5b4a6f654c697175696461746f725d20476f7420636c6f736520666163746f72202825642920616e64206c697175646174696f6e20696e63656e7469766520282564292e2e2e5b4a6f654c697175696461746f725d20526563616c63756c6174696e6720666c617368206c6f616e20616d6f756e74206e656564656420282564292e2e2e5b4a6f654c697175696461746f725d20476f74206a6f6574726f6c6c657220616e64206f7261636c652e2e2e5b4a6f654c697175696461746f725d20576520686176652025642072656d61696e696e67207365697a6520746f6b656e7320746f207377617020746f20415641582e2e2e5b4a6f654c697175696461746f725d20466c617368206c6f616e696e672066726f6d3a5b4a6f654c697175696461746f725d205377617070696e6720666c617368206c6f616e20746f6b656e2028706f737365732025642920666f7220726570617920746f6b656e20286e656564202564292e2e2e5b4a6f654c697175696461746f725d2047657474696e6720616d6f756e7473206f75742072657475726e73202825642c20256429207769746820706174683aa264697066735822122008fd73ac15877f3273bbc904659dba36ada10e1d1a800119695ba93062b375bf64736f6c63430008040033",
  "linkReferences": {},
  "deployedLinkReferences": {}
}