{
  "_format": "hh-sol-artifact-1",
  "contractName": "JoeLiquidator",
  "sourceName": "contracts/JoeLiquidator.sol",
  "abi": [
    {
      "inputs": [
        {
          "internalType": "address",
          "name": "_joetrollerAddress",
          "type": "address"
        },
        {
          "internalType": "address",
          "name": "_joeRouter02Address",
          "type": "address"
        },
        {
          "internalType": "address",
          "name": "_jUSDCEAddress",
          "type": "address"
        },
        {
          "internalType": "address",
          "name": "_jWETHEAddress",
          "type": "address"
        }
      ],
      "stateMutability": "nonpayable",
      "type": "constructor"
    },
    {
      "anonymous": false,
      "inputs": [
        {
          "indexed": true,
          "internalType": "address",
          "name": "_borrowerLiquidated",
          "type": "address"
        },
        {
          "indexed": false,
          "internalType": "address",
          "name": "_jRepayToken",
          "type": "address"
        },
        {
          "indexed": false,
          "internalType": "address",
          "name": "_jSeizeToken",
          "type": "address"
        },
        {
          "indexed": false,
          "internalType": "uint256",
          "name": "_amountRepayed",
          "type": "uint256"
        },
        {
          "indexed": false,
          "internalType": "uint256",
          "name": "_profitedAVAX",
          "type": "uint256"
        }
      ],
      "name": "LiquidationEvent",
      "type": "event"
    },
    {
      "inputs": [],
      "name": "DAIE",
      "outputs": [
        {
          "internalType": "address",
          "name": "",
          "type": "address"
        }
      ],
      "stateMutability": "view",
      "type": "function"
    },
    {
      "inputs": [],
      "name": "LINKE",
      "outputs": [
        {
          "internalType": "address",
          "name": "",
          "type": "address"
        }
      ],
      "stateMutability": "view",
      "type": "function"
    },
    {
      "inputs": [],
      "name": "MIM",
      "outputs": [
        {
          "internalType": "address",
          "name": "",
          "type": "address"
        }
      ],
      "stateMutability": "view",
      "type": "function"
    },
    {
      "inputs": [],
      "name": "USDCE",
      "outputs": [
        {
          "internalType": "address",
          "name": "",
          "type": "address"
        }
      ],
      "stateMutability": "view",
      "type": "function"
    },
    {
      "inputs": [],
      "name": "USDTE",
      "outputs": [
        {
          "internalType": "address",
          "name": "",
          "type": "address"
        }
      ],
      "stateMutability": "view",
      "type": "function"
    },
    {
      "inputs": [],
      "name": "WAVAX",
      "outputs": [
        {
          "internalType": "address",
          "name": "",
          "type": "address"
        }
      ],
      "stateMutability": "view",
      "type": "function"
    },
    {
      "inputs": [],
      "name": "WBTCE",
      "outputs": [
        {
          "internalType": "address",
          "name": "",
          "type": "address"
        }
      ],
      "stateMutability": "view",
      "type": "function"
    },
    {
      "inputs": [],
      "name": "WETHE",
      "outputs": [
        {
          "internalType": "address",
          "name": "",
          "type": "address"
        }
      ],
      "stateMutability": "view",
      "type": "function"
    },
    {
      "inputs": [],
      "name": "jUSDCEAddress",
      "outputs": [
        {
          "internalType": "address",
          "name": "",
          "type": "address"
        }
      ],
      "stateMutability": "view",
      "type": "function"
    },
    {
      "inputs": [],
      "name": "jWETHEAddress",
      "outputs": [
        {
          "internalType": "address",
          "name": "",
          "type": "address"
        }
      ],
      "stateMutability": "view",
      "type": "function"
    },
    {
      "inputs": [],
      "name": "joeRouter02Address",
      "outputs": [
        {
          "internalType": "address",
          "name": "",
          "type": "address"
        }
      ],
      "stateMutability": "view",
      "type": "function"
    },
    {
      "inputs": [],
      "name": "joetrollerAddress",
      "outputs": [
        {
          "internalType": "address",
          "name": "",
          "type": "address"
        }
      ],
      "stateMutability": "view",
      "type": "function"
    },
    {
      "inputs": [
        {
          "internalType": "address",
          "name": "_borrowerToLiquidate",
          "type": "address"
        },
        {
          "internalType": "address",
          "name": "_jRepayTokenAddress",
          "type": "address"
        },
        {
          "internalType": "address",
          "name": "_jSeizeTokenAddress",
          "type": "address"
        }
      ],
      "name": "liquidate",
      "outputs": [],
      "stateMutability": "nonpayable",
      "type": "function"
    },
    {
      "inputs": [
        {
          "internalType": "address",
          "name": "_initiator",
          "type": "address"
        },
        {
          "internalType": "address",
          "name": "_flashLoanTokenAddress",
          "type": "address"
        },
        {
          "internalType": "uint256",
          "name": "_flashLoanAmount",
          "type": "uint256"
        },
        {
          "internalType": "uint256",
          "name": "_flashLoanFee",
          "type": "uint256"
        },
        {
          "internalType": "bytes",
          "name": "_data",
          "type": "bytes"
        }
      ],
      "name": "onFlashLoan",
      "outputs": [
        {
          "internalType": "bytes32",
          "name": "",
          "type": "bytes32"
        }
      ],
      "stateMutability": "nonpayable",
      "type": "function"
    }
  ],
  "bytecode": "0x60806040523480156200001157600080fd5b50604051620034d7380380620034d78339810160408190526200003491620000a5565b600080546001600160a01b039586166001600160a01b031991821617909155600180549486169482169490941790935560028054928516928416929092179091556003805491909316911617905562000101565b80516001600160a01b0381168114620000a057600080fd5b919050565b60008060008060808587031215620000bb578384fd5b620000c68562000088565b9350620000d66020860162000088565b9250620000e66040860162000088565b9150620000f66060860162000088565b905092959194509250565b6133c680620001116000396000f3fe608060405234801561001057600080fd5b50600436106100ea5760003560e01c8063974ab80e1161008c578063daec383d11610066578063daec383d1461020a578063df403b2d14610225578063e62fbf6a14610238578063f4a836161461024b57600080fd5b8063974ab80e146101bf578063c2776d6f146101da578063ca5ce2ec146101f557600080fd5b80634350b345116100c85780634350b345146101635780635b189e2d1461017657806373b295c214610191578063897857b8146101ac57600080fd5b806311897d46146100ef578063195187e11461012757806323e30c8b14610142575b600080fd5b61010a7349d5c2bdffac6ce2bfdb6640f4f80f226bc10bab81565b6040516001600160a01b0390911681526020015b60405180910390f35b61010a73a7d7079b0fead91f3e65f86e8915cb59c1a4c66481565b6101556101503660046129df565b610266565b60405190815260200161011e565b60035461010a906001600160a01b031681565b61010a7350b7545627a5162f82a992c33b87adc75187b21881565b61010a73b31f66aa3c1e785363f0875a1b74e27b85fd66c781565b60005461010a906001600160a01b031681565b61010a73c7198437980c041c805a1edcba50c1ce5db9511881565b61010a735947bb275c521040051d82396192181b413227a381565b610208610203366004612995565b61092c565b005b61010a73130966628846bfd36ff31a822705796e8cb8c18d81565b60025461010a906001600160a01b031681565b60015461010a906001600160a01b031681565b61010a73d586e7f844cea2f87f50152665bcbc2c279d8d7081565b60008054604051633d98a1e560e01b81523360048201526001600160a01b0390911690633d98a1e59060240160206040518083038186803b1580156102aa57600080fd5b505afa1580156102be573d6000803e3d6000fd5b505050506040513d601f19601f820116820180604052508101906102e29190612b44565b6103595760405162461bcd60e51b815260206004820152603b60248201527f4a6f654c697175696461746f723a20556e74727573746564206d65737361676560448201527f2073656e6465722063616c6c696e67206f6e466c6173684c6f616e000000000060648201526084015b60405180910390fd5b61037a6040518060600160405280602a8152602001612def602a9139610a8a565b61038333610ad0565b6103a4604051806060016040528060308152602001612e1960309139610a8a565b6103ad86610ad0565b60006103bc8888888787610b18565b90508660006103cb8888610d16565b60405163095ea7b360e01b8152336004820152602481018290529091506001600160a01b0383169063095ea7b390604401600060405180830381600087803b15801561041657600080fd5b505af115801561042a573d6000803e3d6000fd5b505050506000836000015190506104b98a8a836001600160a01b0316636f307dc36040518163ffffffff1660e01b8152600401602060405180830381600087803b15801561047757600080fd5b505af115801561048b573d6000803e3d6000fd5b505050506040513d601f19601f820116820180604052508101906104af91906128f6565b8760600151610d29565b8360600151816001600160a01b0316636f307dc36040518163ffffffff1660e01b8152600401602060405180830381600087803b1580156104f957600080fd5b505af115801561050d573d6000803e3d6000fd5b505050506040513d601f19601f8201168201806040525081019061053191906128f6565b6040516370a0823160e01b81523060048201526001600160a01b0391909116906370a082319060240160206040518083038186803b15801561057257600080fd5b505afa158015610586573d6000803e3d6000fd5b505050506040513d601f19601f820116820180604052508101906105aa9190612b64565b146106435760405162461bcd60e51b815260206004820152605b60248201527f4a6f654c697175696461746f723a20457870656374656420746f20686176652060448201527f656e6f75676820756e6465726c79696e6720726570617920746f6b656e20746f60648201527f206c697175696461746520626f72726f7720706f736974696f6e2e0000000000608482015260a401610350565b610751604051806080016040528060478152602001612e4960479139826001600160a01b0316636f307dc36040518163ffffffff1660e01b8152600401602060405180830381600087803b15801561069a57600080fd5b505af11580156106ae573d6000803e3d6000fd5b505050506040513d601f19601f820116820180604052508101906106d291906128f6565b6040516370a0823160e01b81523060048201526001600160a01b0391909116906370a08231906024015b60206040518083038186803b15801561071457600080fd5b505afa158015610728573d6000803e3d6000fd5b505050506040513d601f19601f8201168201806040525081019061074c9190612b64565b610fc0565b6107cc816001600160a01b0316636f307dc36040518163ffffffff1660e01b8152600401602060405180830381600087803b15801561078f57600080fd5b505af11580156107a3573d6000803e3d6000fd5b505050506040513d601f19601f820116820180604052508101906107c791906128f6565b610ad0565b6107e481856040015186606001518760200151611009565b6107f18460200151611212565b61080084602001518b846113c1565b60006108108c866020015161186b565b905084604001516001600160a01b03167f1683d07b2bca5806ccc25a2d5ecdad3343784e4ed273236e2a53890b4f1d95a6836001600160a01b0316636f307dc36040518163ffffffff1660e01b8152600401602060405180830381600087803b15801561087c57600080fd5b505af1158015610890573d6000803e3d6000fd5b505050506040513d601f19601f820116820180604052508101906108b491906128f6565b87602001518860600151856040516108f394939291906001600160a01b0394851681529290931660208301526040820152606081019190915260800190565b60405180910390a2507f7968ba28153757de2da7bce4c2ba9ebaf94445061f3050de1b0de5c34bb7d5d89b9a5050505050505050505050565b60008054604051635ec88c7960e01b81526001600160a01b0380871660048301528693921690635ec88c799060240160606040518083038186803b15801561097357600080fd5b505afa158015610987573d6000803e3d6000fd5b505050506040513d601f19601f820116820180604052508101906109ab9190612b7c565b509150508015610a235760405162461bcd60e51b815260206004820152603f60248201527f4a6f654c697175696461746f723a2043616e6e6f74206c69717569646174652060448201527f6163636f756e742077697468206e6f6e2d7a65726f206c6971756964697479006064820152608401610350565b610a446040518060600160405280602c815260200161313b602c9139610a8a565b6000610a51868686611c5b565b9050610a766040518060600160405280603e8152602001613167603e91398287612139565b610a8286868684612180565b505050505050565b610acd81604051602401610a9e9190612c74565b60408051601f198184030181529190526020810180516001600160e01b031663104c13eb60e21b17905261238e565b50565b6040516001600160a01b0382166024820152610acd9060440160408051601f198184030181529190526020810180516001600160e01b031663161765e160e11b17905261238e565b604080516080810182526000808252602082018190529181018290526060810182905290808080808080610b4e8a8a018b612912565b9650965096509650965096509650866001600160a01b03168d6001600160a01b031614610bcd5760405162461bcd60e51b815260206004820152602760248201527f4a6f654c697175696461746f723a20556e74727573746564206c6f616e20696e60448201526634ba34b0ba37b960c91b6064820152608401610350565b846001600160a01b03168c6001600160a01b031614610c625760405162461bcd60e51b8152602060048201526044602482018190527f4a6f654c697175696461746f723a20456e636f64656420646174612028666c61908201527f73684c6f616e6564546f6b656e416464726573732920646f6573206e6f74206d6064820152630c2e8c6d60e31b608482015260a401610350565b828b14610cd75760405162461bcd60e51b815260206004820152603c60248201527f4a6f654c697175696461746f723a20456e636f64656420646174612028666c6160448201527f73684c6f616e416d6f756e742920646f6573206e6f74206d61746368000000006064820152608401610350565b604080516080810182526001600160a01b0395861681529185166020830152959093169483019490945250606081019290925250979650505050505050565b6000610d228284612d56565b9392505050565b610d4c6040518060800160405280605281526020016133006052913984836123af565b610d746040518060600160405280603e815260200161322f603e913961074c848460006123f6565b60015460405163095ea7b360e01b81526001600160a01b039182166004820152602481018590529085169063095ea7b390604401600060405180830381600087803b158015610dc257600080fd5b505af1158015610dd6573d6000803e3d6000fd5b506000925060029150610de69050565b604051908082528060200260200182016040528015610e0f578160200160208202803683370190505b5090508481600081518110610e3457634e487b7160e01b600052603260045260246000fd5b60200260200101906001600160a01b031690816001600160a01b0316815250508281600181518110610e7657634e487b7160e01b600052603260045260246000fd5b60200260200101906001600160a01b031690816001600160a01b0316815250506000610ea285836125ba565b9050610f176040518060600160405280603f8152602001613352603f913982600081518110610ee157634e487b7160e01b600052603260045260246000fd5b602002602001015183600181518110610f0a57634e487b7160e01b600052603260045260246000fd5b60200260200101516123af565b610f2086610ad0565b610f2984610ad0565b6001546040516338ed173960e01b81526001600160a01b03909116906338ed173990610f619088908790879030904290600401612d1a565b600060405180830381600087803b158015610f7b57600080fd5b505af1158015610f8f573d6000803e3d6000fd5b505050506040513d6000823e601f3d908101601f19168201604052610fb79190810190612a84565b50505050505050565b6110058282604051602401610fd6929190612c87565b60408051601f198184030181529190526020810180516001600160e01b03166309710a9d60e41b17905261238e565b5050565b836001600160a01b0316636f307dc36040518163ffffffff1660e01b8152600401602060405180830381600087803b15801561104457600080fd5b505af1158015611058573d6000803e3d6000fd5b505050506040513d601f19601f8201168201806040525081019061107c91906128f6565b60405163095ea7b360e01b81526001600160a01b03868116600483015260248201859052919091169063095ea7b390604401600060405180830381600087803b1580156110c857600080fd5b505af11580156110dc573d6000803e3d6000fd5b5050604051637af1e23160e11b81526001600160a01b038681166004830152602482018690528481166044830152600093508716915063f5e3c46290606401602060405180830381600087803b15801561113557600080fd5b505af1158015611149573d6000803e3d6000fd5b505050506040513d601f19601f8201168201806040525081019061116d9190612b64565b90508015611197576111976040518060800160405280604581526020016130666045913982610fc0565b801561120b5760405162461bcd60e51b815260206004820152603760248201527f4a6f654c697175696461746f723a204572726f72206f6363757272656420747260448201527f79696e6720746f206c6971756964617465426f72726f770000000000000000006064820152608401610350565b5050505050565b6040516370a0823160e01b81523060048201526000906001600160a01b038316906370a082319060240160206040518083038186803b15801561125457600080fd5b505afa158015611268573d6000803e3d6000fd5b505050506040513d601f19601f8201168201806040525081019061128c9190612b64565b60405163db006a7560e01b8152600481018290529091506000906001600160a01b0384169063db006a7590602401602060405180830381600087803b1580156112d457600080fd5b505af11580156112e8573d6000803e3d6000fd5b505050506040513d601f19601f8201168201806040525081019061130c9190612b64565b905080156113915760405162461bcd60e51b815260206004820152604660248201527f4a6f654c697175696461746f723a204572726f72206f6363757272656420747260448201527f79696e6720746f2072656465656d20756e6465726c79696e67207365697a6520606482015265746f6b656e7360d01b608482015260a401610350565b6113b36040518060800160405280604381526020016130236043913983610fc0565b6113bc83610ad0565b505050565b6113e36040518060800160405280605781526020016130e46057913982610fc0565b60008390506000816001600160a01b0316636f307dc36040518163ffffffff1660e01b8152600401602060405180830381600087803b15801561142557600080fd5b505af1158015611439573d6000803e3d6000fd5b505050506040513d601f19601f8201168201806040525081019061145d91906128f6565b604080516002808252606082018352929350600092909160208301908036833701905050905081816000815181106114a557634e487b7160e01b600052603260045260246000fd5b60200260200101906001600160a01b031690816001600160a01b03168152505084816001815181106114e757634e487b7160e01b600052603260045260246000fd5b60200260200101906001600160a01b031690816001600160a01b0316815250506115286040518060800160405280604481526020016131a560449139610a8a565b61153182610ad0565b61153a85610ad0565b6001546040516307c0329d60e21b81526000916001600160a01b031690631f00ca749061156d9088908690600401612d01565b60006040518083038186803b15801561158557600080fd5b505afa158015611599573d6000803e3d6000fd5b505050506040513d6000823e601f3d908101601f191682016040526115c19190810190612a84565b6000815181106115e157634e487b7160e01b600052603260045260246000fd5b6020026020010151905061160d604051806080016040528060458152602001612f586045913982610fc0565b60015460405163095ea7b360e01b81526001600160a01b03918216600482015260248101839052849182169063095ea7b390604401600060405180830381600087803b15801561165c57600080fd5b505af1158015611670573d6000803e3d6000fd5b505050506116bc6040518060600160405280603981526020016130ab603991396040516370a0823160e01b81523060048201526001600160a01b038416906370a08231906024016106fc565b6001546040516338ed173960e01b81526001600160a01b03909116906338ed1739906116f49085908a90889030904290600401612d1a565b600060405180830381600087803b15801561170e57600080fd5b505af1158015611722573d6000803e3d6000fd5b505050506040513d6000823e601f3d908101601f1916820160405261174a9190810190612a84565b506040516370a0823160e01b8152306004820152879087906001600160a01b038316906370a082319060240160206040518083038186803b15801561178e57600080fd5b505afa1580156117a2573d6000803e3d6000fd5b505050506040513d601f19601f820116820180604052508101906117c69190612b64565b10156118605760405162461bcd60e51b815260206004820152605f60248201527f4a6f654c697175696461746f723a20457870656374656420746f20686176652060448201527f656e6f75676820746f6b656e7320746f20726570617920666c617368206c6f6160648201527f6e206166746572207377617070696e67207365697a656420746f6b656e732e00608482015260a401610350565b505050505050505050565b6000808290506000816001600160a01b0316636f307dc36040518163ffffffff1660e01b8152600401602060405180830381600087803b1580156118ae57600080fd5b505af11580156118c2573d6000803e3d6000fd5b505050506040513d601f19601f820116820180604052508101906118e691906128f6565b6040516370a0823160e01b815230600482015290915081906000906001600160a01b038316906370a082319060240160206040518083038186803b15801561192d57600080fd5b505afa158015611941573d6000803e3d6000fd5b505050506040513d601f19601f820116820180604052508101906119659190612b64565b905060008111611a0d5760405162461bcd60e51b815260206004820152606160248201527f4a6f654c697175696461746f723a20457870656374656420746f20686176652060448201527f72656d61696e696e67207365697a6520616d6f756e7420696e206f726465722060648201527f746f20686176652070726f66697465642066726f6d206c69717569646174696f6084820152603760f91b60a482015260c401610350565b611a2f6040518060800160405280604481526020016132996044913982610fc0565b60015460405163095ea7b360e01b81526001600160a01b039182166004820152602481018390529083169063095ea7b390604401600060405180830381600087803b158015611a7d57600080fd5b505af1158015611a91573d6000803e3d6000fd5b506000925060029150611aa19050565b604051908082528060200260200182016040528015611aca578160200160208202803683370190505b5090508381600081518110611aef57634e487b7160e01b600052603260045260246000fd5b60200260200101906001600160a01b031690816001600160a01b03168152505073b31f66aa3c1e785363f0875a1b74e27b85fd66c781600181518110611b4557634e487b7160e01b600052603260045260246000fd5b6001600160a01b03928316602091820292909201015260015460405163676528d160e01b8152600092919091169063676528d190611b8f908690859087908f904290600401612d1a565b600060405180830381600087803b158015611ba957600080fd5b505af1158015611bbd573d6000803e3d6000fd5b505050506040513d6000823e601f3d908101601f19168201604052611be59190810190612a84565b9050611c24604051806080016040528060458152602001612ee16045913982600081518110610ee157634e487b7160e01b600052603260045260246000fd5b80600181518110611c4557634e487b7160e01b600052603260045260246000fd5b6020026020010151965050505050505092915050565b60008060008054906101000a90046001600160a01b031690506000816001600160a01b0316637dc0d1d06040518163ffffffff1660e01b815260040160206040518083038186803b158015611caf57600080fd5b505afa158015611cc3573d6000803e3d6000fd5b505050506040513d601f19601f82011682018060405250810190611ce791906128f6565b9050611d0a6040518060600160405280602c815260200161326d602c9139610a8a565b6000826001600160a01b031663e87554466040518163ffffffff1660e01b815260040160206040518083038186803b158015611d4557600080fd5b505afa158015611d59573d6000803e3d6000fd5b505050506040513d601f19601f82011682018060405250810190611d7d9190612b64565b90506000836001600160a01b0316634ada90af6040518163ffffffff1660e01b815260040160206040518083038186803b158015611dba57600080fd5b505afa158015611dce573d6000803e3d6000fd5b505050506040513d601f19601f82011682018060405250810190611df29190612b64565b9050611e176040518060800160405280604681526020016131e96046913983836123af565b60405163fc57d4df60e01b81526001600160a01b0388811660048301526000919085169063fc57d4df9060240160206040518083038186803b158015611e5c57600080fd5b505afa158015611e70573d6000803e3d6000fd5b505050506040513d601f19601f82011682018060405250810190611e949190612b64565b60405163fc57d4df60e01b81526001600160a01b03898116600483015291925060009186169063fc57d4df9060240160206040518083038186803b158015611edb57600080fd5b505afa158015611eef573d6000803e3d6000fd5b505050506040513d601f19601f82011682018060405250810190611f139190612b64565b9050611f386040518060800160405280605e8152602001612f9d605e913983836123af565b611fdc604051806080016040528060518152602001612e90605191396040516395dd919360e01b81526001600160a01b038d811660048301528c16906395dd91939060240160206040518083038186803b158015611f9557600080fd5b505afa158015611fa9573d6000803e3d6000fd5b505050506040513d601f19601f82011682018060405250810190611fcd9190612b64565b611fd78b8e612641565b6123af565b6040516395dd919360e01b81526001600160a01b038b81166004830152600091670de0b6b3a7640000918791908d16906395dd91939060240160206040518083038186803b15801561202d57600080fd5b505afa158015612041573d6000803e3d6000fd5b505050506040513d601f19601f820116820180604052508101906120659190612b64565b61206f9190612d8e565b6120799190612d6e565b90506000670de0b6b3a7640000856120918c8f612641565b61209b9190612d8e565b6120a59190612d6e565b90506120ca604051806060016040528060328152602001612f266032913985856123af565b60006120d68584612d8e565b905060006120e48584612d8e565b905060008183106120f557816120f7565b825b905061211c604051806060016040528060288152602001612ffb6028913988886123af565b6121268782612d6e565b9f9e505050505050505050505050505050565b6113bc83838360405160240161215193929190612ca9565b60408051601f198184030181529190526020810180516001600160e01b031663e3849f7960e01b17905261238e565b6000836001600160a01b0316636f307dc36040518163ffffffff1660e01b8152600401602060405180830381600087803b1580156121bd57600080fd5b505af11580156121d1573d6000803e3d6000fd5b505050506040513d601f19601f820116820180604052508101906121f591906128f6565b90506001600160a01b03811673a7d7079b0fead91f3e65f86e8915cb59c1a4c6641460006122248385846123f6565b9050600061223183612758565b905060003389836001600160a01b0316636f307dc36040518163ffffffff1660e01b8152600401602060405180830381600087803b15801561227257600080fd5b505af1158015612286573d6000803e3d6000fd5b505050506040513d601f19601f820116820180604052508101906122aa91906128f6565b604080516001600160a01b0394851660208201529284169083015282166060820152818a16608082015260a0810185905260c0810188905290881660e08201526101000160408051601f1981840301815290829052632e7ff4ef60e11b825291506001600160a01b03831690635cffe9de90612330903090339088908790600401612c37565b602060405180830381600087803b15801561234a57600080fd5b505af115801561235e573d6000803e3d6000fd5b505050506040513d601f19601f820116820180604052508101906123829190612b44565b50505050505050505050565b80516a636f6e736f6c652e6c6f67602083016000808483855afa5050505050565b6113bc8383836040516024016123c793929190612cdc565b60408051601f198184030181529190526020810180516001600160e01b031663969cdd0360e01b17905261238e565b60408051600280825260608201835260009283929190602083019080368337019050509050821561247c577349d5c2bdffac6ce2bfdb6640f4f80f226bc10bab8160008151811061245757634e487b7160e01b600052603260045260246000fd5b60200260200101906001600160a01b031690816001600160a01b0316815250506124d3565b73a7d7079b0fead91f3e65f86e8915cb59c1a4c664816000815181106124b257634e487b7160e01b600052603260045260246000fd5b60200260200101906001600160a01b031690816001600160a01b0316815250505b84816001815181106124f557634e487b7160e01b600052603260045260246000fd5b6001600160a01b0392831660209182029290920101526001546040516307c0329d60e21b8152911690631f00ca74906125349087908590600401612d01565b60006040518083038186803b15801561254c57600080fd5b505afa158015612560573d6000803e3d6000fd5b505050506040513d6000823e601f3d908101601f191682016040526125889190810190612a84565b6000815181106125a857634e487b7160e01b600052603260045260246000fd5b60200260200101519150509392505050565b60015460405163d06ca61f60e01b81526060916001600160a01b03169063d06ca61f906125ed9086908690600401612d01565b60006040518083038186803b15801561260557600080fd5b505afa158015612619573d6000803e3d6000fd5b505050506040513d6000823e601f3d908101601f19168201604052610d229190810190612a84565b60008083905060006040518060200160405280836001600160a01b031663182df0f56040518163ffffffff1660e01b815260040160206040518083038186803b15801561268d57600080fd5b505afa1580156126a1573d6000803e3d6000fd5b505050506040513d601f19601f820116820180604052508101906126c59190612b64565b90526040516370a0823160e01b81526001600160a01b03868116600483015291925061274f918391908516906370a082319060240160206040518083038186803b15801561271257600080fd5b505afa158015612726573d6000803e3d6000fd5b505050506040513d601f19601f8201168201806040525081019061274a9190612b64565b6127ee565b95945050505050565b600081156127a7576127816040518060600160405280602381526020016132dd60239139610a8a565b600354612796906001600160a01b0316610ad0565b50506003546001600160a01b031690565b6127c86040518060600160405280602381526020016132dd60239139610a8a565b6002546127dd906001600160a01b0316610ad0565b50506002546001600160a01b031690565b6000806127fb848461280e565b90506128068161283f565b949350505050565b604080516020810190915260008152604051806020016040528061283685600001518561285d565b90529392505050565b805160009061285790670de0b6b3a764000090612d6e565b92915050565b6000610d2283836040518060400160405280601781526020017f6d756c7469706c69636174696f6e206f766572666c6f7700000000000000000081525060008315806128a7575082155b156128b457506000610d22565b60006128c08486612d8e565b9050836128cd8683612d6e565b1483906128ed5760405162461bcd60e51b81526004016103509190612c74565b50949350505050565b600060208284031215612907578081fd5b8151610d2281612dd9565b600080600080600080600060e0888a03121561292c578283fd5b873561293781612dd9565b9650602088013561294781612dd9565b9550604088013561295781612dd9565b9450606088013561296781612dd9565b93506080880135925060a0880135915060c088013561298581612dd9565b8091505092959891949750929550565b6000806000606084860312156129a9578283fd5b83356129b481612dd9565b925060208401356129c481612dd9565b915060408401356129d481612dd9565b809150509250925092565b60008060008060008060a087890312156129f7578182fd5b8635612a0281612dd9565b95506020870135612a1281612dd9565b94506040870135935060608701359250608087013567ffffffffffffffff80821115612a3c578384fd5b818901915089601f830112612a4f578384fd5b813581811115612a5d578485fd5b8a6020828501011115612a6e578485fd5b6020830194508093505050509295509295509295565b60006020808385031215612a96578182fd5b825167ffffffffffffffff80821115612aad578384fd5b818501915085601f830112612ac0578384fd5b815181811115612ad257612ad2612dc3565b8060051b604051601f19603f83011681018181108582111715612af757612af7612dc3565b604052828152858101935084860182860187018a1015612b15578788fd5b8795505b83861015612b37578051855260019590950194938601938601612b19565b5098975050505050505050565b600060208284031215612b55578081fd5b81518015158114610d22578182fd5b600060208284031215612b75578081fd5b5051919050565b600080600060608486031215612b90578283fd5b8351925060208401519150604084015190509250925092565b6000815180845260208085019450808401835b83811015612be15781516001600160a01b031687529582019590820190600101612bbc565b509495945050505050565b60008151808452815b81811015612c1157602081850181015186830182015201612bf5565b81811115612c225782602083870101525b50601f01601f19169290920160200192915050565b6001600160a01b0385811682528416602082015260408101839052608060608201819052600090612c6a90830184612bec565b9695505050505050565b602081526000610d226020830184612bec565b604081526000612c9a6040830185612bec565b90508260208301529392505050565b606081526000612cbc6060830186612bec565b6020830194909452506001600160a01b0391909116604090910152919050565b606081526000612cef6060830186612bec565b60208301949094525060400152919050565b8281526040602082015260006128066040830184612ba9565b85815284602082015260a060408201526000612d3960a0830186612ba9565b6001600160a01b0394909416606083015250608001529392505050565b60008219821115612d6957612d69612dad565b500190565b600082612d8957634e487b7160e01b81526012600452602481fd5b500490565b6000816000190483118215151615612da857612da8612dad565b500290565b634e487b7160e01b600052601160045260246000fd5b634e487b7160e01b600052604160045260246000fd5b6001600160a01b0381168114610acd57600080fdfe5b4a6f654c697175696461746f725d206f6e466c6173684c6f616e207761732063616c6c65642062793a5b4a6f654c697175696461746f725d2054686520666c617368206c6f616e20746f6b656e20616464726573732069733a5b4a6f654c697175696461746f725d2041626f757420746f206c6971756964617465426f72726f772e20506f737365737320256420746f6b656e73206f6620616464726573733a5b4a6f654c697175696461746f725d20476f742063757272656e7420626f72726f772062616c616e6365202825642920616e642063757272656e74207365697a652062616c616e636520282564292e2e2e5b4a6f654c697175696461746f725d205375636365737366756c6c79207472616e7366657272656420616c6c2070726f666974746564204156415821202825642c202564295b4a6f654c697175696461746f725d20476f74206d617820726570617920616e64207365697a6520616d6f756e74732e2e2e5b4a6f654c697175696461746f725d20416d6f756e74206f66207365697a6520746f6b656e7320746f207377617020746f20666c61736820746f6b656e20282564292e2e2e5b4a6f654c697175696461746f725d20476f7420726570617920746f6b656e20756e6465726c79696e67207072696365202825642920616e64207365697a6520746f6b656e20756e6465726c79696e6720707269636520282564292e2e2e5b4a6f654c697175696461746f725d20476f74206d617820616d6f756e7420696e205553442e2e2e5b4a6f654c697175696461746f725d205375636365737366756c6c792072656465656d6564202564206a5365697a65546f6b656e73207769746820616464726573733a5b4a6f654c697175696461746f725d5b4552524f525d205265636569766564206572726f7220256420747279696e6720746f206c6971756964617465426f72726f772e2e2e5b4a6f654c697175696461746f725d20416d6f756e74206f66207365697a6520746f6b656e7320776520706f737365737320282564292e2e2e5b4a6f654c697175696461746f725d205377617070696e67207365697a6520746f6b656e7320746f20666c61736820746f6b656e7320746f20726570617920666c617368206c6f616e20746f74616c20282564292e2e2e5b4a6f654c697175696461746f725d2043616c63756c6174696e6720616d6f756e7420746f207061792e2e2e5b4a6f654c697175696461746f725d20476f696e6720746f20726570617920256420666f7220746f6b656e207769746820616464726573732025732e2e2e5b4a6f654c697175696461746f725d2043616c63756c6174696e6720616d6f756e74206f66207365697a6520746f6b656e20746f2073776170207769746820706174683a5b4a6f654c697175696461746f725d20476f7420636c6f736520666163746f72202825642920616e64206c697175646174696f6e20696e63656e7469766520282564292e2e2e5b4a6f654c697175696461746f725d20526563616c63756c6174696e6720666c617368206c6f616e20616d6f756e74206e656564656420282564292e2e2e5b4a6f654c697175696461746f725d20476f74206a6f6574726f6c6c657220616e64206f7261636c652e2e2e5b4a6f654c697175696461746f725d20576520686176652025642072656d61696e696e67207365697a6520746f6b656e7320746f207377617020746f20415641582e2e2e5b4a6f654c697175696461746f725d20466c617368206c6f616e696e672066726f6d3a5b4a6f654c697175696461746f725d205377617070696e6720666c617368206c6f616e20746f6b656e2028706f737365732025642920666f7220726570617920746f6b656e20286e656564202564292e2e2e5b4a6f654c697175696461746f725d2047657474696e6720616d6f756e7473206f75742072657475726e73202825642c20256429207769746820706174683aa2646970667358221220d7f9f824a33353223e50b0ed9b3af88b01945cc1fa40b804b0990d9a50968d4764736f6c63430008040033",
  "linkReferences": {},
  "deployedLinkReferences": {}
}