{
  "_format": "hh-sol-artifact-1",
  "contractName": "JoeLiquidator",
  "sourceName": "contracts/JoeLiquidator.sol",
  "abi": [
    {
      "inputs": [
        {
          "internalType": "address",
          "name": "_joetrollerAddress",
          "type": "address"
        },
        {
          "internalType": "address",
          "name": "_joeRouter02Address",
          "type": "address"
        },
        {
          "internalType": "address",
          "name": "_jUSDCEAddress",
          "type": "address"
        },
        {
          "internalType": "address",
          "name": "_jWETHEAddress",
          "type": "address"
        }
      ],
      "stateMutability": "nonpayable",
      "type": "constructor"
    },
    {
      "inputs": [],
      "name": "DAIE",
      "outputs": [
        {
          "internalType": "address",
          "name": "",
          "type": "address"
        }
      ],
      "stateMutability": "view",
      "type": "function"
    },
    {
      "inputs": [],
      "name": "LINKE",
      "outputs": [
        {
          "internalType": "address",
          "name": "",
          "type": "address"
        }
      ],
      "stateMutability": "view",
      "type": "function"
    },
    {
      "inputs": [],
      "name": "MIM",
      "outputs": [
        {
          "internalType": "address",
          "name": "",
          "type": "address"
        }
      ],
      "stateMutability": "view",
      "type": "function"
    },
    {
      "inputs": [],
      "name": "USDCE",
      "outputs": [
        {
          "internalType": "address",
          "name": "",
          "type": "address"
        }
      ],
      "stateMutability": "view",
      "type": "function"
    },
    {
      "inputs": [],
      "name": "USDTE",
      "outputs": [
        {
          "internalType": "address",
          "name": "",
          "type": "address"
        }
      ],
      "stateMutability": "view",
      "type": "function"
    },
    {
      "inputs": [],
      "name": "WAVAX",
      "outputs": [
        {
          "internalType": "address",
          "name": "",
          "type": "address"
        }
      ],
      "stateMutability": "view",
      "type": "function"
    },
    {
      "inputs": [],
      "name": "WBTCE",
      "outputs": [
        {
          "internalType": "address",
          "name": "",
          "type": "address"
        }
      ],
      "stateMutability": "view",
      "type": "function"
    },
    {
      "inputs": [],
      "name": "WETHE",
      "outputs": [
        {
          "internalType": "address",
          "name": "",
          "type": "address"
        }
      ],
      "stateMutability": "view",
      "type": "function"
    },
    {
      "inputs": [
        {
          "internalType": "address",
          "name": "_jRepayTokenAddress",
          "type": "address"
        },
        {
          "internalType": "uint256",
          "name": "_repayAmount",
          "type": "uint256"
        },
        {
          "internalType": "address",
          "name": "_borrowerToLiquidate",
          "type": "address"
        },
        {
          "internalType": "bool",
          "name": "_isRepayTokenUSDC",
          "type": "bool"
        },
        {
          "internalType": "address",
          "name": "_jSeizeTokenAddress",
          "type": "address"
        }
      ],
      "name": "doFlashloan",
      "outputs": [],
      "stateMutability": "nonpayable",
      "type": "function"
    },
    {
      "inputs": [],
      "name": "jUSDCEAddress",
      "outputs": [
        {
          "internalType": "address",
          "name": "",
          "type": "address"
        }
      ],
      "stateMutability": "view",
      "type": "function"
    },
    {
      "inputs": [],
      "name": "jWETHEAddress",
      "outputs": [
        {
          "internalType": "address",
          "name": "",
          "type": "address"
        }
      ],
      "stateMutability": "view",
      "type": "function"
    },
    {
      "inputs": [],
      "name": "joeRouter02Address",
      "outputs": [
        {
          "internalType": "address",
          "name": "",
          "type": "address"
        }
      ],
      "stateMutability": "view",
      "type": "function"
    },
    {
      "inputs": [],
      "name": "joetrollerAddress",
      "outputs": [
        {
          "internalType": "address",
          "name": "",
          "type": "address"
        }
      ],
      "stateMutability": "view",
      "type": "function"
    },
    {
      "inputs": [
        {
          "internalType": "address",
          "name": "_initiator",
          "type": "address"
        },
        {
          "internalType": "address",
          "name": "_flashLoanTokenAddress",
          "type": "address"
        },
        {
          "internalType": "uint256",
          "name": "_flashLoanAmount",
          "type": "uint256"
        },
        {
          "internalType": "uint256",
          "name": "_flashLoanFee",
          "type": "uint256"
        },
        {
          "internalType": "bytes",
          "name": "_data",
          "type": "bytes"
        }
      ],
      "name": "onFlashLoan",
      "outputs": [
        {
          "internalType": "bytes32",
          "name": "",
          "type": "bytes32"
        }
      ],
      "stateMutability": "nonpayable",
      "type": "function"
    }
  ],
  "bytecode": "0x60806040523480156200001157600080fd5b5060405162001727380380620017278339810160408190526200003491620000a5565b600080546001600160a01b039586166001600160a01b031991821617909155600180549486169482169490941790935560028054928516928416929092179091556003805491909316911617905562000101565b80516001600160a01b0381168114620000a057600080fd5b919050565b60008060008060808587031215620000bb578384fd5b620000c68562000088565b9350620000d66020860162000088565b9250620000e66040860162000088565b9150620000f66060860162000088565b905092959194509250565b61161680620001116000396000f3fe608060405234801561001057600080fd5b50600436106100ea5760003560e01c8063974ab80e1161008c578063daec383d11610066578063daec383d1461020a578063df403b2d14610225578063e62fbf6a14610238578063f4a836161461024b57600080fd5b8063974ab80e146101bf578063bb670a7b146101da578063c2776d6f146101ef57600080fd5b80634350b345116100c85780634350b345146101635780635b189e2d1461017657806373b295c214610191578063897857b8146101ac57600080fd5b806311897d46146100ef578063195187e11461012757806323e30c8b14610142575b600080fd5b61010a7349d5c2bdffac6ce2bfdb6640f4f80f226bc10bab81565b6040516001600160a01b0390911681526020015b60405180910390f35b61010a73a7d7079b0fead91f3e65f86e8915cb59c1a4c66481565b61015561015036600461126a565b610266565b60405190815260200161011e565b60035461010a906001600160a01b031681565b61010a7350b7545627a5162f82a992c33b87adc75187b21881565b61010a73b31f66aa3c1e785363f0875a1b74e27b85fd66c781565b60005461010a906001600160a01b031681565b61010a73c7198437980c041c805a1edcba50c1ce5db9511881565b6101ed6101e836600461130f565b610688565b005b61010a735947bb275c521040051d82396192181b413227a381565b61010a73130966628846bfd36ff31a822705796e8cb8c18d81565b60025461010a906001600160a01b031681565b60015461010a906001600160a01b031681565b61010a73d586e7f844cea2f87f50152665bcbc2c279d8d7081565b60008054604051633d98a1e560e01b81523360048201526001600160a01b0390911690633d98a1e59060240160206040518083038186803b1580156102aa57600080fd5b505afa1580156102be573d6000803e3d6000fd5b505050506040513d601f19601f820116820180604052508101906102e29190611436565b6103435760405162461bcd60e51b815260206004820152602760248201527f4a6f654c697175696461746f723a20556e74727573746564206d6573736167656044820152661039b2b73232b960c91b60648201526084015b60405180910390fd5b6040805160808101825260008082526020820181905291810182905260608101829052908080808080806103798b8b018c6111e7565b9650965096509650965096509650866001600160a01b03168f6001600160a01b0316146103f85760405162461bcd60e51b815260206004820152602760248201527f4a6f654c697175696461746f723a20556e74727573746564206c6f616e20696e60448201526634ba34b0ba37b960c91b606482015260840161033a565b846001600160a01b03168e6001600160a01b03161461048d5760405162461bcd60e51b8152602060048201526044602482018190527f4a6f654c697175696461746f723a20456e636f64656420646174612028666c61908201527f73684c6f616e6564546f6b656e416464726573732920646f6573206e6f74206d6064820152630c2e8c6d60e31b608482015260a40161033a565b828d146105025760405162461bcd60e51b815260206004820152603c60248201527f4a6f654c697175696461746f723a20456e636f64656420646174612028666c6160448201527f73684c6f616e416d6f756e742920646f6573206e6f74206d6174636800000000606482015260840161033a565b6001600160a01b039586166040890152928516875260608701525090911660208401525087905060006105358888610876565b60405163095ea7b360e01b8152336004820152602481018290529091506001600160a01b0383169063095ea7b390604401600060405180830381600087803b15801561058057600080fd5b505af1158015610594573d6000803e3d6000fd5b505050506000836000015190506106238a8a836001600160a01b0316636f307dc36040518163ffffffff1660e01b8152600401602060405180830381600087803b1580156105e157600080fd5b505af11580156105f5573d6000803e3d6000fd5b505050506040513d601f19601f8201168201806040525081019061061991906111cb565b8760600151610889565b61063b81856040015186606001518760200151610a2e565b61064a84602001518b84610b39565b6106588b8560200151610d5d565b507f7968ba28153757de2da7bce4c2ba9ebaf94445061f3050de1b0de5c34bb7d5d89a9950505050505050505050565b6000856001600160a01b0316636f307dc36040518163ffffffff1660e01b8152600401602060405180830381600087803b1580156106c557600080fd5b505af11580156106d9573d6000803e3d6000fd5b505050506040513d601f19601f820116820180604052508101906106fd91906111cb565b9050600061070c828786610fdd565b90506000610719856111a1565b905060003387836001600160a01b0316636f307dc36040518163ffffffff1660e01b8152600401602060405180830381600087803b15801561075a57600080fd5b505af115801561076e573d6000803e3d6000fd5b505050506040513d601f19601f8201168201806040525081019061079291906111cb565b604080516001600160a01b0394851660208201529284169083015282166060820152818b16608082015260a0810185905260c081018a905290861660e08201526101000160408051601f1981840301815290829052632e7ff4ef60e11b825291506001600160a01b03831690635cffe9de906108189030903390889087906004016114ad565b602060405180830381600087803b15801561083257600080fd5b505af1158015610846573d6000803e3d6000fd5b505050506040513d601f19601f8201168201806040525081019061086a9190611436565b50505050505050505050565b60006108828284611580565b9392505050565b60015460405163095ea7b360e01b81526001600160a01b039182166004820152602481018590529085169063095ea7b390604401600060405180830381600087803b1580156108d757600080fd5b505af11580156108eb573d6000803e3d6000fd5b5060009250600291506108fb9050565b604051908082528060200260200182016040528015610924578160200160208202803683370190505b509050848160008151811061094957634e487b7160e01b600052603260045260246000fd5b60200260200101906001600160a01b031690816001600160a01b031681525050828160018151811061098b57634e487b7160e01b600052603260045260246000fd5b6001600160a01b0392831660209182029290920101526001546040516338ed173960e01b81529116906338ed1739906109d09087908690869030904290600401611544565b600060405180830381600087803b1580156109ea57600080fd5b505af11580156109fe573d6000803e3d6000fd5b505050506040513d6000823e601f3d908101601f19168201604052610a269190810190611376565b505050505050565b604051637af1e23160e11b81526001600160a01b0384811660048301526024820184905282811660448301526000919086169063f5e3c46290606401602060405180830381600087803b158015610a8457600080fd5b505af1158015610a98573d6000803e3d6000fd5b505050506040513d601f19601f82011682018060405250810190610abc9190611452565b90508015610b325760405162461bcd60e51b815260206004820152603760248201527f4a6f654c697175696461746f723a204572726f72206f6363757272656420747260448201527f79696e6720746f206c6971756964617465426f72726f77000000000000000000606482015260840161033a565b5050505050565b6040516370a0823160e01b815230600482015283906000906001600160a01b038316906370a082319060240160206040518083038186803b158015610b7d57600080fd5b505afa158015610b91573d6000803e3d6000fd5b505050506040513d601f19601f82011682018060405250810190610bb59190611452565b60015460405163095ea7b360e01b81526001600160a01b0391821660048201526024810183905291925083169063095ea7b390604401600060405180830381600087803b158015610c0557600080fd5b505af1158015610c19573d6000803e3d6000fd5b506000925060029150610c299050565b604051908082528060200260200182016040528015610c52578160200160208202803683370190505b5090508581600081518110610c7757634e487b7160e01b600052603260045260246000fd5b60200260200101906001600160a01b031690816001600160a01b0316815250508481600181518110610cb957634e487b7160e01b600052603260045260246000fd5b6001600160a01b0392831660209182029290920101526001546040516338ed173960e01b81529116906338ed173990610cfe9085908890869030904290600401611544565b600060405180830381600087803b158015610d1857600080fd5b505af1158015610d2c573d6000803e3d6000fd5b505050506040513d6000823e601f3d908101601f19168201604052610d549190810190611376565b50505050505050565b6040516370a0823160e01b815230600482015281906000906001600160a01b038316906370a082319060240160206040518083038186803b158015610da157600080fd5b505afa158015610db5573d6000803e3d6000fd5b505050506040513d601f19601f82011682018060405250810190610dd99190611452565b905060008111610e815760405162461bcd60e51b815260206004820152606160248201527f4a6f654c697175696461746f723a20457870656374656420746f20686176652060448201527f72656d61696e696e67207365697a6520616d6f756e7420696e206f726465722060648201527f746f20686176652070726f66697465642066726f6d206c69717569646174696f6084820152603760f91b60a482015260c40161033a565b60015460405163095ea7b360e01b81526001600160a01b039182166004820152602481018390529083169063095ea7b390604401600060405180830381600087803b158015610ecf57600080fd5b505af1158015610ee3573d6000803e3d6000fd5b506000925060029150610ef39050565b604051908082528060200260200182016040528015610f1c578160200160208202803683370190505b5090508381600081518110610f4157634e487b7160e01b600052603260045260246000fd5b60200260200101906001600160a01b031690816001600160a01b03168152505073b31f66aa3c1e785363f0875a1b74e27b85fd66c781600181518110610f9757634e487b7160e01b600052603260045260246000fd5b6001600160a01b03928316602091820292909201015260015460405163676528d160e01b815291169063676528d1906109d090859060009086908b904290600401611544565b604080516002808252606082018352600092839291906020830190803683370190505090508215611063577349d5c2bdffac6ce2bfdb6640f4f80f226bc10bab8160008151811061103e57634e487b7160e01b600052603260045260246000fd5b60200260200101906001600160a01b031690816001600160a01b0316815250506110ba565b73a7d7079b0fead91f3e65f86e8915cb59c1a4c6648160008151811061109957634e487b7160e01b600052603260045260246000fd5b60200260200101906001600160a01b031690816001600160a01b0316815250505b84816001815181106110dc57634e487b7160e01b600052603260045260246000fd5b6001600160a01b0392831660209182029290920101526001546040516307c0329d60e21b8152911690631f00ca749061111b9087908590600401611523565b60006040518083038186803b15801561113357600080fd5b505afa158015611147573d6000803e3d6000fd5b505050506040513d6000823e601f3d908101601f1916820160405261116f9190810190611376565b60008151811061118f57634e487b7160e01b600052603260045260246000fd5b60200260200101519150509392505050565b600081156111ba5750506003546001600160a01b031690565b50506002546001600160a01b031690565b6000602082840312156111dc578081fd5b8151610882816115ba565b600080600080600080600060e0888a031215611201578283fd5b873561120c816115ba565b9650602088013561121c816115ba565b9550604088013561122c816115ba565b9450606088013561123c816115ba565b93506080880135925060a0880135915060c088013561125a816115ba565b8091505092959891949750929550565b60008060008060008060a08789031215611282578182fd5b863561128d816115ba565b9550602087013561129d816115ba565b94506040870135935060608701359250608087013567ffffffffffffffff808211156112c7578384fd5b818901915089601f8301126112da578384fd5b8135818111156112e8578485fd5b8a60208285010111156112f9578485fd5b6020830194508093505050509295509295509295565b600080600080600060a08688031215611326578081fd5b8535611331816115ba565b9450602086013593506040860135611348816115ba565b92506060860135611358816115d2565b91506080860135611368816115ba565b809150509295509295909350565b60006020808385031215611388578182fd5b825167ffffffffffffffff8082111561139f578384fd5b818501915085601f8301126113b2578384fd5b8151818111156113c4576113c46115a4565b8060051b604051601f19603f830116810181811085821117156113e9576113e96115a4565b604052828152858101935084860182860187018a1015611407578788fd5b8795505b8386101561142957805185526001959095019493860193860161140b565b5098975050505050505050565b600060208284031215611447578081fd5b8151610882816115d2565b600060208284031215611463578081fd5b5051919050565b6000815180845260208085019450808401835b838110156114a25781516001600160a01b03168752958201959082019060010161147d565b509495945050505050565b600060018060a01b0380871683526020818716818501528560408501526080606085015284519150816080850152825b828110156114f95785810182015185820160a0015281016114dd565b8281111561150a578360a084870101525b5050601f01601f19169190910160a00195945050505050565b82815260406020820152600061153c604083018461146a565b949350505050565b85815284602082015260a06040820152600061156360a083018661146a565b6001600160a01b0394909416606083015250608001529392505050565b6000821982111561159f57634e487b7160e01b81526011600452602481fd5b500190565b634e487b7160e01b600052604160045260246000fd5b6001600160a01b03811681146115cf57600080fd5b50565b80151581146115cf57600080fdfea2646970667358221220418b5923abad5964c0d502bcca1a956cf63c150d664df19498b9346922fc168c64736f6c63430008040033",
  "linkReferences": {},
  "deployedLinkReferences": {}
}