{
  "_format": "hh-sol-artifact-1",
  "contractName": "JoeLiquidator",
  "sourceName": "contracts/JoeLiquidator.sol",
  "abi": [
    {
      "inputs": [
        {
          "internalType": "address",
          "name": "_joetrollerAddress",
          "type": "address"
        },
        {
          "internalType": "address",
          "name": "_joeRouter02Address",
          "type": "address"
        },
        {
          "internalType": "address",
          "name": "_jUSDCEAddress",
          "type": "address"
        },
        {
          "internalType": "address",
          "name": "_jWETHEAddress",
          "type": "address"
        }
      ],
      "stateMutability": "nonpayable",
      "type": "constructor"
    },
    {
      "inputs": [],
      "name": "DAIE",
      "outputs": [
        {
          "internalType": "address",
          "name": "",
          "type": "address"
        }
      ],
      "stateMutability": "view",
      "type": "function"
    },
    {
      "inputs": [],
      "name": "LINKE",
      "outputs": [
        {
          "internalType": "address",
          "name": "",
          "type": "address"
        }
      ],
      "stateMutability": "view",
      "type": "function"
    },
    {
      "inputs": [],
      "name": "MIM",
      "outputs": [
        {
          "internalType": "address",
          "name": "",
          "type": "address"
        }
      ],
      "stateMutability": "view",
      "type": "function"
    },
    {
      "inputs": [],
      "name": "USDCE",
      "outputs": [
        {
          "internalType": "address",
          "name": "",
          "type": "address"
        }
      ],
      "stateMutability": "view",
      "type": "function"
    },
    {
      "inputs": [],
      "name": "USDTE",
      "outputs": [
        {
          "internalType": "address",
          "name": "",
          "type": "address"
        }
      ],
      "stateMutability": "view",
      "type": "function"
    },
    {
      "inputs": [],
      "name": "WAVAX",
      "outputs": [
        {
          "internalType": "address",
          "name": "",
          "type": "address"
        }
      ],
      "stateMutability": "view",
      "type": "function"
    },
    {
      "inputs": [],
      "name": "WBTCE",
      "outputs": [
        {
          "internalType": "address",
          "name": "",
          "type": "address"
        }
      ],
      "stateMutability": "view",
      "type": "function"
    },
    {
      "inputs": [],
      "name": "WETHE",
      "outputs": [
        {
          "internalType": "address",
          "name": "",
          "type": "address"
        }
      ],
      "stateMutability": "view",
      "type": "function"
    },
    {
      "inputs": [
        {
          "internalType": "address",
          "name": "_flashloanLender",
          "type": "address"
        },
        {
          "internalType": "address",
          "name": "_jBorrowToken",
          "type": "address"
        },
        {
          "internalType": "uint256",
          "name": "_borrowAmount",
          "type": "uint256"
        },
        {
          "internalType": "address",
          "name": "_borrowerToLiquidate",
          "type": "address"
        },
        {
          "internalType": "bool",
          "name": "_isUSDC",
          "type": "bool"
        }
      ],
      "name": "doFlashloan",
      "outputs": [],
      "stateMutability": "nonpayable",
      "type": "function"
    },
    {
      "inputs": [],
      "name": "jUSDCEAddress",
      "outputs": [
        {
          "internalType": "address",
          "name": "",
          "type": "address"
        }
      ],
      "stateMutability": "view",
      "type": "function"
    },
    {
      "inputs": [],
      "name": "jWETHEAddress",
      "outputs": [
        {
          "internalType": "address",
          "name": "",
          "type": "address"
        }
      ],
      "stateMutability": "view",
      "type": "function"
    },
    {
      "inputs": [],
      "name": "joeRouter02Address",
      "outputs": [
        {
          "internalType": "address",
          "name": "",
          "type": "address"
        }
      ],
      "stateMutability": "view",
      "type": "function"
    },
    {
      "inputs": [],
      "name": "joetrollerAddress",
      "outputs": [
        {
          "internalType": "address",
          "name": "",
          "type": "address"
        }
      ],
      "stateMutability": "view",
      "type": "function"
    },
    {
      "inputs": [
        {
          "internalType": "address",
          "name": "_initiator",
          "type": "address"
        },
        {
          "internalType": "address",
          "name": "_underlyingToken",
          "type": "address"
        },
        {
          "internalType": "uint256",
          "name": "_amount",
          "type": "uint256"
        },
        {
          "internalType": "uint256",
          "name": "_fee",
          "type": "uint256"
        },
        {
          "internalType": "bytes",
          "name": "_data",
          "type": "bytes"
        }
      ],
      "name": "onFlashLoan",
      "outputs": [
        {
          "internalType": "bytes32",
          "name": "",
          "type": "bytes32"
        }
      ],
      "stateMutability": "nonpayable",
      "type": "function"
    }
  ],
  "bytecode": "0x60806040523480156200001157600080fd5b50604051620012fd380380620012fd83398181016040528101906200003791906200015b565b836000806101000a81548173ffffffffffffffffffffffffffffffffffffffff021916908373ffffffffffffffffffffffffffffffffffffffff16021790555082600160006101000a81548173ffffffffffffffffffffffffffffffffffffffff021916908373ffffffffffffffffffffffffffffffffffffffff16021790555081600260006101000a81548173ffffffffffffffffffffffffffffffffffffffff021916908373ffffffffffffffffffffffffffffffffffffffff16021790555080600360006101000a81548173ffffffffffffffffffffffffffffffffffffffff021916908373ffffffffffffffffffffffffffffffffffffffff1602179055505050505062000215565b6000815190506200015581620001fb565b92915050565b600080600080608085870312156200017257600080fd5b6000620001828782880162000144565b9450506020620001958782880162000144565b9350506040620001a88782880162000144565b9250506060620001bb8782880162000144565b91505092959194509250565b6000620001d482620001db565b9050919050565b600073ffffffffffffffffffffffffffffffffffffffff82169050919050565b6200020681620001c7565b81146200021257600080fd5b50565b6110d880620002256000396000f3fe608060405234801561001057600080fd5b50600436106100ea5760003560e01c8063897857b81161008c578063daec383d11610066578063daec383d1461022b578063df403b2d14610249578063e62fbf6a14610267578063f4a8361614610285576100ea565b8063897857b8146101d1578063974ab80e146101ef578063c2776d6f1461020d576100ea565b806323e30c8b116100c857806323e30c8b146101475780634350b345146101775780635b189e2d1461019557806373b295c2146101b3576100ea565b80630902c43a146100ef57806311897d461461010b578063195187e114610129575b600080fd5b610109600480360381019061010491906109e9565b6102a3565b005b610113610443565b6040516101209190610c1c565b60405180910390f35b61013161045b565b60405161013e9190610c1c565b60405180910390f35b610161600480360381019061015c9190610a60565b610473565b60405161016e9190610ca5565b60405180910390f35b61017f610754565b60405161018c9190610c1c565b60405180910390f35b61019d61077a565b6040516101aa9190610c1c565b60405180910390f35b6101bb610792565b6040516101c89190610c1c565b60405180910390f35b6101d96107aa565b6040516101e69190610c1c565b60405180910390f35b6101f76107ce565b6040516102049190610c1c565b60405180910390f35b6102156107e6565b6040516102229190610c1c565b60405180910390f35b6102336107fe565b6040516102409190610c1c565b60405180910390f35b610251610816565b60405161025e9190610c1c565b60405180910390f35b61026f61083c565b60405161027c9190610c1c565b60405180910390f35b61028d610862565b60405161029a9190610c1c565b60405180910390f35b600081156102d557600360009054906101000a900473ffffffffffffffffffffffffffffffffffffffff1690506102fb565b600260009054906101000a900473ffffffffffffffffffffffffffffffffffffffff1690505b60008573ffffffffffffffffffffffffffffffffffffffff16636f307dc36040518163ffffffff1660e01b815260040160206040518083038186803b15801561034357600080fd5b505afa158015610357573d6000803e3d6000fd5b505050506040513d601f19601f8201168201806040525081019061037b919061095d565b90506000818686896040516020016103969493929190610c60565b60405160208183030381529060405290508773ffffffffffffffffffffffffffffffffffffffff16635cffe9de308489856040518563ffffffff1660e01b81526004016103e69493929190610cc0565b602060405180830381600087803b15801561040057600080fd5b505af1158015610414573d6000803e3d6000fd5b505050506040513d601f19601f820116820180604052508101906104389190610af2565b505050505050505050565b7349d5c2bdffac6ce2bfdb6640f4f80f226bc10bab81565b73a7d7079b0fead91f3e65f86e8915cb59c1a4c66481565b60008060009054906101000a900473ffffffffffffffffffffffffffffffffffffffff1673ffffffffffffffffffffffffffffffffffffffff16633d98a1e5336040518263ffffffff1660e01b81526004016104cf9190610c1c565b60206040518083038186803b1580156104e757600080fd5b505afa1580156104fb573d6000803e3d6000fd5b505050506040513d601f19601f8201168201806040525081019061051f9190610af2565b61055e576040517f08c379a000000000000000000000000000000000000000000000000000000000815260040161055590610d0c565b60405180910390fd5b3073ffffffffffffffffffffffffffffffffffffffff168773ffffffffffffffffffffffffffffffffffffffff16146105cc576040517f08c379a00000000000000000000000000000000000000000000000000000000081526004016105c390610d2c565b60405180910390fd5b60008060008086868101906105e19190610986565b93509350935093508973ffffffffffffffffffffffffffffffffffffffff168473ffffffffffffffffffffffffffffffffffffffff1614610657576040517f08c379a000000000000000000000000000000000000000000000000000000000815260040161064e90610d4c565b60405180910390fd5b888314610699576040517f08c379a000000000000000000000000000000000000000000000000000000000815260040161069090610d6c565b60405180910390fd5b8973ffffffffffffffffffffffffffffffffffffffff1663095ea7b3336106c98b8d61087a90919063ffffffff16565b6040518363ffffffff1660e01b81526004016106e6929190610c37565b600060405180830381600087803b15801561070057600080fd5b505af1158015610714573d6000803e3d6000fd5b50505050610723828483610890565b7f7968ba28153757de2da7bce4c2ba9ebaf94445061f3050de1b0de5c34bb7d5d89450505050509695505050505050565b600360009054906101000a900473ffffffffffffffffffffffffffffffffffffffff1681565b7350b7545627a5162f82a992c33b87adc75187b21881565b73b31f66aa3c1e785363f0875a1b74e27b85fd66c781565b60008054906101000a900473ffffffffffffffffffffffffffffffffffffffff1681565b73c7198437980c041c805a1edcba50c1ce5db9511881565b735947bb275c521040051d82396192181b413227a381565b73130966628846bfd36ff31a822705796e8cb8c18d81565b600260009054906101000a900473ffffffffffffffffffffffffffffffffffffffff1681565b600160009054906101000a900473ffffffffffffffffffffffffffffffffffffffff1681565b73d586e7f844cea2f87f50152665bcbc2c279d8d7081565b600081836108889190610db9565b905092915050565b505050565b6000813590506108a481611046565b92915050565b6000815190506108b981611046565b92915050565b6000813590506108ce8161105d565b92915050565b6000813590506108e381611074565b92915050565b6000815190506108f881611074565b92915050565b60008083601f84011261091057600080fd5b8235905067ffffffffffffffff81111561092957600080fd5b60208301915083600182028301111561094157600080fd5b9250929050565b6000813590506109578161108b565b92915050565b60006020828403121561096f57600080fd5b600061097d848285016108aa565b91505092915050565b6000806000806080858703121561099c57600080fd5b60006109aa878288016108bf565b94505060206109bb87828801610948565b93505060406109cc878288016108bf565b92505060606109dd878288016108bf565b91505092959194509250565b600080600080600060a08688031215610a0157600080fd5b6000610a0f88828901610895565b9550506020610a2088828901610895565b9450506040610a3188828901610948565b9350506060610a4288828901610895565b9250506080610a53888289016108d4565b9150509295509295909350565b60008060008060008060a08789031215610a7957600080fd5b6000610a8789828a01610895565b9650506020610a9889828a01610895565b9550506040610aa989828a01610948565b9450506060610aba89828a01610948565b935050608087013567ffffffffffffffff811115610ad757600080fd5b610ae389828a016108fe565b92509250509295509295509295565b600060208284031215610b0457600080fd5b6000610b12848285016108e9565b91505092915050565b610b2481610e0f565b82525050565b610b3381610e3f565b82525050565b6000610b4482610d8c565b610b4e8185610d97565b9350610b5e818560208601610e97565b610b6781610ef9565b840191505092915050565b610b7b81610e73565b82525050565b6000610b8e602783610da8565b9150610b9982610f0a565b604082019050919050565b6000610bb1602783610da8565b9150610bbc82610f59565b604082019050919050565b6000610bd4603883610da8565b9150610bdf82610fa8565b604082019050919050565b6000610bf7603983610da8565b9150610c0282610ff7565b604082019050919050565b610c1681610e69565b82525050565b6000602082019050610c316000830184610b1b565b92915050565b6000604082019050610c4c6000830185610b1b565b610c596020830184610c0d565b9392505050565b6000608082019050610c756000830187610b1b565b610c826020830186610c0d565b610c8f6040830185610b1b565b610c9c6060830184610b1b565b95945050505050565b6000602082019050610cba6000830184610b2a565b92915050565b6000608082019050610cd56000830187610b72565b610ce26020830186610b1b565b610cef6040830185610c0d565b8181036060830152610d018184610b39565b905095945050505050565b60006020820190508181036000830152610d2581610b81565b9050919050565b60006020820190508181036000830152610d4581610ba4565b9050919050565b60006020820190508181036000830152610d6581610bc7565b9050919050565b60006020820190508181036000830152610d8581610bea565b9050919050565b600081519050919050565b600082825260208201905092915050565b600082825260208201905092915050565b6000610dc482610e69565b9150610dcf83610e69565b9250827fffffffffffffffffffffffffffffffffffffffffffffffffffffffffffffffff03821115610e0457610e03610eca565b5b828201905092915050565b6000610e1a82610e49565b9050919050565b6000610e2c82610e49565b9050919050565b60008115159050919050565b6000819050919050565b600073ffffffffffffffffffffffffffffffffffffffff82169050919050565b6000819050919050565b6000610e7e82610e85565b9050919050565b6000610e9082610e49565b9050919050565b60005b83811015610eb5578082015181840152602081019050610e9a565b83811115610ec4576000848401525b50505050565b7f4e487b7100000000000000000000000000000000000000000000000000000000600052601160045260246000fd5b6000601f19601f8301169050919050565b7f4a6f654c697175696461746f723a20556e74727573746564206d65737361676560008201527f2073656e64657200000000000000000000000000000000000000000000000000602082015250565b7f4a6f654c697175696461746f723a20556e74727573746564206c6f616e20696e60008201527f69746961746f7200000000000000000000000000000000000000000000000000602082015250565b7f4a6f654c697175696461746f723a20456e636f64656420646174612028626f7260008201527f726f77546f6b656e2920646f6573206e6f74206d617463680000000000000000602082015250565b7f4a6f654c697175696461746f723a20456e636f64656420646174612028626f7260008201527f726f77416d6f756e742920646f6573206e6f74206d6174636800000000000000602082015250565b61104f81610e0f565b811461105a57600080fd5b50565b61106681610e21565b811461107157600080fd5b50565b61107d81610e33565b811461108857600080fd5b50565b61109481610e69565b811461109f57600080fd5b5056fea2646970667358221220fda0f37df79f0b40fdd9afff9bc58aeb4c3450e1c6501a3becf958f5fb3eb43a64736f6c63430008040033",
  "linkReferences": {},
  "deployedLinkReferences": {}
}