{
  "_format": "hh-sol-artifact-1",
  "contractName": "JoeLiquidator",
  "sourceName": "contracts/JoeLiquidator.sol",
  "abi": [
    {
      "inputs": [
        {
          "internalType": "address",
          "name": "_joetrollerAddress",
          "type": "address"
        },
        {
          "internalType": "address",
          "name": "_joeRouter02Address",
          "type": "address"
        },
        {
          "internalType": "address",
          "name": "_priceOracleAddress",
          "type": "address"
        },
        {
          "internalType": "address",
          "name": "_jUSDCEAddress",
          "type": "address"
        },
        {
          "internalType": "address",
          "name": "_jWETHEAddress",
          "type": "address"
        }
      ],
      "stateMutability": "nonpayable",
      "type": "constructor"
    },
    {
      "inputs": [],
      "name": "DAIE",
      "outputs": [
        {
          "internalType": "address",
          "name": "",
          "type": "address"
        }
      ],
      "stateMutability": "view",
      "type": "function"
    },
    {
      "inputs": [],
      "name": "LINKE",
      "outputs": [
        {
          "internalType": "address",
          "name": "",
          "type": "address"
        }
      ],
      "stateMutability": "view",
      "type": "function"
    },
    {
      "inputs": [],
      "name": "MIM",
      "outputs": [
        {
          "internalType": "address",
          "name": "",
          "type": "address"
        }
      ],
      "stateMutability": "view",
      "type": "function"
    },
    {
      "inputs": [],
      "name": "USDCE",
      "outputs": [
        {
          "internalType": "address",
          "name": "",
          "type": "address"
        }
      ],
      "stateMutability": "view",
      "type": "function"
    },
    {
      "inputs": [],
      "name": "USDTE",
      "outputs": [
        {
          "internalType": "address",
          "name": "",
          "type": "address"
        }
      ],
      "stateMutability": "view",
      "type": "function"
    },
    {
      "inputs": [],
      "name": "WAVAX",
      "outputs": [
        {
          "internalType": "address",
          "name": "",
          "type": "address"
        }
      ],
      "stateMutability": "view",
      "type": "function"
    },
    {
      "inputs": [],
      "name": "WBTCE",
      "outputs": [
        {
          "internalType": "address",
          "name": "",
          "type": "address"
        }
      ],
      "stateMutability": "view",
      "type": "function"
    },
    {
      "inputs": [],
      "name": "WETHE",
      "outputs": [
        {
          "internalType": "address",
          "name": "",
          "type": "address"
        }
      ],
      "stateMutability": "view",
      "type": "function"
    },
    {
      "inputs": [
        {
          "internalType": "address",
          "name": "_jRepayTokenAddress",
          "type": "address"
        },
        {
          "internalType": "uint256",
          "name": "_repayAmount",
          "type": "uint256"
        },
        {
          "internalType": "address",
          "name": "_borrowerToLiquidate",
          "type": "address"
        },
        {
          "internalType": "bool",
          "name": "_isRepayTokenUSDC",
          "type": "bool"
        },
        {
          "internalType": "address",
          "name": "_jSeizeTokenAddress",
          "type": "address"
        }
      ],
      "name": "doFlashloan",
      "outputs": [],
      "stateMutability": "nonpayable",
      "type": "function"
    },
    {
      "inputs": [],
      "name": "jUSDCEAddress",
      "outputs": [
        {
          "internalType": "address",
          "name": "",
          "type": "address"
        }
      ],
      "stateMutability": "view",
      "type": "function"
    },
    {
      "inputs": [],
      "name": "jWETHEAddress",
      "outputs": [
        {
          "internalType": "address",
          "name": "",
          "type": "address"
        }
      ],
      "stateMutability": "view",
      "type": "function"
    },
    {
      "inputs": [],
      "name": "joeRouter02Address",
      "outputs": [
        {
          "internalType": "address",
          "name": "",
          "type": "address"
        }
      ],
      "stateMutability": "view",
      "type": "function"
    },
    {
      "inputs": [],
      "name": "joetrollerAddress",
      "outputs": [
        {
          "internalType": "address",
          "name": "",
          "type": "address"
        }
      ],
      "stateMutability": "view",
      "type": "function"
    },
    {
      "inputs": [
        {
          "internalType": "address",
          "name": "_initiator",
          "type": "address"
        },
        {
          "internalType": "address",
          "name": "_flashLoanTokenAddress",
          "type": "address"
        },
        {
          "internalType": "uint256",
          "name": "_flashLoanAmount",
          "type": "uint256"
        },
        {
          "internalType": "uint256",
          "name": "_flashLoanFee",
          "type": "uint256"
        },
        {
          "internalType": "bytes",
          "name": "_data",
          "type": "bytes"
        }
      ],
      "name": "onFlashLoan",
      "outputs": [
        {
          "internalType": "bytes32",
          "name": "",
          "type": "bytes32"
        }
      ],
      "stateMutability": "nonpayable",
      "type": "function"
    },
    {
      "inputs": [],
      "name": "priceOracleAddress",
      "outputs": [
        {
          "internalType": "address",
          "name": "",
          "type": "address"
        }
      ],
      "stateMutability": "view",
      "type": "function"
    }
  ],
  "bytecode": "0x60806040523480156200001157600080fd5b5060405162001767380380620017678339810160408190526200003491620000b4565b600080546001600160a01b03199081166001600160a01b0397881617909155600180548216958716959095179094556002805485169386169390931790925560038054841691851691909117905560048054909216921691909117905562000123565b80516001600160a01b0381168114620000af57600080fd5b919050565b600080600080600060a08688031215620000cc578081fd5b620000d78662000097565b9450620000e76020870162000097565b9350620000f76040870162000097565b9250620001076060870162000097565b9150620001176080870162000097565b90509295509295909350565b61163480620001336000396000f3fe608060405234801561001057600080fd5b50600436106100f55760003560e01c8063897857b811610097578063daec383d11610066578063daec383d14610228578063df403b2d14610243578063e62fbf6a14610256578063f4a836161461026957600080fd5b8063897857b8146101ca578063974ab80e146101dd578063bb670a7b146101f8578063c2776d6f1461020d57600080fd5b80632bc51c6d116100d35780632bc51c6d1461016e5780634350b345146101815780635b189e2d1461019457806373b295c2146101af57600080fd5b806311897d46146100fa578063195187e11461013257806323e30c8b1461014d575b600080fd5b6101157349d5c2bdffac6ce2bfdb6640f4f80f226bc10bab81565b6040516001600160a01b0390911681526020015b60405180910390f35b61011573a7d7079b0fead91f3e65f86e8915cb59c1a4c66481565b61016061015b366004611288565b610284565b604051908152602001610129565b600254610115906001600160a01b031681565b600454610115906001600160a01b031681565b6101157350b7545627a5162f82a992c33b87adc75187b21881565b61011573b31f66aa3c1e785363f0875a1b74e27b85fd66c781565b600054610115906001600160a01b031681565b61011573c7198437980c041c805a1edcba50c1ce5db9511881565b61020b61020636600461132d565b6106a6565b005b610115735947bb275c521040051d82396192181b413227a381565b61011573130966628846bfd36ff31a822705796e8cb8c18d81565b600354610115906001600160a01b031681565b600154610115906001600160a01b031681565b61011573d586e7f844cea2f87f50152665bcbc2c279d8d7081565b60008054604051633d98a1e560e01b81523360048201526001600160a01b0390911690633d98a1e59060240160206040518083038186803b1580156102c857600080fd5b505afa1580156102dc573d6000803e3d6000fd5b505050506040513d601f19601f820116820180604052508101906103009190611454565b6103615760405162461bcd60e51b815260206004820152602760248201527f4a6f654c697175696461746f723a20556e74727573746564206d6573736167656044820152661039b2b73232b960c91b60648201526084015b60405180910390fd5b6040805160808101825260008082526020820181905291810182905260608101829052908080808080806103978b8b018c611205565b9650965096509650965096509650866001600160a01b03168f6001600160a01b0316146104165760405162461bcd60e51b815260206004820152602760248201527f4a6f654c697175696461746f723a20556e74727573746564206c6f616e20696e60448201526634ba34b0ba37b960c91b6064820152608401610358565b846001600160a01b03168e6001600160a01b0316146104ab5760405162461bcd60e51b8152602060048201526044602482018190527f4a6f654c697175696461746f723a20456e636f64656420646174612028666c61908201527f73684c6f616e6564546f6b656e416464726573732920646f6573206e6f74206d6064820152630c2e8c6d60e31b608482015260a401610358565b828d146105205760405162461bcd60e51b815260206004820152603c60248201527f4a6f654c697175696461746f723a20456e636f64656420646174612028666c6160448201527f73684c6f616e416d6f756e742920646f6573206e6f74206d61746368000000006064820152608401610358565b6001600160a01b039586166040890152928516875260608701525090911660208401525087905060006105538888610894565b60405163095ea7b360e01b8152336004820152602481018290529091506001600160a01b0383169063095ea7b390604401600060405180830381600087803b15801561059e57600080fd5b505af11580156105b2573d6000803e3d6000fd5b505050506000836000015190506106418a8a836001600160a01b0316636f307dc36040518163ffffffff1660e01b8152600401602060405180830381600087803b1580156105ff57600080fd5b505af1158015610613573d6000803e3d6000fd5b505050506040513d601f19601f8201168201806040525081019061063791906111e9565b87606001516108a7565b61065981856040015186606001518760200151610a4c565b61066884602001518b84610b57565b6106768b8560200151610d7b565b507f7968ba28153757de2da7bce4c2ba9ebaf94445061f3050de1b0de5c34bb7d5d89a9950505050505050505050565b6000856001600160a01b0316636f307dc36040518163ffffffff1660e01b8152600401602060405180830381600087803b1580156106e357600080fd5b505af11580156106f7573d6000803e3d6000fd5b505050506040513d601f19601f8201168201806040525081019061071b91906111e9565b9050600061072a828786610ffb565b90506000610737856111bf565b905060003387836001600160a01b0316636f307dc36040518163ffffffff1660e01b8152600401602060405180830381600087803b15801561077857600080fd5b505af115801561078c573d6000803e3d6000fd5b505050506040513d601f19601f820116820180604052508101906107b091906111e9565b604080516001600160a01b0394851660208201529284169083015282166060820152818b16608082015260a0810185905260c081018a905290861660e08201526101000160408051601f1981840301815290829052632e7ff4ef60e11b825291506001600160a01b03831690635cffe9de906108369030903390889087906004016114cb565b602060405180830381600087803b15801561085057600080fd5b505af1158015610864573d6000803e3d6000fd5b505050506040513d601f19601f820116820180604052508101906108889190611454565b50505050505050505050565b60006108a0828461159e565b9392505050565b60015460405163095ea7b360e01b81526001600160a01b039182166004820152602481018590529085169063095ea7b390604401600060405180830381600087803b1580156108f557600080fd5b505af1158015610909573d6000803e3d6000fd5b5060009250600291506109199050565b604051908082528060200260200182016040528015610942578160200160208202803683370190505b509050848160008151811061096757634e487b7160e01b600052603260045260246000fd5b60200260200101906001600160a01b031690816001600160a01b03168152505082816001815181106109a957634e487b7160e01b600052603260045260246000fd5b6001600160a01b0392831660209182029290920101526001546040516338ed173960e01b81529116906338ed1739906109ee9087908690869030904290600401611562565b600060405180830381600087803b158015610a0857600080fd5b505af1158015610a1c573d6000803e3d6000fd5b505050506040513d6000823e601f3d908101601f19168201604052610a449190810190611394565b505050505050565b604051637af1e23160e11b81526001600160a01b0384811660048301526024820184905282811660448301526000919086169063f5e3c46290606401602060405180830381600087803b158015610aa257600080fd5b505af1158015610ab6573d6000803e3d6000fd5b505050506040513d601f19601f82011682018060405250810190610ada9190611470565b90508015610b505760405162461bcd60e51b815260206004820152603760248201527f4a6f654c697175696461746f723a204572726f72206f6363757272656420747260448201527f79696e6720746f206c6971756964617465426f72726f770000000000000000006064820152608401610358565b5050505050565b6040516370a0823160e01b815230600482015283906000906001600160a01b038316906370a082319060240160206040518083038186803b158015610b9b57600080fd5b505afa158015610baf573d6000803e3d6000fd5b505050506040513d601f19601f82011682018060405250810190610bd39190611470565b60015460405163095ea7b360e01b81526001600160a01b0391821660048201526024810183905291925083169063095ea7b390604401600060405180830381600087803b158015610c2357600080fd5b505af1158015610c37573d6000803e3d6000fd5b506000925060029150610c479050565b604051908082528060200260200182016040528015610c70578160200160208202803683370190505b5090508581600081518110610c9557634e487b7160e01b600052603260045260246000fd5b60200260200101906001600160a01b031690816001600160a01b0316815250508481600181518110610cd757634e487b7160e01b600052603260045260246000fd5b6001600160a01b0392831660209182029290920101526001546040516338ed173960e01b81529116906338ed173990610d1c9085908890869030904290600401611562565b600060405180830381600087803b158015610d3657600080fd5b505af1158015610d4a573d6000803e3d6000fd5b505050506040513d6000823e601f3d908101601f19168201604052610d729190810190611394565b50505050505050565b6040516370a0823160e01b815230600482015281906000906001600160a01b038316906370a082319060240160206040518083038186803b158015610dbf57600080fd5b505afa158015610dd3573d6000803e3d6000fd5b505050506040513d601f19601f82011682018060405250810190610df79190611470565b905060008111610e9f5760405162461bcd60e51b815260206004820152606160248201527f4a6f654c697175696461746f723a20457870656374656420746f20686176652060448201527f72656d61696e696e67207365697a6520616d6f756e7420696e206f726465722060648201527f746f20686176652070726f66697465642066726f6d206c69717569646174696f6084820152603760f91b60a482015260c401610358565b60015460405163095ea7b360e01b81526001600160a01b039182166004820152602481018390529083169063095ea7b390604401600060405180830381600087803b158015610eed57600080fd5b505af1158015610f01573d6000803e3d6000fd5b506000925060029150610f119050565b604051908082528060200260200182016040528015610f3a578160200160208202803683370190505b5090508381600081518110610f5f57634e487b7160e01b600052603260045260246000fd5b60200260200101906001600160a01b031690816001600160a01b03168152505073b31f66aa3c1e785363f0875a1b74e27b85fd66c781600181518110610fb557634e487b7160e01b600052603260045260246000fd5b6001600160a01b03928316602091820292909201015260015460405163676528d160e01b815291169063676528d1906109ee90859060009086908b904290600401611562565b604080516002808252606082018352600092839291906020830190803683370190505090508215611081577349d5c2bdffac6ce2bfdb6640f4f80f226bc10bab8160008151811061105c57634e487b7160e01b600052603260045260246000fd5b60200260200101906001600160a01b031690816001600160a01b0316815250506110d8565b73a7d7079b0fead91f3e65f86e8915cb59c1a4c664816000815181106110b757634e487b7160e01b600052603260045260246000fd5b60200260200101906001600160a01b031690816001600160a01b0316815250505b84816001815181106110fa57634e487b7160e01b600052603260045260246000fd5b6001600160a01b0392831660209182029290920101526001546040516307c0329d60e21b8152911690631f00ca74906111399087908590600401611541565b60006040518083038186803b15801561115157600080fd5b505afa158015611165573d6000803e3d6000fd5b505050506040513d6000823e601f3d908101601f1916820160405261118d9190810190611394565b6000815181106111ad57634e487b7160e01b600052603260045260246000fd5b60200260200101519150509392505050565b600081156111d85750506004546001600160a01b031690565b50506003546001600160a01b031690565b6000602082840312156111fa578081fd5b81516108a0816115d8565b600080600080600080600060e0888a03121561121f578283fd5b873561122a816115d8565b9650602088013561123a816115d8565b9550604088013561124a816115d8565b9450606088013561125a816115d8565b93506080880135925060a0880135915060c0880135611278816115d8565b8091505092959891949750929550565b60008060008060008060a087890312156112a0578182fd5b86356112ab816115d8565b955060208701356112bb816115d8565b94506040870135935060608701359250608087013567ffffffffffffffff808211156112e5578384fd5b818901915089601f8301126112f8578384fd5b813581811115611306578485fd5b8a6020828501011115611317578485fd5b6020830194508093505050509295509295509295565b600080600080600060a08688031215611344578081fd5b853561134f816115d8565b9450602086013593506040860135611366816115d8565b92506060860135611376816115f0565b91506080860135611386816115d8565b809150509295509295909350565b600060208083850312156113a6578182fd5b825167ffffffffffffffff808211156113bd578384fd5b818501915085601f8301126113d0578384fd5b8151818111156113e2576113e26115c2565b8060051b604051601f19603f83011681018181108582111715611407576114076115c2565b604052828152858101935084860182860187018a1015611425578788fd5b8795505b83861015611447578051855260019590950194938601938601611429565b5098975050505050505050565b600060208284031215611465578081fd5b81516108a0816115f0565b600060208284031215611481578081fd5b5051919050565b6000815180845260208085019450808401835b838110156114c05781516001600160a01b03168752958201959082019060010161149b565b509495945050505050565b600060018060a01b0380871683526020818716818501528560408501526080606085015284519150816080850152825b828110156115175785810182015185820160a0015281016114fb565b82811115611528578360a084870101525b5050601f01601f19169190910160a00195945050505050565b82815260406020820152600061155a6040830184611488565b949350505050565b85815284602082015260a06040820152600061158160a0830186611488565b6001600160a01b0394909416606083015250608001529392505050565b600082198211156115bd57634e487b7160e01b81526011600452602481fd5b500190565b634e487b7160e01b600052604160045260246000fd5b6001600160a01b03811681146115ed57600080fd5b50565b80151581146115ed57600080fdfea264697066735822122005f90edd40978a38b8299d8b12712d3b1d56f546524a8576c7e7290f27c1da7164736f6c63430008040033",
  "linkReferences": {},
  "deployedLinkReferences": {}
}