{
  "_format": "hh-sol-artifact-1",
  "contractName": "JoeLiquidator",
  "sourceName": "contracts/JoeLiquidator.sol",
  "abi": [
    {
      "inputs": [
        {
          "internalType": "address",
          "name": "_joetroller",
          "type": "address"
        }
      ],
      "stateMutability": "nonpayable",
      "type": "constructor"
    },
    {
      "inputs": [
        {
          "internalType": "address",
          "name": "_flashloanLender",
          "type": "address"
        },
        {
          "internalType": "address",
          "name": "_jBorrowToken",
          "type": "address"
        },
        {
          "internalType": "uint256",
          "name": "_borrowAmount",
          "type": "uint256"
        },
        {
          "internalType": "address",
          "name": "_borrowerToLiquidate",
          "type": "address"
        }
      ],
      "name": "doFlashloan",
      "outputs": [],
      "stateMutability": "nonpayable",
      "type": "function"
    },
    {
      "inputs": [],
      "name": "joetroller",
      "outputs": [
        {
          "internalType": "address",
          "name": "",
          "type": "address"
        }
      ],
      "stateMutability": "view",
      "type": "function"
    },
    {
      "inputs": [
        {
          "internalType": "address",
          "name": "_initiator",
          "type": "address"
        },
        {
          "internalType": "address",
          "name": "_underlyingToken",
          "type": "address"
        },
        {
          "internalType": "uint256",
          "name": "_amount",
          "type": "uint256"
        },
        {
          "internalType": "uint256",
          "name": "_fee",
          "type": "uint256"
        },
        {
          "internalType": "bytes",
          "name": "_data",
          "type": "bytes"
        }
      ],
      "name": "onFlashLoan",
      "outputs": [
        {
          "internalType": "bytes32",
          "name": "",
          "type": "bytes32"
        }
      ],
      "stateMutability": "nonpayable",
      "type": "function"
    }
  ],
  "bytecode": "0x608060405234801561001057600080fd5b50604051610e06380380610e068339818101604052810190610032919061008d565b806000806101000a81548173ffffffffffffffffffffffffffffffffffffffff021916908373ffffffffffffffffffffffffffffffffffffffff160217905550506100ff565b600081519050610087816100e8565b92915050565b60006020828403121561009f57600080fd5b60006100ad84828501610078565b91505092915050565b60006100c1826100c8565b9050919050565b600073ffffffffffffffffffffffffffffffffffffffff82169050919050565b6100f1816100b6565b81146100fc57600080fd5b50565b610cf88061010e6000396000f3fe608060405234801561001057600080fd5b50600436106100415760003560e01c806323e30c8b146100465780636330533c14610076578063d534a21414610094575b600080fd5b610060600480360381019061005b919061068e565b6100b0565b60405161006d91906108c5565b60405180910390f35b61007e610382565b60405161008b919061084a565b60405180910390f35b6100ae60048036038101906100a9919061062b565b6103a6565b005b60008060009054906101000a900473ffffffffffffffffffffffffffffffffffffffff1673ffffffffffffffffffffffffffffffffffffffff16633d98a1e5336040518263ffffffff1660e01b815260040161010c919061084a565b60206040518083038186803b15801561012457600080fd5b505afa158015610138573d6000803e3d6000fd5b505050506040513d601f19601f8201168201806040525081019061015c9190610720565b61019b576040517f08c379a00000000000000000000000000000000000000000000000000000000081526004016101929061092c565b60405180910390fd5b3073ffffffffffffffffffffffffffffffffffffffff168773ffffffffffffffffffffffffffffffffffffffff1614610209576040517f08c379a00000000000000000000000000000000000000000000000000000000081526004016102009061094c565b60405180910390fd5b6000806000858581019061021d91906105dc565b9250925092508873ffffffffffffffffffffffffffffffffffffffff168373ffffffffffffffffffffffffffffffffffffffff1614610291576040517f08c379a00000000000000000000000000000000000000000000000000000000081526004016102889061096c565b60405180910390fd5b8782146102d3576040517f08c379a00000000000000000000000000000000000000000000000000000000081526004016102ca9061098c565b60405180910390fd5b8873ffffffffffffffffffffffffffffffffffffffff1663095ea7b3336103038a8c6104ea90919063ffffffff16565b6040518363ffffffff1660e01b8152600401610320929190610865565b600060405180830381600087803b15801561033a57600080fd5b505af115801561034e573d6000803e3d6000fd5b505050507f7968ba28153757de2da7bce4c2ba9ebaf94445061f3050de1b0de5c34bb7d5d893505050509695505050505050565b60008054906101000a900473ffffffffffffffffffffffffffffffffffffffff1681565b60008373ffffffffffffffffffffffffffffffffffffffff16636f307dc36040518163ffffffff1660e01b815260040160206040518083038186803b1580156103ee57600080fd5b505afa158015610402573d6000803e3d6000fd5b505050506040513d601f19601f8201168201806040525081019061042691906105b3565b9050600081848460405160200161043f9392919061088e565b60405160208183030381529060405290508573ffffffffffffffffffffffffffffffffffffffff16635cffe9de308487856040518563ffffffff1660e01b815260040161048f94939291906108e0565b602060405180830381600087803b1580156104a957600080fd5b505af11580156104bd573d6000803e3d6000fd5b505050506040513d601f19601f820116820180604052508101906104e19190610720565b50505050505050565b600081836104f891906109d9565b905092915050565b60008135905061050f81610c66565b92915050565b60008151905061052481610c66565b92915050565b60008135905061053981610c7d565b92915050565b60008151905061054e81610c94565b92915050565b60008083601f84011261056657600080fd5b8235905067ffffffffffffffff81111561057f57600080fd5b60208301915083600182028301111561059757600080fd5b9250929050565b6000813590506105ad81610cab565b92915050565b6000602082840312156105c557600080fd5b60006105d384828501610515565b91505092915050565b6000806000606084860312156105f157600080fd5b60006105ff8682870161052a565b93505060206106108682870161059e565b92505060406106218682870161052a565b9150509250925092565b6000806000806080858703121561064157600080fd5b600061064f87828801610500565b945050602061066087828801610500565b93505060406106718782880161059e565b925050606061068287828801610500565b91505092959194509250565b60008060008060008060a087890312156106a757600080fd5b60006106b589828a01610500565b96505060206106c689828a01610500565b95505060406106d789828a0161059e565b94505060606106e889828a0161059e565b935050608087013567ffffffffffffffff81111561070557600080fd5b61071189828a01610554565b92509250509295509295509295565b60006020828403121561073257600080fd5b60006107408482850161053f565b91505092915050565b61075281610a2f565b82525050565b61076181610a5f565b82525050565b6000610772826109ac565b61077c81856109b7565b935061078c818560208601610ab7565b61079581610b19565b840191505092915050565b6107a981610a93565b82525050565b60006107bc6027836109c8565b91506107c782610b2a565b604082019050919050565b60006107df6027836109c8565b91506107ea82610b79565b604082019050919050565b60006108026038836109c8565b915061080d82610bc8565b604082019050919050565b60006108256039836109c8565b915061083082610c17565b604082019050919050565b61084481610a89565b82525050565b600060208201905061085f6000830184610749565b92915050565b600060408201905061087a6000830185610749565b610887602083018461083b565b9392505050565b60006060820190506108a36000830186610749565b6108b0602083018561083b565b6108bd6040830184610749565b949350505050565b60006020820190506108da6000830184610758565b92915050565b60006080820190506108f560008301876107a0565b6109026020830186610749565b61090f604083018561083b565b81810360608301526109218184610767565b905095945050505050565b60006020820190508181036000830152610945816107af565b9050919050565b60006020820190508181036000830152610965816107d2565b9050919050565b60006020820190508181036000830152610985816107f5565b9050919050565b600060208201905081810360008301526109a581610818565b9050919050565b600081519050919050565b600082825260208201905092915050565b600082825260208201905092915050565b60006109e482610a89565b91506109ef83610a89565b9250827fffffffffffffffffffffffffffffffffffffffffffffffffffffffffffffffff03821115610a2457610a23610aea565b5b828201905092915050565b6000610a3a82610a69565b9050919050565b6000610a4c82610a69565b9050919050565b60008115159050919050565b6000819050919050565b600073ffffffffffffffffffffffffffffffffffffffff82169050919050565b6000819050919050565b6000610a9e82610aa5565b9050919050565b6000610ab082610a69565b9050919050565b60005b83811015610ad5578082015181840152602081019050610aba565b83811115610ae4576000848401525b50505050565b7f4e487b7100000000000000000000000000000000000000000000000000000000600052601160045260246000fd5b6000601f19601f8301169050919050565b7f4a6f654c697175696461746f723a20556e74727573746564206d65737361676560008201527f2073656e64657200000000000000000000000000000000000000000000000000602082015250565b7f4a6f654c697175696461746f723a20556e74727573746564206c6f616e20696e60008201527f69746961746f7200000000000000000000000000000000000000000000000000602082015250565b7f4a6f654c697175696461746f723a20456e636f64656420646174612028626f7260008201527f726f77546f6b656e2920646f6573206e6f74206d617463680000000000000000602082015250565b7f4a6f654c697175696461746f723a20456e636f64656420646174612028626f7260008201527f726f77416d6f756e742920646f6573206e6f74206d6174636800000000000000602082015250565b610c6f81610a2f565b8114610c7a57600080fd5b50565b610c8681610a41565b8114610c9157600080fd5b50565b610c9d81610a53565b8114610ca857600080fd5b50565b610cb481610a89565b8114610cbf57600080fd5b5056fea2646970667358221220f07202f8efef0ad74ef8bb1861295e273c2e2e0ec2a322cfc7c38758757cbd9364736f6c63430008040033",
  "linkReferences": {},
  "deployedLinkReferences": {}
}