{
  "_format": "hh-sol-artifact-1",
  "contractName": "JoeLiquidator",
  "sourceName": "contracts/JoeLiquidator.sol",
  "abi": [
    {
      "inputs": [
        {
          "internalType": "address",
          "name": "_joetrollerAddress",
          "type": "address"
        },
        {
          "internalType": "address",
          "name": "_joeRouter02Address",
          "type": "address"
        },
        {
          "internalType": "address",
          "name": "_jUSDCEAddress",
          "type": "address"
        },
        {
          "internalType": "address",
          "name": "_jWETHEAddress",
          "type": "address"
        }
      ],
      "stateMutability": "nonpayable",
      "type": "constructor"
    },
    {
      "inputs": [],
      "name": "DAIE",
      "outputs": [
        {
          "internalType": "address",
          "name": "",
          "type": "address"
        }
      ],
      "stateMutability": "view",
      "type": "function"
    },
    {
      "inputs": [],
      "name": "LINKE",
      "outputs": [
        {
          "internalType": "address",
          "name": "",
          "type": "address"
        }
      ],
      "stateMutability": "view",
      "type": "function"
    },
    {
      "inputs": [],
      "name": "MIM",
      "outputs": [
        {
          "internalType": "address",
          "name": "",
          "type": "address"
        }
      ],
      "stateMutability": "view",
      "type": "function"
    },
    {
      "inputs": [],
      "name": "USDCE",
      "outputs": [
        {
          "internalType": "address",
          "name": "",
          "type": "address"
        }
      ],
      "stateMutability": "view",
      "type": "function"
    },
    {
      "inputs": [],
      "name": "USDTE",
      "outputs": [
        {
          "internalType": "address",
          "name": "",
          "type": "address"
        }
      ],
      "stateMutability": "view",
      "type": "function"
    },
    {
      "inputs": [],
      "name": "WAVAX",
      "outputs": [
        {
          "internalType": "address",
          "name": "",
          "type": "address"
        }
      ],
      "stateMutability": "view",
      "type": "function"
    },
    {
      "inputs": [],
      "name": "WBTCE",
      "outputs": [
        {
          "internalType": "address",
          "name": "",
          "type": "address"
        }
      ],
      "stateMutability": "view",
      "type": "function"
    },
    {
      "inputs": [],
      "name": "WETHE",
      "outputs": [
        {
          "internalType": "address",
          "name": "",
          "type": "address"
        }
      ],
      "stateMutability": "view",
      "type": "function"
    },
    {
      "inputs": [
        {
          "internalType": "address",
          "name": "_flashloanLender",
          "type": "address"
        },
        {
          "internalType": "address",
          "name": "_jBorrowToken",
          "type": "address"
        },
        {
          "internalType": "uint256",
          "name": "_borrowAmount",
          "type": "uint256"
        },
        {
          "internalType": "address",
          "name": "_borrowerToLiquidate",
          "type": "address"
        },
        {
          "internalType": "bool",
          "name": "_isUSDC",
          "type": "bool"
        }
      ],
      "name": "doFlashloan",
      "outputs": [],
      "stateMutability": "nonpayable",
      "type": "function"
    },
    {
      "inputs": [],
      "name": "jUSDCEAddress",
      "outputs": [
        {
          "internalType": "address",
          "name": "",
          "type": "address"
        }
      ],
      "stateMutability": "view",
      "type": "function"
    },
    {
      "inputs": [],
      "name": "jWETHEAddress",
      "outputs": [
        {
          "internalType": "address",
          "name": "",
          "type": "address"
        }
      ],
      "stateMutability": "view",
      "type": "function"
    },
    {
      "inputs": [],
      "name": "joeRouter02Address",
      "outputs": [
        {
          "internalType": "address",
          "name": "",
          "type": "address"
        }
      ],
      "stateMutability": "view",
      "type": "function"
    },
    {
      "inputs": [],
      "name": "joetrollerAddress",
      "outputs": [
        {
          "internalType": "address",
          "name": "",
          "type": "address"
        }
      ],
      "stateMutability": "view",
      "type": "function"
    },
    {
      "inputs": [
        {
          "internalType": "address",
          "name": "_initiator",
          "type": "address"
        },
        {
          "internalType": "address",
          "name": "_underlyingToken",
          "type": "address"
        },
        {
          "internalType": "uint256",
          "name": "_amount",
          "type": "uint256"
        },
        {
          "internalType": "uint256",
          "name": "_fee",
          "type": "uint256"
        },
        {
          "internalType": "bytes",
          "name": "_data",
          "type": "bytes"
        }
      ],
      "name": "onFlashLoan",
      "outputs": [
        {
          "internalType": "bytes32",
          "name": "",
          "type": "bytes32"
        }
      ],
      "stateMutability": "nonpayable",
      "type": "function"
    }
  ],
  "bytecode": "0x608060405234801561001057600080fd5b50604051610a74380380610a7483398101604081905261002f9161009e565b600080546001600160a01b039586166001600160a01b03199182161790915560018054948616948216949094179093556002805492851692841692909217909155600380549190931691161790556100f1565b80516001600160a01b038116811461009957600080fd5b919050565b600080600080608085870312156100b3578384fd5b6100bc85610082565b93506100ca60208601610082565b92506100d860408601610082565b91506100e660608601610082565b905092959194509250565b610974806101006000396000f3fe608060405234801561001057600080fd5b50600436106100ea5760003560e01c8063897857b81161008c578063daec383d11610066578063daec383d1461020a578063df403b2d14610225578063e62fbf6a14610238578063f4a836161461024b57600080fd5b8063897857b8146101c1578063974ab80e146101d4578063c2776d6f146101ef57600080fd5b806323e30c8b116100c857806323e30c8b146101575780634350b345146101785780635b189e2d1461018b57806373b295c2146101a657600080fd5b80630902c43a146100ef57806311897d4614610104578063195187e11461013c575b600080fd5b6101026100fd366004610756565b610266565b005b61011f7349d5c2bdffac6ce2bfdb6640f4f80f226bc10bab81565b6040516001600160a01b0390911681526020015b60405180910390f35b61011f73a7d7079b0fead91f3e65f86e8915cb59c1a4c66481565b61016a6101653660046107bd565b6103d3565b604051908152602001610133565b60035461011f906001600160a01b031681565b61011f7350b7545627a5162f82a992c33b87adc75187b21881565b61011f73b31f66aa3c1e785363f0875a1b74e27b85fd66c781565b60005461011f906001600160a01b031681565b61011f73c7198437980c041c805a1edcba50c1ce5db9511881565b61011f735947bb275c521040051d82396192181b413227a381565b61011f73130966628846bfd36ff31a822705796e8cb8c18d81565b60025461011f906001600160a01b031681565b60015461011f906001600160a01b031681565b61011f73d586e7f844cea2f87f50152665bcbc2c279d8d7081565b6000811561028057506003546001600160a01b031661028e565b506002546001600160a01b03165b6000856001600160a01b0316636f307dc36040518163ffffffff1660e01b815260040160206040518083038186803b1580156102c957600080fd5b505afa1580156102dd573d6000803e3d6000fd5b505050506040513d601f19601f8201168201806040525081019061030191906106e8565b604080516001600160a01b0380841660208301529181018890528187166060820152908816608082015290915060009060a00160408051601f1981840301815290829052632e7ff4ef60e11b825291506001600160a01b03891690635cffe9de9061037690309086908b90879060040161087e565b602060405180830381600087803b15801561039057600080fd5b505af11580156103a4573d6000803e3d6000fd5b505050506040513d601f19601f820116820180604052508101906103c89190610862565b505050505050505050565b60008054604051633d98a1e560e01b81523360048201526001600160a01b0390911690633d98a1e59060240160206040518083038186803b15801561041757600080fd5b505afa15801561042b573d6000803e3d6000fd5b505050506040513d601f19601f8201168201806040525081019061044f9190610862565b6104b05760405162461bcd60e51b815260206004820152602760248201527f4a6f654c697175696461746f723a20556e74727573746564206d6573736167656044820152661039b2b73232b960c91b60648201526084015b60405180910390fd5b6001600160a01b03871630146105185760405162461bcd60e51b815260206004820152602760248201527f4a6f654c697175696461746f723a20556e74727573746564206c6f616e20696e60448201526634ba34b0ba37b960c91b60648201526084016104a7565b600080808061052986880188610704565b9350935093509350896001600160a01b0316846001600160a01b0316146105b85760405162461bcd60e51b815260206004820152603860248201527f4a6f654c697175696461746f723a20456e636f64656420646174612028626f7260448201527f726f77546f6b656e2920646f6573206e6f74206d61746368000000000000000060648201526084016104a7565b88831461062d5760405162461bcd60e51b815260206004820152603960248201527f4a6f654c697175696461746f723a20456e636f64656420646174612028626f7260448201527f726f77416d6f756e742920646f6573206e6f74206d617463680000000000000060648201526084016104a7565b6001600160a01b038a1663095ea7b3336106478c8c6106d5565b6040516001600160e01b031960e085901b1681526001600160a01b0390921660048301526024820152604401600060405180830381600087803b15801561068d57600080fd5b505af11580156106a1573d6000803e3d6000fd5b50505050507f7968ba28153757de2da7bce4c2ba9ebaf94445061f3050de1b0de5c34bb7d5d89a9950505050505050505050565b60006106e182846108f4565b9392505050565b6000602082840312156106f9578081fd5b81516106e181610918565b60008060008060808587031215610719578283fd5b843561072481610918565b935060208501359250604085013561073b81610918565b9150606085013561074b81610918565b939692955090935050565b600080600080600060a0868803121561076d578081fd5b853561077881610918565b9450602086013561078881610918565b935060408601359250606086013561079f81610918565b915060808601356107af81610930565b809150509295509295909350565b60008060008060008060a087890312156107d5578081fd5b86356107e081610918565b955060208701356107f081610918565b94506040870135935060608701359250608087013567ffffffffffffffff8082111561081a578283fd5b818901915089601f83011261082d578283fd5b81358181111561083b578384fd5b8a602082850101111561084c578384fd5b6020830194508093505050509295509295509295565b600060208284031215610873578081fd5b81516106e181610930565b600060018060a01b0380871683526020818716818501528560408501526080606085015284519150816080850152825b828110156108ca5785810182015185820160a0015281016108ae565b828111156108db578360a084870101525b5050601f01601f19169190910160a00195945050505050565b6000821982111561091357634e487b7160e01b81526011600452602481fd5b500190565b6001600160a01b038116811461092d57600080fd5b50565b801515811461092d57600080fdfea2646970667358221220d58b8d3b3c27b86fe37f36ccab61b22974f798be50e9d1720a46e500e237f32b64736f6c63430008040033",
  "linkReferences": {},
  "deployedLinkReferences": {}
}