{
  "_format": "hh-sol-artifact-1",
  "contractName": "JoeLiquidator",
  "sourceName": "contracts/JoeLiquidator.sol",
  "abi": [
    {
      "inputs": [
        {
          "internalType": "address",
          "name": "_joetrollerAddress",
          "type": "address"
        },
        {
          "internalType": "address",
          "name": "_joeRouter02Address",
          "type": "address"
        },
        {
          "internalType": "address",
          "name": "_jWAVAXAddress",
          "type": "address"
        },
        {
          "internalType": "address",
          "name": "_jWETHEAddress",
          "type": "address"
        }
      ],
      "stateMutability": "nonpayable",
      "type": "constructor"
    },
    {
      "inputs": [],
      "name": "DAIE",
      "outputs": [
        {
          "internalType": "address",
          "name": "",
          "type": "address"
        }
      ],
      "stateMutability": "view",
      "type": "function"
    },
    {
      "inputs": [],
      "name": "LINKE",
      "outputs": [
        {
          "internalType": "address",
          "name": "",
          "type": "address"
        }
      ],
      "stateMutability": "view",
      "type": "function"
    },
    {
      "inputs": [],
      "name": "MIM",
      "outputs": [
        {
          "internalType": "address",
          "name": "",
          "type": "address"
        }
      ],
      "stateMutability": "view",
      "type": "function"
    },
    {
      "inputs": [],
      "name": "USDCE",
      "outputs": [
        {
          "internalType": "address",
          "name": "",
          "type": "address"
        }
      ],
      "stateMutability": "view",
      "type": "function"
    },
    {
      "inputs": [],
      "name": "USDTE",
      "outputs": [
        {
          "internalType": "address",
          "name": "",
          "type": "address"
        }
      ],
      "stateMutability": "view",
      "type": "function"
    },
    {
      "inputs": [],
      "name": "WAVAX",
      "outputs": [
        {
          "internalType": "address",
          "name": "",
          "type": "address"
        }
      ],
      "stateMutability": "view",
      "type": "function"
    },
    {
      "inputs": [],
      "name": "WBTCE",
      "outputs": [
        {
          "internalType": "address",
          "name": "",
          "type": "address"
        }
      ],
      "stateMutability": "view",
      "type": "function"
    },
    {
      "inputs": [],
      "name": "WETHE",
      "outputs": [
        {
          "internalType": "address",
          "name": "",
          "type": "address"
        }
      ],
      "stateMutability": "view",
      "type": "function"
    },
    {
      "inputs": [
        {
          "internalType": "address",
          "name": "_flashloanLender",
          "type": "address"
        },
        {
          "internalType": "address",
          "name": "_jBorrowToken",
          "type": "address"
        },
        {
          "internalType": "uint256",
          "name": "_borrowAmount",
          "type": "uint256"
        },
        {
          "internalType": "address",
          "name": "_borrowerToLiquidate",
          "type": "address"
        },
        {
          "internalType": "bool",
          "name": "_isUSDC",
          "type": "bool"
        }
      ],
      "name": "doFlashloan",
      "outputs": [],
      "stateMutability": "nonpayable",
      "type": "function"
    },
    {
      "inputs": [
        {
          "internalType": "address",
          "name": "_underlyingBorrowToken",
          "type": "address"
        },
        {
          "internalType": "uint256",
          "name": "_borrowAmount",
          "type": "uint256"
        }
      ],
      "name": "getAmountOfWAVAXToFlashLoan",
      "outputs": [
        {
          "internalType": "uint256[]",
          "name": "amounts",
          "type": "uint256[]"
        }
      ],
      "stateMutability": "view",
      "type": "function"
    },
    {
      "inputs": [],
      "name": "jWAVAXAddress",
      "outputs": [
        {
          "internalType": "address",
          "name": "",
          "type": "address"
        }
      ],
      "stateMutability": "view",
      "type": "function"
    },
    {
      "inputs": [],
      "name": "jWETHEAddress",
      "outputs": [
        {
          "internalType": "address",
          "name": "",
          "type": "address"
        }
      ],
      "stateMutability": "view",
      "type": "function"
    },
    {
      "inputs": [],
      "name": "joeRouter02Address",
      "outputs": [
        {
          "internalType": "address",
          "name": "",
          "type": "address"
        }
      ],
      "stateMutability": "view",
      "type": "function"
    },
    {
      "inputs": [],
      "name": "joetrollerAddress",
      "outputs": [
        {
          "internalType": "address",
          "name": "",
          "type": "address"
        }
      ],
      "stateMutability": "view",
      "type": "function"
    },
    {
      "inputs": [
        {
          "internalType": "address",
          "name": "_initiator",
          "type": "address"
        },
        {
          "internalType": "address",
          "name": "_underlyingToken",
          "type": "address"
        },
        {
          "internalType": "uint256",
          "name": "_amount",
          "type": "uint256"
        },
        {
          "internalType": "uint256",
          "name": "_fee",
          "type": "uint256"
        },
        {
          "internalType": "bytes",
          "name": "_data",
          "type": "bytes"
        }
      ],
      "name": "onFlashLoan",
      "outputs": [
        {
          "internalType": "bytes32",
          "name": "",
          "type": "bytes32"
        }
      ],
      "stateMutability": "nonpayable",
      "type": "function"
    }
  ],
  "bytecode": "0x608060405234801561001057600080fd5b50604051610d72380380610d7283398101604081905261002f9161009e565b600080546001600160a01b039586166001600160a01b03199182161790915560018054948616948216949094179093556002805492851692841692909217909155600380549190931691161790556100f1565b80516001600160a01b038116811461009957600080fd5b919050565b600080600080608085870312156100b3578384fd5b6100bc85610082565b93506100ca60208601610082565b92506100d860408601610082565b91506100e660608601610082565b905092959194509250565b610c72806101006000396000f3fe608060405234801561001057600080fd5b50600436106100f55760003560e01c80636e47d76c11610097578063c2776d6f11610066578063c2776d6f1461022d578063daec383d14610248578063e62fbf6a14610263578063f4a836161461027657600080fd5b80636e47d76c146101d157806373b295c2146101e4578063897857b8146101ff578063974ab80e1461021257600080fd5b806323e30c8b116100d357806323e30c8b146101625780634350b3451461018357806359089e20146101965780635b189e2d146101b657600080fd5b80630902c43a146100fa57806311897d461461010f578063195187e114610147575b600080fd5b61010d6101083660046108b9565b610291565b005b61012a7349d5c2bdffac6ce2bfdb6640f4f80f226bc10bab81565b6040516001600160a01b0390911681526020015b60405180910390f35b61012a73a7d7079b0fead91f3e65f86e8915cb59c1a4c66481565b610175610170366004610920565b6103fe565b60405190815260200161013e565b60035461012a906001600160a01b031681565b6101a96101a43660046109c5565b610700565b60405161013e9190610acc565b61012a7350b7545627a5162f82a992c33b87adc75187b21881565b60025461012a906001600160a01b031681565b61012a73b31f66aa3c1e785363f0875a1b74e27b85fd66c781565b60005461012a906001600160a01b031681565b61012a73c7198437980c041c805a1edcba50c1ce5db9511881565b61012a735947bb275c521040051d82396192181b413227a381565b61012a73130966628846bfd36ff31a822705796e8cb8c18d81565b60015461012a906001600160a01b031681565b61012a73d586e7f844cea2f87f50152665bcbc2c279d8d7081565b600081156102ab57506003546001600160a01b03166102b9565b506002546001600160a01b03165b6000856001600160a01b0316636f307dc36040518163ffffffff1660e01b815260040160206040518083038186803b1580156102f457600080fd5b505afa158015610308573d6000803e3d6000fd5b505050506040513d601f19601f8201168201806040525081019061032c919061084b565b604080516001600160a01b0380841660208301529181018890528187166060820152908816608082015290915060009060a00160408051601f1981840301815290829052632e7ff4ef60e11b825291506001600160a01b03891690635cffe9de906103a190309086908b908790600401610b10565b602060405180830381600087803b1580156103bb57600080fd5b505af11580156103cf573d6000803e3d6000fd5b505050506040513d601f19601f820116820180604052508101906103f39190610ab0565b505050505050505050565b60008054604051633d98a1e560e01b81523360048201526001600160a01b0390911690633d98a1e59060240160206040518083038186803b15801561044257600080fd5b505afa158015610456573d6000803e3d6000fd5b505050506040513d601f19601f8201168201806040525081019061047a9190610ab0565b6104db5760405162461bcd60e51b815260206004820152602760248201527f4a6f654c697175696461746f723a20556e74727573746564206d6573736167656044820152661039b2b73232b960c91b60648201526084015b60405180910390fd5b6001600160a01b03871630146105435760405162461bcd60e51b815260206004820152602760248201527f4a6f654c697175696461746f723a20556e74727573746564206c6f616e20696e60448201526634ba34b0ba37b960c91b60648201526084016104d2565b600080808061055486880188610867565b9350935093509350896001600160a01b0316846001600160a01b0316146105e35760405162461bcd60e51b815260206004820152603860248201527f4a6f654c697175696461746f723a20456e636f64656420646174612028626f7260448201527f726f77546f6b656e2920646f6573206e6f74206d61746368000000000000000060648201526084016104d2565b8883146106585760405162461bcd60e51b815260206004820152603960248201527f4a6f654c697175696461746f723a20456e636f64656420646174612028626f7260448201527f726f77416d6f756e742920646f6573206e6f74206d617463680000000000000060648201526084016104d2565b6001600160a01b038a1663095ea7b3336106728c8c610838565b6040516001600160e01b031960e085901b1681526001600160a01b0390921660048301526024820152604401600060405180830381600087803b1580156106b857600080fd5b505af11580156106cc573d6000803e3d6000fd5b50505050507f7968ba28153757de2da7bce4c2ba9ebaf94445061f3050de1b0de5c34bb7d5d89a9950505050505050505050565b6040805160028082526060808301845292600092919060208301908036833701905050905073b31f66aa3c1e785363f0875a1b74e27b85fd66c78160008151811061075b57634e487b7160e01b600052603260045260246000fd5b60200260200101906001600160a01b031690816001600160a01b031681525050838160018151811061079d57634e487b7160e01b600052603260045260246000fd5b6001600160a01b0392831660209182029290920101526001546040516307c0329d60e21b8152911690631f00ca74906107dc9086908590600401610b86565b60006040518083038186803b1580156107f457600080fd5b505afa158015610808573d6000803e3d6000fd5b505050506040513d6000823e601f3d908101601f1916820160405261083091908101906109f0565b949350505050565b60006108448284610bdc565b9392505050565b60006020828403121561085c578081fd5b815161084481610c16565b6000806000806080858703121561087c578283fd5b843561088781610c16565b935060208501359250604085013561089e81610c16565b915060608501356108ae81610c16565b939692955090935050565b600080600080600060a086880312156108d0578081fd5b85356108db81610c16565b945060208601356108eb81610c16565b935060408601359250606086013561090281610c16565b9150608086013561091281610c2e565b809150509295509295909350565b60008060008060008060a08789031215610938578081fd5b863561094381610c16565b9550602087013561095381610c16565b94506040870135935060608701359250608087013567ffffffffffffffff8082111561097d578283fd5b818901915089601f830112610990578283fd5b81358181111561099e578384fd5b8a60208285010111156109af578384fd5b6020830194508093505050509295509295509295565b600080604083850312156109d7578182fd5b82356109e281610c16565b946020939093013593505050565b60006020808385031215610a02578182fd5b825167ffffffffffffffff80821115610a19578384fd5b818501915085601f830112610a2c578384fd5b815181811115610a3e57610a3e610c00565b8060051b604051601f19603f83011681018181108582111715610a6357610a63610c00565b604052828152858101935084860182860187018a1015610a81578788fd5b8795505b83861015610aa3578051855260019590950194938601938601610a85565b5098975050505050505050565b600060208284031215610ac1578081fd5b815161084481610c2e565b6020808252825182820181905260009190848201906040850190845b81811015610b0457835183529284019291840191600101610ae8565b50909695505050505050565b600060018060a01b0380871683526020818716818501528560408501526080606085015284519150816080850152825b82811015610b5c5785810182015185820160a001528101610b40565b82811115610b6d578360a084870101525b5050601f01601f19169190910160a00195945050505050565b60006040820184835260206040818501528185518084526060860191508287019350845b81811015610bcf5784516001600160a01b031683529383019391830191600101610baa565b5090979650505050505050565b60008219821115610bfb57634e487b7160e01b81526011600452602481fd5b500190565b634e487b7160e01b600052604160045260246000fd5b6001600160a01b0381168114610c2b57600080fd5b50565b8015158114610c2b57600080fdfea264697066735822122042ef598fb4e463512f70d386dfd402897fffdfd09064f23013705fa5ce51e0ba64736f6c63430008040033",
  "linkReferences": {},
  "deployedLinkReferences": {}
}